:100000000C9468010C94550B0C945F0B0C94BA0D76
:100010000C94690B0C94730B0C947D0B0C94300FA7
:100020000C94870B0C9487010C9487010C94FF149B
:100030000C9400240C941F0B0C94350B0C94910B16
:100040000C947E070C9490190C941A090C94870157
:100050000C9496090C9487010C9487010C948701E9
:100060000C942A0B0C94EC0A0C94CB0A0C94D60A30
:100070000C94E10A0C94FF0A0C94AE0A0C948701CC
:100080000C94C00A0C9487010C948701231ADD217B
:100090008A1ABD1A111A321B451B1D1C271C291C4C
:1000A0002C1C5B1C7C1C8A1CE41CEB1C3E1D591D7B
:1000B0005F1D981D4E1E721E861E1A1A30203E208D
:1000C0009A21452047209220A121000021104220A2
:1000D00063308440A550C660E770088129914AA129
:1000E0006BB18CC1ADD1CEE1EFF1311210027332A0
:1000F0005222B5529442F772D662399318837BB379
:100100005AA3BDD39CC3FFF3DEE36224433420042F
:100110000114E664C774A44485546AA54BB52885C8
:100120000995EEE5CFF5ACC58DD55336722611167F
:100130003006D776F6669556B4465BB77AA7199718
:100140003887DFF7FEE79DD7BCC7C448E558866807
:10015000A7784008611802282338CCC9EDD98EE968
:10016000AFF9488969990AA92BB9F55AD44AB77ADF
:10017000966A711A500A333A122AFDDBDCCBBFFBB8
:100180009EEB799B588B3BBB1AABA66C877CE44CEF
:10019000C55C222C033C600C411CAEED8FFDECCD08
:1001A000CDDD2AAD0BBD688D499D977EB66ED55EBF
:1001B000F44E133E322E511E700E9FFFBEEFDDDF58
:1001C000FCCF1BBF3AAF599F788F8891A981CAB1E4
:1001D000EBA10CD12DC14EF16FE18010A100C23016
:1001E000E3200450254046706760B9839893FBA3D1
:1001F000DAB33DC31CD37FE35EF3B1029012F32266
:10020000D2323542145277625672EAB5CBA5A89520
:1002100089856EF54FE52CD50DC5E234C324A014B5
:1002200081046674476424540544DBA7FAB79987B0
:10023000B8975FE77EF71DC73CD7D326F236910605
:10024000B01657667676154634564CD96DC90EF9F8
:100250002FE9C899E9898AB9ABA944586548067855
:100260002768C018E1088238A3287DCB5CDB3FEB10
:100270001EFBF98BD89BBBAB9ABB754A545A376AA5
:10028000167AF10AD01AB32A923A2EFD0FED6CDDE0
:100290004DCDAABD8BADE89DC98D267C076C645CF5
:1002A000454CA23C832CE01CC10C1FEF3EFF5DCFF0
:1002B0007CDF9BAFBABFD98FF89F176E367E554E45
:1002C000745E932EB23ED10EF01E00081C1814105E
:1002D00011241FBECFEFD0E1DEBFCDBF11E0A0E003
:1002E000B1E0E2E9F3E500E00BBF02C007900D9238
:1002F000A039B107D9F714E0A0E9B1E001C01D921F
:10030000AE3FB107E1F70E9407220C94C8290C9474
:1003100000008FB7F894992708958FBF0895282F6C
:100320009FB7F894E82FFF27E155FB4F80818F3F5F
:1003300081F4E091D004E21771F40BC02093AC0477
:1003400004C0FF27E155FB4F20832093D00420E019
:1003500007C025E005C08091AC048F3F91F7EECF38
:10036000892F99278FBF822F992708951F931FB731
:10037000F89480915603882341F486E00E948F010F
:10038000882319F481E080935603812F99278FBF2A
:100390001F910895FA01422F6683672F772765839F
:1003A000838721878091A1019091A201892B19F067
:1003B00085E090E008952FB7F894332785E0809387
:1003C000A4011092A501F093A001E0939F0182E0A7
:1003D00090E09093A2018093A1011092A701109246
:1003E000A601445F4093A3012FBF9FB7F89480916B
:1003F000AB03882311F020E006C081E08093AB03BB
:100400001092AC0321E0892F99278FBF222329F076
:100410000E94B60180E090E008951092A20110922F
:10042000A10181E090E00895CF93DF93DB01FB0110
:1004300035968183892F9927EB018D8384E6868306
:100440008091F9019091FA01892B19F085E090E0F3
:1004500029C07093FA016093F901448380916D0182
:10046000882319F480E090E01DC08681EB016D8146
:100470007727762F662721813327622B732B1092E3
:100480006D01242FAD010E94CA019927282F8823CE
:1004900039F081E080936D011092FA011092F90118
:1004A000822F9927DF91CF910895EF920F931F9399
:1004B000AE2D99E0899FF0011124EA53FE4F40834D
:1004C0005183628373830483158326833783A170EA
:1004D00080858E7F8A2B8260808783E00E948F01D7
:1004E0001F910F91EF9008957FB7F89462B7209114
:1004F000220430912304409124045091250406B62F
:1005000001FE0FC081B792B7280F311D411D511D4B
:100510002F5F3F4F4F4F5F4F290F311D411D511D21
:1005200004C0260F311D411D511D872F99278FBFF4
:10053000CA01B90108958FB7F89499272BB331E018
:1005400023272BBB8FBF0895882311F060E070E054
:10055000CB010895982F4FB7F894552722B3277DE4
:1005600022BB80E097FD939A959A8299806822BB7E
:1005700096FD939A959A8299806422BB95FD939AF1
:10058000959A8299806222BB94FD939A959A82995A
:10059000806122BB93FD939A959A8299886022BBD1
:1005A00092FD939A959A8299846022BB91FD939AC9
:1005B000959A8299826022BB90FD939A959A82992E
:1005C00081604FBF99270895EAECF0E06927660F34
:1005D000F11DE60FF11DC895982F802D3196C89515
:1005E000902508958FB7F89499272BB334E02327EB
:1005F0002BBB8FBF0895282F9FB7F894662349F02F
:10060000E82FFF27E95AFC4F8081882311F021E071
:1006100006C0E22FFF27E95AFC4F608320E0892FB4
:1006200099278FBF822F99270895E82F8FB7F894C5
:10063000282F332790E0FF27E95AFC4F8081861747
:1006400009F491E02FBF892F99270895882311F08D
:100650006E9A08956E980895882311F06F9A089500
:100660006F98089580E00E942603BA9ABB98B99AC1
:100670006C9A80E00E942C03709A6B986A98689834
:1006800081E00E94260308950F931F93CF93DF9379
:10069000182F8FB7F894C82FDD270C2F61E080E06A
:1006A0000E94FB02882321F0CFBF85E090E024C0A8
:1006B000809178018823A1F48091B701823081F480
:1006C00009C082E08093B701109278010E94320342
:1006D000B89AC0981093750180E00FBF99270CC09D
:1006E0008091B701882369F38FB7F8949927109206
:1006F00057038FBF81E0F1CFDF91CF911F910F9111
:1007000008951F93182F81E00E9426031FB9779B3D
:10071000FECF8FB199271F9108958F929F92AF922C
:10072000BF92CF92DF92EF92FF920F931F93CF93DE
:10073000DF938FB7F8949927C0905E03D0905F0342
:100740008090FC019090FD01C0910203D0910303C1
:100750002091290430912A044AE0A42EB12CAC0E39
:10076000BD1E2A153B0508F459018FBF7401EC0E1C
:10077000FD1E86010C0F1D1F14C0C114D10419F0F9
:10078000F801808101C080E00E94810381149104FE
:1007900011F0F701808321960894E11CF11C0F5F92
:1007A0001F4FC5010197C817D90738F381E00E9490
:1007B0002C039FB7F894C114D10431F0CC0EDD1E88
:1007C000F60180818FB901C01FB8D0930303C09395
:1007D0000203892F99278FBF80E090E0DF91CF91AE
:1007E0001F910F91FF90EF90DF90CF90BF90AF904F
:1007F0009F908F9008952FB7F894332750932A0431
:100800004093290490935F0380935E037093FD01EE
:100810006093FC0110920303109202032FBF452B3B
:1008200029F08FB10E948D039927089584E10E94D9
:100830008F0180E090E008958FB7F8949927109287
:1008400059038FBF0895AF92BF92CF92DF92EF927C
:10085000FF920F931F93A82EB62E77278BE090E080
:10086000689FF001699FF00D789FF00D1124E95900
:10087000FB4F8081882319F085E090E07FC0BB208A
:1008800019F480E094E002C080E090E0AA27BB2742
:10089000BA2FA92F982F882782179307A407B50787
:1008A00008F464C0821B930BA40BB50B8C159D053B
:1008B000AE05BF0508F45AC08BE090E0689FF001D8
:1008C000699FF00D789FF00D1124E959FB4FA0822C
:1008D0002383348345835683C782D086E186F2869C
:1008E00012830183BB2009F03EC08FB7F894282FF4
:1008F0003327922F8091BF01882311F581E08093E7
:10090000BF01109262032FBF8FB7F894082F1127F1
:10091000902F80918001813029F58091BF01813035
:1009200021F48EE10E948F0109C08230D9F48091B8
:1009300062038093800183E08093BF010FBF13C0E7
:100940008091FB018F3F71F4E0917F01EE2351F024
:1009500010C010927E0104C0FF27E550FE4F1082A8
:1009600010927F019FBF80E090E008C086E090E099
:1009700005C080917E018F3F79F7EBCF1F910F91DA
:10098000FF90EF90DF90CF90BF90AF90089580E8F8
:10099000809300021092FF021092A0031092B50300
:1009A0001092D2040895CF93DF93FC0115A6DC01C9
:1009B0009E96ED011B821A82198280E886A7DF913C
:1009C000CF9108952F923F924F925F926F927F92B4
:1009D0008F929F92AF92BF92CF92DF92EF92FF924F
:1009E0000F931F93CF93DF93CDB7DEB728970FB642
:1009F000F894DEBF0FBECDBF209045033090460374
:100A00004090470350904803662477248824BEE42E
:100A1000AB2EA3E8BA2ECC24DD24EE24FF2400E084
:100A200010E0222D332D442D552D662D772D882D48
:100A300090E00E948E2429833A834B835C836D83EC
:100A40007E838F839887822E932EA42EB52E240129
:100A5000350100E20E948C25A22EB32EC42ED52E85
:100A6000C301B20196958795779567956A0D7B1DB1
:100A70008C1D9D1D97FF05C09F776F5F7F4F8F4F28
:100A80009F4F609345037093460380934703909371
:100A9000480328960FB6F894DEBF0FBECDBFDF9196
:100AA000CF911F910F91FF90EF90DF90CF90BF906B
:100AB000AF909F908F907F906F905F904F903F90FE
:100AC0002F9008958FB7F8946091000370910103FF
:100AD0002CB53DB506B602FE04C06F5F7F4F2CB546
:100AE0003DB599278FBF88279927CB0177276627A0
:100AF00044275527622B732B842B952B0895EF9257
:100B0000FF920F931F930E9462057B018C0120913D
:100B10004B0330914C0340914D0350914E03809113
:100B20008A0490918B04A0918C04B0918D04820F63
:100B3000931FA41FB51FE216F3060407150730F034
:100B400082179307A407B50758F005C082179307CB
:100B5000A407B507E0F5E816F9060A071B07B8F57C
:100B60009C01AD012E193F09400B510B213060E86B
:100B7000360760E0460760E0560768F180E090E8DD
:100B8000A0E0B0E0E80EF91E0A1F1B1FE0924B0325
:100B9000F0924C0300934D0310934E0380E090E8D5
:100BA000AFEFBFEFE80EF91E0A1F1B1F20503048A1
:100BB0004040504020938A0430938B0440938C042F
:100BC00050938D0420E030E840E050E014C020E075
:100BD00030E040E050E080934B0390934C03A093AF
:100BE0004D03B0934E0310928A0410928B0410921E
:100BF0008C0410928D04A901B7012CB53DB5C90133
:100C00008E199F0903968417950720F0B9016D5F2F
:100C10007F4F02C0640F751F6115710511F461E00B
:100C200070E0615070407BBD6ABD80E186BF87B7D0
:100C3000806187BF1F910F91FF90EF9008950F93F0
:100C40001F930FB7F894112760934B0370934C03D5
:100C500080934D0390934E0320938A0430938B042A
:100C600040938C0450938D040E947F050FBF1F9109
:100C70000F91089597B79F7D97BF90E296BF882305
:100C800019F08EB5806402C08EB58F7B8EBD87B79C
:100C9000806287BF80E090E00895CF93DF93109249
:100CA0006D01A091F901B091FA01109721F08091A6
:100CB000990480FF08C081E080936D0117C085E032
:100CC0000E948F0113C0FD01359624813327ED0169
:100CD0006D817727762F662781819927682B792B5D
:100CE000AD0186810E94CA01882349F7DF91CF9127
:100CF00008959FB7F89480918E048A3011F020E017
:100D000006C020E08091B103843009F421E0892FEE
:100D100099278FBF222349F088E00E948F018FB767
:100D2000F894992710929C0106C08FB7F8949927E0
:100D300021E020939C018FBF08952FB7F8943327AB
:100D40008CB95E9A2FBF0895FC016115710519F4E5
:100D500081E090E008958091F6049091F704892B4A
:100D600019F085E090E008957093950460939404E1
:100D7000F093F704E093F6041092E8011092E70173
:100D800081E0809349035E9A569A808121E030E0A9
:100D90003093E8012093E7010E949D0680E090E0F7
:100DA00008958091AD018E7F8093AD018EE7809391
:100DB000750461E070E085E794E00E94A40699273D
:100DC0000895DF92EF92FF920F931F938FB7F894DD
:100DD000282F3327D22E91B782B746B7981711F034
:100DE00041FF02C02FBF6AC080912C048823E1F12B
:100DF0000E947402E090AD03F090AE030091AF0347
:100E00001091B00320916204309163044091640416
:100E1000509165046E197F09800B910B621773075F
:100E20008407950720F010922C0471E01EC02E0D4F
:100E30003F1D401F511F8091220490912304A091D7
:100E40002404B0912504281B390B4A0B5B0B273E69
:100E500031054105510540F4822F223010F070E039
:100E600005C070E082E002C070E086EE682F61503D
:100E700000B601FCFDCF82B7681709F46F5F2091BF
:100E80002204309123044091240450912504DA0176
:100E9000C9010196A11DB11D860F911DA11DB11D96
:100EA00082179307A407B50710F4622F609561BFFE
:100EB000DFBE772319F082E00E948F011F910F910E
:100EC000FF90EF90DF900895AFB7F894BB27E1E073
:100ED000E0932C046093AD037093AE038093AF0353
:100EE0009093B003209362043093630440936404AE
:100EF00050936504AFBF0E94E10608951F920F92C0
:100F00000FB60F9211248F9383B783BF00B600FCF6
:100F1000FDCF8F910F900FBE0F901F901895982FB7
:100F20008091A801882381F5992371F531E03093F0
:100F3000A80180916E018093A90120919D01822FCB
:100F4000817080930B038091730190917401909351
:100F5000AB018093AA0180919E018093AC0132275E
:100F60003170267EE32FFF27EE0FFF1FE159FE4F62
:100F7000808191819093740180937301232B20933E
:100F80009D018BE00E948F0108950F931F93082FFE
:100F9000162F8091B1038130D9F0813038F0823042
:100FA00009F44AC0833009F00EC159C0002309F486
:100FB0003EC11092F5011092F40110926604109255
:100FC000760410929F031092E5011092E4011FC174
:100FD000002309F02CC18091E4019091E5010E9469
:100FE000E4029093E5018093E40182E08093B103F1
:100FF00010937604143409F0E6C00BC1869504C042
:1010000080919D0186958695817009F0DCC0809164
:101010009D01992311F0846001C0826080939D013D
:1010200080919D01877E886080939D0110929E0132
:101030008FEF80936E01FBC0002309F0C4C0609362
:101040009F038091E4019091E5010E94E402909356
:10105000E5018093E40183E08093B103E8C08091CF
:1010600066048F3F09F4AFC0002309F447C0823003
:1010700008F4A9C0E091F401EE2309F4D1C04E2F89
:101080004150E42FFF27EC50FE4F82819927382FE3
:101090002227442311F4E2E002C0E42FE150FF27AD
:1010A000EC50FE4F82819927282B392B8091E40147
:1010B0009091E5012817390709F085C080E00E946A
:1010C0008F0730919F038091A4042091A504982F4D
:1010D0009F5F963008F090E0921709F474C0E82FF3
:1010E000FF27EC55FB4F32838F5F8093A40486303B
:1010F00010F01092A4040E94B60165C0823008F47A
:101100004EC0E091F501FF27EC50FE4F8281482F41
:101110005527342F20919D01822F8695869586959F
:10112000837099278130910519F00297F9F40EC068
:10113000277E206120939D01442311F485E001C0A6
:1011400080E080939E0130936E0110C080919E01DB
:10115000843360F4E0917301F0917401E80FF11DA4
:10116000408380919E018F5F80939E018091F50165
:10117000E82FFF27EC50FE4F62818F5F8093F501CF
:10118000833010F01092F50177278091E40190915F
:10119000E5010E94E4029093E5018093E4018091CF
:1011A000F401E82FFF27EC50FE4F12838F5F8093EE
:1011B000F401833010F01092F401809166048F5F87
:1011C0008093660434C01092F5011092F4011092DD
:1011D000B103109266041092760410929F0310924D
:1011E000E5011092E4018091AD018D7F8093AD0106
:1011F00081E00E948F0780919C01882331F084E078
:101200008093B1030E94790612C0002381F081E02F
:1012100023CF80919D01982F917080FDEFCEF0CE6D
:101220008091F8019927382F222742E036CF1F916D
:101230000F9108951F920F920FB60F9211242F93C2
:101240003F934F935F936F937F938F939F93AF934E
:10125000BF93EF93FF935F9B3DC06CB1E09183041C
:10126000F09184043097F9F08091A5039091A60342
:10127000E80FF91F608301969093A6038093A5035E
:101280002091B8033091B9038217930718F1109297
:10129000840410928304809101028330D9F057981E
:1012A0001092010217C06E3719F460E081E010C09F
:1012B0008091AD016D3721F482608093AD010AC049
:1012C00081FF05C08D7F8093AD0180E2682780E0BB
:1012D0000E94C507FF91EF91BF91AF919F918F91B0
:1012E0007F916F915F914F913F912F910F900FBE22
:1012F0000F901F901895982F8D57823068F4809129
:10130000AD0181608093AD0180E2892780935D0308
:101310008DE78093750402C09093750461E070E0DE
:1013200085E794E00E94A4069927089578941F9277
:101330000F920FB60F921124FF920F931F932F93CA
:101340003F934F935F936F937F938F939F93AF934D
:10135000BF93CF93DF93EF93FF932091E7013091F9
:10136000E80180919404909195042817390780F43E
:10137000E091F604F091F704E20FF31F80812F5FF4
:101380003F4F3093E8012093E7010E949D06D0C0B3
:101390001092F7041092F604109249035698809127
:1013A000AD0180FF0EC08E7F8093AD0180915D0303
:1013B0008093750461E070E085E794E00E94A406E4
:1013C000B7C080918E04843009F494C0853040F415
:1013D000823021F18330B8F5813009F0A4C00DC00E
:1013E000863009F495C0863008F48BC0873009F444
:1013F00096C0883009F097C099C080919A040E94E5
:101400007B09182F83E080938E0460919A04809169
:101410009A0390919B030E94E40210C08091A40360
:101420000E947B09182F83E080938E046091A403AF
:1014300080919A0390919B030E94E40290939B03F6
:1014400080939A036EC0FFB6F894E0919304FF274F
:10145000EE0FFF1FE655FC4F80810E947B09082F8D
:1014600010919304C12FDD27FE01EE0FFF1FE655FB
:10147000FC4F608180919A0390919B030E94E4024B
:1014800090939B0380939A0320919E032F5F209358
:101490009E03113039F58091A401E0919F01F091F4
:1014A000A001E80FF11DE0818F5F8093A40190916E
:1014B000A301981730F482E08093AB0340E050E042
:1014C00002C04E2F5527DE01AA0FBB1FFD01E755B5
:1014D000FC4F8081823031F02F3F21F0A655BC4F68
:1014E0004C9303C084E080938E04102F8F2D992796
:1014F0008FBF17C080919A030E947B09182F85E047
:101500000BC080919B030E947B09182F86E004C0CA
:101510000E94D106182F87E080938E0402C088E0D5
:1015200003C0112329F089E080938E040E94B60144
:10153000FF91EF91DF91CF91BF91AF919F918F91EB
:101540007F916F915F914F913F912F911F910F91DB
:10155000FF900F900FBE0F901F9018951F920F9243
:101560000FB60F9211248F9380919B0087FF02C0CA
:1015700080919C008F910F900FBE0F901F90189537
:1015800078941F920F920FB60F9211240F900FBEF6
:101590000F901F90189578941F920F920FB60F928C
:1015A00011240F900FBE0F901F90189578941F92E2
:1015B0000F920FB60F9211240F900FBE0F901F9035
:1015C000189578941F920F920FB60F9211240F90D6
:1015D0000FBE0F901F90189578941F920F920FB620
:1015E0000F9211248F939F9380918800909189008E
:1015F0009F918F910F900FBE0F901F901895789428
:101600001F920F920FB60F9211242F933F938F9337
:101610009F932FB7F8943327809102029091030291
:10162000019690930302809302022FBF9F918F91A6
:101630003F912F910F900FBE0F901F9018957894A7
:101640001F920F920FB60F9211240F900FBE0F90A2
:101650001F90189578941F920F920FB60F92112435
:101660000F900FBE0F901F90189578941F920F92B5
:101670000FB60F9211242F933F938F939F932FB701
:10168000F894332780910003909101030196909381
:101690000103809300032FBF9F918F913F912F9162
:1016A0000F900FBE0F901F9018951F920F920FB6BC
:1016B0000F9211240F900FBE0F901F9018951F923C
:1016C0000F920FB60F9211240F900FBE0F901F9024
:1016D00018951F920F920FB60F9211240F900FBE04
:1016E0000F901F9018951F920F920FB60F92112412
:1016F0000F900FBE0F901F9018951F920F920FB66C
:101700000F9211240F900FBE0F901F9018951F92EB
:101710000F920FB60F9211240F900FBE0F901F90D3
:1017200018951F920F920FB60F9211242F933F938B
:101730004F935F936F937F938F939F93AF93BF93D9
:10174000EF93FF9383B783BF00B600FCFDCF81B753
:1017500099270196AA27BB272091220430912304C0
:101760004091240450912504280F391F4A1F5B1F04
:10177000209322043093230440932404509325049F
:1017800078940E94E106FF91EF91BF91AF919F91F4
:101790008F917F916F915F914F913F912F910F901A
:1017A0000FBE0F901F9018958091B0018C3118F0EA
:1017B0004CE150E002C0482F55278CE1EDE1F3E009
:1017C00011928A95E9F79091B0018091AE0120E0E5
:1017D00030E0ADE1B3E00FC0E82FFF27EC5FFD4F35
:1017E000E081992329F08F5F8A3F09F480E09150CE
:1017F000ED932F5F3F4F2417350771F79093B0019A
:101800008093AE014CE161E173E08FEF9FEF0E94A6
:101810001402882319F08CE00E948F01089566233A
:1018200051F48091B001882319F00E94D40B0895DF
:101830001092B10108958CE00E948F0108958FB736
:10184000F894282F33278091B101813021F42FBFE4
:1018500080E090E0089590E08091B001882309F441
:1018600091E0992321F02FBF81E090E0089581E07D
:101870008093B1012FBF0E94D40B80E090E00895C7
:10188000AF92BF92CF92DF92EF92FF920F931F938E
:10189000CF93DF93B82E10917D01C12FDD278BE010
:1018A00090E0C89FF001C99FF00DD89FF00D112462
:1018B000E959FB4FF0804FEF40937D0110821123D7
:1018C000A1F58FB7F894082F8091BF01833061F59F
:1018D00080918001882341F580917E0190E08F3FC7
:1018E00009F491E09923D9F48F3F19F42FEF30E0F8
:1018F0000DC0282F3327F901E550FE4F80818093DA
:101900007E018F3F11F440937F0140832093620357
:1019100081E08093BF018EE10E948F0105C081E0CC
:10192000809380011092BF010FBF21E0F21609F4ED
:10193000B3C034E0F31609F0B3C08BE090E0C89F69
:10194000F001C99FF00DD89FF00D1124E959FB4F0C
:10195000C181D281C380D480E580F680112309F053
:101960009FC0BB2009F06DC02E815F814B81AC818F
:101970005E010894A11CB11C6981F5010181FF92EF
:10198000EF92DF92CF928985992787FD90959F935B
:101990008F938885992787FD90959F938F93332701
:1019A000322F2227E52FFF272E2B3F2B3F932F93FC
:1019B0008A85992787FD90959F938F938D8199278D
:1019C0009F938F935527542F4427BB274A2B5B2B7C
:1019D0005F934F937727762F66271127602B712B04
:1019E0007F936F93888199279F938F9380E091E0F5
:1019F0009F938F930E94162688812DB73EB72A5E4B
:101A00003F4F0FB6F8943EBF0FBE2DBF8F3F09F575
:101A10008981F50121819927982F88273327822BE7
:101A2000932B8F5F9F4FA9F48FEF9FEFA3E0B0E060
:101A30008093980190939901A0939A01B0939B0190
:101A400008C08FE191E09F938F930E9416260F901C
:101A50000F900E941F0C8091980190919901A09184
:101A60009A01B0919B010B96A11DB11D8093980125
:101A700090939901A0939A01B0939B010E947402E4
:101A8000AB01BC0111E0E12E0AE010E020E030E003
:101A900081E00E94550204C0112311F40E949B02B0
:101AA000DF91CF911F910F91FF90EF90DF90CF903A
:101AB000BF90AF9008951F93182F8091B101882394
:101AC00049F48091B0018D3728F081E08093B10115
:101AD0000E94D40B8FB7F894282F33279091B00130
:101AE0009A3FA8F48091AF01E82FFF27EC5FFD4FEC
:101AF00010838F5F8093AF018A3F11F41092AF0182
:101B00009F5F9093B0012FBF80E090E003C02FBF94
:101B10008FEF9FEF1F910895CF92DF92EF92FF9288
:101B20000F931F938093BE0160939B04C901880F9C
:101B3000892F881F990B919580939C04220F812FE8
:101B40009927282B20939D0400939E04D092100384
:101B5000C0920F03F092B403E092B3034093720477
:101B60008DE10E948F011F910F91FF90EF90DF9008
:101B7000CF9008951F920F920FB60F9211242F93BA
:101B80003F934F935F936F937F938F939F93AF9305
:101B9000BF93EF93FF9389B78B7F89BF8CE10E943E
:101BA0008F01FF91EF91BF91AF919F918F917F91A5
:101BB0006F915F914F913F912F910F900FBE0F90BA
:101BC0001F9018950F931F93182F0FB7F89461E08B
:101BD00080E00E94FB02882371F5109375018091CB
:101BE00078018823A9F58091B701823089F583E1D6
:101BF0000CC00E9432038091B701882349F481E030
:101C00008093B7011092B70385E10E948F012AC02B
:101C10008091D3048F3F31F5E0917701EE2311F1EC
:101C20001CC01092760104C0FF27ED52FB4F1082BA
:101C30001092770117C081E090E002C0880F991FD1
:101C40001A95E2F72091B601282B2093B6010AC01D
:101C50008091B7018823E1F6CCCF809176018F3F48
:101C600019F7DFCF802F99278FBF80E090E01F9179
:101C70000F9108951F9383E00E9444039927182F22
:101C8000882319F083E00E94E20D812F99271F918C
:101C90000895CF92DF92EF92FF920F931F93CF930D
:101CA000DF938C01F62E6A01E22E8FB7F894C82FCD
:101CB000DD2760E080E00E941503882321F0CFBF7C
:101CC00080E090E01EC0CFBF0F0D111D802F8068F7
:101CD0000E948103F82E16950795802F807C0E9424
:101CE00081030E2D0AC0EE2DFF27E01BF109EC0D3C
:101CF000FD1D80810E94810301500023A1F78F2DDB
:101D00009927DF91CF911F910F91FF90EF90DF9076
:101D1000CF900895CF93DF93CDB7DEB724970FB65A
:101D2000F894DEBF0FBECDBF8FB7F89499272091EE
:101D30009803309199032983232F33272A832091F5
:101D4000AD043091AE042B83232F33272C838FBF18
:101D500024E0AE014F5F5F4F60E088E691E00E94B3
:101D6000490E24960FB6F894DEBF0FBECDBFDF91AB
:101D7000CF9108951F93CF93DF93182F8FB7F894C7
:101D8000C82FDD2760E080E00E941503882321F042
:101D9000CFBF80E090E005C0CFBF812F0E948103BC
:101DA0009927DF91CF911F910895EF92FF920F93A2
:101DB0001F93CF93DF93182F7B01042F8FB7F894D5
:101DC000C82FDD2760E080E00E941503882321F002
:101DD000CFBF80E090E014C0CFBF1064812F99275F
:101DE0009093A3038093A2030E948103182F402F96
:101DF0005527B70180E090E00E94FB03812F9927CF
:101E0000DF91CF911F910F91FF90EF900895C098AF
:101E10006091C3017091C40141E08FE30E94D50E2F
:101E2000089582E090E090930E0380930D0381E08B
:101E30008093FF0220E030E080917501843011F43E
:101E400021E030E0232B29F484E00E94440388231E
:101E500019F40E94070F089584E00E94E20D08958E
:101E60001F920F920FB60F9211242F933F934F930F
:101E70005F936F937F938F939F93AF93BF93EF93F2
:101E8000FF9380910D0390910E03019719F40E9426
:101E9000110F05C08091D2048F5F8093D204FF910F
:101EA000EF91BF91AF919F918F917F916F915F91D2
:101EB0004F913F912F910F900FBE0F901F9018954B
:101EC0001F938091B601882309F046C010917501D7
:101ED0001F3F09F041C060E00E9415038823E1F133
:101EE00081E08093E3018091C2018823C1F11092C7
:101EF000E30185E090E041C0923049F5C09A8091BD
:101F0000760190E08F3F09F491E09923D9F48F3F57
:101F100019F42FEF30E00DC0282F3327F901ED52CF
:101F2000FB4F8081809376018F3F11F4809377017E
:101F300010832093B70381E08093B70185E10E946D
:101F40008F0105C0109378011092B70111C08091E4
:101F5000B701882369F00FC081E090E00EC0809146
:101F600078019091B701882339F2923021F0EFCFB8
:101F700080E00E94260380E090E01F9108951F9367
:101F8000182F81E090E09093B9018093B8011092EE
:101F9000C2010E94600F8FB7F89499271093B20185
:101FA0008FBF8FE00E948F011F9108951F93CF93E1
:101FB000DF939FB7F894C92FDD271C2F90917501EF
:101FC000981721F0CFBF81E090E03AC08FEF809367
:101FD00075013091B6013323F1F48FB7F894992746
:101FE000109257038FBF0E94600FCFBF11C0209384
:101FF000750181E090E002C0880F991F4A95E2F7D1
:10200000809538233093B60183E10E948F011FBF72
:1020100080E090E015C080E065E0E32FFF270E949C
:102020001D29292F492F5527CF01042E02C0959530
:1020300087950A94E2F780FDDACF822F8F5FEFCF8A
:10204000DF91CF911F9108951F93CF93DF938FB7A7
:10205000F894C82FDD271C2F80910D0390910E035B
:10206000892B29F484E00E94D60FCFBF1EC01092A6
:10207000FF028091D204882311F0B79904C00E9911
:1020800008C0882319F081508093D2040E94110F58
:102090000BC081E090E090930E0380930D031092AB
:1020A000D20484E00E94D60F1FBFDF91CF911F9111
:1020B00008950E94C704C09AC09888E00E94BA0E92
:1020C00088E00E94BA0EC09A84E00E94D60F0E9457
:1020D00024100895FF920F931F93CF93DF93F82E50
:1020E0008B018FB7F894C82FDD2760E080E00E9455
:1020F0001503882321F0CFBF80E090E00CC0CFBF54
:102100008F2D0E948103812F99270E948103802FA8
:102110000E9481039927DF91CF911F910F91FF902A
:1021200008951F931FB7F89480910C03882319F426
:1021300060E070E009C060E080919604882309F4B3
:1021400061E081E06827772780914A03882319F4AA
:1021500080E090E00AC090E080915503882309F464
:1021600091E081E09827892F9927762F6627770FAE
:10217000770F770F34E0880F991F3A95E1F7826E59
:102180009262682B792B81E10E946A10812F992736
:102190008FBF1F9108958FB7F89499276091890494
:1021A0008FBF85E0689FB0011124625D7E4F70642F
:1021B00088E10E946A100895EF92FF921F93CF93D7
:1021C000DF93E0905303F0905403F70182A5992721
:1021D000182F882309F41FE1C09880919804811773
:1021E00049F0612F77276F717070606E706885E1BC
:1021F0000E946A1010939804F70110818FB7F89429
:10220000C82FDD2760E080E00E941503882311F0CD
:10221000CFBF12C0CFBF8EE390E09093A303809313
:10222000A2038EE30E9481031150412F552760E0E5
:1022300070E0C7010E94FB03DF91CF911F91FF90D7
:10224000EF900895FF920F931F93CF93DF93EA01CE
:10225000F22E8B876E83672F77276F832FB7F894C3
:10226000332780919803909199032FBF8C83892FF6
:1022700099278D832FB7F894332780917901909116
:102280007A012FBF8887892F9927898761E082E0AB
:102290000E94FB02882319F085E090E06CC08091D9
:1022A000C5018F5F8093C50181508B838FE38A873F
:1022B0008FB7F894082F112762E081E00E94150380
:1022C000882329F40FBF0E941C0481E053C08FB7FC
:1022D000F894992724E0209358038FBFD093CF041C
:1022E000C093CE040FBF8DE0F80EFE01F1928981FC
:1022F00099278072907089831182898199278164DE
:1023000098688983892F992781831CA618A619A606
:102310001DA619AA18AA1FA680E88EA761E06093DF
:1023200097044091CE045091CF048FB7F894282F92
:1023300033278091B8019091B9018830910511F04F
:10234000019711F02FBF15C082E090E09093B90182
:102350008093B80160935B035093540340935303FD
:102360001092A1032FBF0E943A0E882311F40E94FD
:10237000DC1080E09927DF91CF911F910F91FF90A2
:1023800008951F93CF93DF93182FEB01E82FFF27BA
:10239000EE0FFF1FE250FE4F1182108210927C015F
:1023A000E091FE01F091FF01309721F08091FE0253
:1023B00080FF11C081E080937C0103C088E10E940E
:1023C0008F011123D1F4C356D34011F4109292011E
:1023D0000E94F20212C020812D5033276781772797
:1023E000762F662786819927682B792BAF01838505
:1023F0000E942211882329F3E1CFDF91CF911F9111
:102400000895CF92DF92EF92FF920F931F938091E6
:102410002B04882339F085E08093BE018DE10E9472
:102420008F0129C040916104842F9927FC01EE0F90
:10243000FF1FE80FF91FDF01AB5FBC4F2D913C91EF
:10244000E95FFC4F808182FF06C0442311F068E8F9
:1024500007C069E805C0442311F063E801C066E8DD
:1024600011E0C12ED12CEE24FF2400E010E040E06A
:1024700089E00E948C0D1F910F91FF90EF90DF90EB
:10248000CF900895BF92CF92DF92EF92FF920F9379
:102490001F93B82E80912B04882339F085E0809318
:1024A000BE018DE10E948F011DC08B2D9927FC017B
:1024B000EE0FFF1FE80FF91FEB5FFC4F208131810A
:1024C000BB2011F461E601C060E681E0C82ED12C8A
:1024D000EE24FF2400E010E040E08AE00E948C0D32
:1024E000B092B6031F910F91FF90EF90DF90CF90C5
:1024F000BF900895282F80912604409326048330AE
:10250000A9F0843028F4813089F08230F1F506C0DA
:10251000843009F186508230C0F513C080917D016E
:102520008F3F99F1222389F4CB0108C080917D016E
:102530008F3F59F1222349F480E090E00E945F141C
:10254000089580917D018F3F01F160E070E0822F5E
:102550000E94400C089580917D018F3FB1F08091E1
:10256000BC019091BD0134E08030930748F401969E
:102570009093BD018093BC0189E10E948F01089571
:1025800060E070E0822F0E94400C0895CF92DF92AD
:10259000EF92FF920F931F932091510330915203BA
:1025A00060916104462F5527FA01EE0FFF1FE40FDB
:1025B000F51FDF01AB5FBC4F8D919C9111972817E0
:1025C000390709F0D3C090912604953009F44DC025
:1025D000963080F4923009F493C0933020F4913017
:1025E00009F0F7C072C0933009F4A5C0943009F027
:1025F000F0C007C0983008F447C09A3008F0E9C02E
:102600004EC08091C0019091C10181309105E1F0EF
:102610008130910520F0029709F0DBC010C0809155
:102620002B04882309F0BBC0E1E0CE2ED12CEE2490
:10263000FF2400E010E040E061E88BE0C8C0E95F03
:10264000FC4F808184608083FA01EE0FFF1FE40F4E
:10265000F51FE95FFC4F80818260808340E060E08D
:1026600070E080E00E947A12B4C0E95FFC4F808184
:1026700081FF9CC08091C0019091C1018D939C937A
:1026800080818D7F808319C0E95FFC4F808181FF4D
:102690008DC0869586958695837059F08AC0FA011B
:1026A000EE0FFF1FE40FF51FE95FFC4F808181FFF4
:1026B0007DC0983011F0963011F48AE174C0109208
:1026C0002604892F0E94F01384C0E95FFC4F8081AB
:1026D00080FD65C0C0902704D0902804E090F404E9
:1026E000F090F5040091C0011091C101662311F032
:1026F00064ED01C066ED20E030E042E082E067C0BA
:10270000E95FFC4F808180FD4AC0E090F404F090C6
:10271000F504C0902704D09028040091C0011091C6
:10272000C101662311F064ED01C066ED20E030E0E8
:1027300042E083E04CC0E95FFC4F808180FD2FC008
:10274000C0902704D0902804E090F404F090F504A1
:102750000091C0011091C101662311F064E801C02D
:1027600067E820E030E040E084E031C0E95FFC4F02
:10277000808181FF1BC08695869586958370C9F4FC
:1027800080912604843019F42D933C930DCF8091D1
:102790002B04882321F4662381F063E50FC085E0D4
:1027A0008093BE018DE10E948F0113C00E9401122F
:1027B00010C0862F0E9442120CC065E541E0C42E75
:1027C000D12CEE24FF2400E010E040E088E00E94DD
:1027D0008C0D1F910F91FF90EF90DF90CF90089597
:1027E000809326048091070381FD03C01092610449
:1027F0000CC080910A0381FD04C081E080936104D4
:1028000004C08AE10E948F01089580916104992794
:10281000FC01EE0FFF1FE80FF91FE95FFC4F8081FD
:10282000877E80830E94C61208950F931F93809322
:10283000260410932804009327043093F504209372
:10284000F40470935203609351035093C101409379
:10285000C00180910503909106036817790719F468
:102860001092610413C080910803909109036817C6
:10287000790721F481E08093610408C090E08091A1
:102880006104882309F491E09093610460507840DA
:1028900068F481E04830580748F481E009301807AF
:1028A00028F4400F511F4950514020F08BE10E9405
:1028B0008F0102C00E94C6121F910F9108952F929E
:1028C0003F924F925F926F927F928F929F92AF92C0
:1028D000BF92CF92DF92EF92FF920F931F93CF930D
:1028E000DF931C0140917D01242F332760908F04DA
:1028F0007090900480909104909092048BE090E00E
:10290000289FE001299FD00D389FD00D1124C9596F
:10291000DB4FAF80B884C984DA84A618B708C8082A
:10292000D90849805A80A114B104C104D10429F402
:10293000B10180E00E94400C4FC0EB80FC800D8113
:102940001E81E60CF71C081D191D9927812F702F79
:102950006F2D842F0E94A402BC01A7015070E12CAE
:1029600011E0F12EE41AF50AC701AA27BB27A81621
:10297000B906CA06DB0608F475012881243051F037
:10298000253071F0213089F4460C571C87019201E3
:1029900083E009C0460C571C8701920181E003C007
:1029A0008701910182E00E94151497014427552761
:1029B00080918F0490919004A0919104B091920421
:1029C000820F931FA41FB51F80938F0490939004D0
:1029D000A0939104B0939204DF91CF911F910F9136
:1029E000FF90EF90DF90CF90BF90AF909F908F902F
:1029F0007F906F905F904F903F902F9008957894C4
:102A00001F920F920FB60F9211242F923F924F9266
:102A10005F926F927F928F929F92AF92BF92CF926E
:102A2000DF92EF92FF920F931F932F933F934F9359
:102A30005F936F937F938F939F93AF93BF93EF9326
:102A4000FF93CF93DF93CDB7DEB72F97F894DEBF18
:102A50007894CDBF2CB53DB53F872E8780E286BFE9
:102A60000E9462059B01AC018E859F857C01002739
:102A70001127DA01C901A070B0708E159F05A0075B
:102A8000B10798F4212C312C7FEF472E7FEF572E82
:102A9000220E331E441E551E80E090E0AFEFBFEFC4
:102AA000282239224A225B220AC0212C312C6FEFC6
:102AB000462E6FEF562E22223322442255222E28F4
:102AC0003F28402A512A8FB7F89489838091B80112
:102AD0009091B9018530910521F0069709F0DBC08E
:102AE000BAC086E090E09093B9018093B80191E07C
:102AF0009093B20380E00E943A06209153033091F4
:102B00005403F90121AABB27A52D942D832D8A8377
:102B10009B83AC83BD8380ABC201AA27BB278E8376
:102B20009F83A887B98787A7852D9927AA27BB27C1
:102B30008A879B87AC87BD8786A7E0915303F09176
:102B4000540385A5882309F464C080813C96855090
:102B5000E80FF11D94EF892E9FEF992E8E0E9F1E88
:102B6000D4012C9185EF682E8FEF782E6E0E7F1E8C
:102B7000D301EC90BF016A507040DB018C91399712
:102B8000A0809927AA27BB27BA2FA92F982F88277B
:102B9000332744275527522F442733272227FF2442
:102BA000002711278701FF24EE242E293F29402BDF
:102BB000512BBB24CC24DD242A293B294C295D2917
:102BC000822B932BA42BB52B82199309A409B50949
:102BD0008083292F3A2F4B2F5527FB0120839D01FE
:102BE00044275527F30120838B2F9927AA27BB273A
:102BF000F4018083C098E0915303F0915403608105
:102C00006550772724E0A40180E090E00E94490EFF
:102C1000C09AE0915303F0915403818185FF03C072
:102C2000F1E0F093C20183E00E94D60F87B78F7E58
:102C300087BFA0915303B0915403FD018181877038
:102C4000813039F421AA2A8120AB3E8137A78A85B9
:102C500086A784996DC01092B20381E00E943A0663
:102C6000E0915303F0915403818185FF0FC087E009
:102C700090E09093B9018093B8010E94620520E032
:102C800031E040E050E00E941F0603C080E00E9457
:102C9000BF0F849B4DC08091BA01882349F511E094
:102CA0001093B2030E943A068091B503883098F4DD
:102CB000E091A003E80FFF27E770F070EE0FFF1F11
:102CC000EE0FFF1FEC52FB4F208231824282538273
:102CD0008F5F8093B5031093BA01AE85BF85B09323
:102CE0007404A0937304849B03C0B981BFBF22C046
:102CF0001092B20381E00E943A061092BA018091CC
:102D0000730490917404EE85FF85E81BF90B3A97E4
:102D100078F48091B503882319F081508093B5032E
:102D20008091530390915403009711F00E94D304B3
:102D3000F981FFBF2F96F894DEBFCDBFDF91CF9111
:102D4000FF91EF91BF91AF919F918F917F916F9183
:102D50005F914F913F912F911F910F91FF90EF90B5
:102D6000DF90CF90BF90AF909F908F907F906F90AB
:102D70005F904F903F902F900F900FBE0F901F903D
:102D8000189561E081E00E94FB028823E9F48FB787
:102D9000F894282F33278091B3019091B401892BA7
:102DA00011F02FBF20C081E090E09093B401809398
:102DB000B3012FBFDD9A0E94620524E130E040E0BC
:102DC00050E00E941F060FC062E081E00E941503E0
:102DD000882319F089E090E0089561E081E00E9485
:102DE0001503882319F080E090E0089585E090E0D5
:102DF0000895AF92BF92CF92DF92EF92FF920F931E
:102E00001F93CF93DF935B016C01C0E0D0E0E6EC51
:102E1000F1E07C2F608561FF5AC0208131814281C1
:102E20005381E480F58006811781D601C501821B9C
:102E3000930BA40BB50B8E159F05A007B10708F4E3
:102E400046C060FF03C06D7F608708C02E0D3F1D28
:102E5000401F511F2083318342835383772319F00E
:102E60007130D9F515C08091900190919101019632
:102E700090939101809390018FEF9FEF90936C015D
:102E800080936B011092930180E00E948F0125C016
:102E9000209198013091990140919A0150919B01A4
:102EA0002F3F8FEF380783E0480780E0580760F432
:102EB000EBE0CE2ED12CE12CF12C09EE11E060E0FC
:102EC00084E00E94230409C00E94C11606C0219616
:102ED0003996C330D10509F09CCF83E00E948F0161
:102EE000DF91CF911F910F91FF90EF90DF90CF90E6
:102EF000BF90AF900895CF92DF92EF92FF920F9321
:102F00001F93CFB6F894DD240E94E204DC01CB01CC
:102F100066E470E00E942929FBE0EF2EF12CE80E18
:102F2000F91EF0926103E09260030E94620500279F
:102F30001127A80197010E941F06CFBE1F910F9174
:102F4000FF90EF90DF90CF9008951F93CF93DF9382
:102F50008FB7F894C82FDD271C2F8091B80190916E
:102F6000B9010897C9F489E00E94BA0E83E00E9473
:102F7000D60FC09A81E090E09093B9018093B80198
:102F80008FB7F894992723E02093B2018FBF8FE089
:102F90000E948F01CFBF30C0C09880915B0388230F
:102FA00011F085E001C084E00E94BA0E83FD09C0E3
:102FB00080E00E94BA0E83FF04C085E090E020E02C
:102FC00003C083E090E021E09093B9018093B801C1
:102FD000C09A1FBF222341F01092A10383E00E94F8
:102FE000D60F0E947B1708C00E94620520E431E0E2
:102FF00040E050E00E941F06DF91CF911F9108959D
:10300000EF92FF920F931F93CF93DF938B018091E9
:10301000A2039091A30386FF2AC18F7B8F3309F00F
:1030200078C1C091C301D091C40158815093E60189
:1030300080910D0390910E038330910509F443C0F4
:103040008430910509F48AC0029709F009C183E030
:1030500090E090930E0380930D0340910002852F22
:1030600099270196242F3327281739074CF1B79950
:1030700006C00E9904C0451B415040930002409188
:10308000E6014A32E8F44423A1F0BE016F5F7F4FAE
:10309000483018F047E050E007C084E090E090939B
:1030A0000E0380930D03552780E090E00E94FB0300
:1030B00030C11092FF02C09A84E00E94D60FCDC0AA
:1030C0000E94591026C184E090E090930E038093F3
:1030D0000D0380914A03882309F439C08091550378
:1030E0008823A9F5898185FF32C08F814E812FB752
:1030F000F89433276091AD047091AE042FBF9927E7
:10310000982F88275527842B952B8617970759F0DA
:103110008F812E819927982F88273327822B932BF5
:103120008F5F9F4FA1F489818770813081F4C09AAD
:10313000C0988AE00E94BA0EC09AC0984091E601F9
:1031400047502896BE018FE30E94D50EE2C0409101
:10315000E601475055272896BE01A6CFC09A809118
:10316000D204882319F484E00E94D60F8091B5031D
:103170008823A1F18091E6018B30B0F1E091A003AA
:10318000FF27EE0FFF1FEE0FFF1FEC52FB4F2081BA
:10319000318142815381E091C301F091C40121AB9F
:1031A000BB27A52F942F832F80ABCA01AA27BB274B
:1031B00087A7252F33274427552726A78091A003CB
:1031C0009927019668E070E00E943D298093A00352
:1031D0008091B50381508093B50306C08091C301EF
:1031E0009091C4010E94D3048091E601FE01E80F92
:1031F000F11D808187FF31C0012B79F169816770F2
:10320000E091C301F091C401623019F5A09153031C
:10321000B0915403109709F18091B8019091B901D0
:103220000797D9F4ED019B8183819817B1F487B793
:103230008F7E87BF908181E08CA7E90FF11D82917D
:10324000319688A780818F7789A780E00E94BF0F81
:1032500004C0613011F486E12AC00E94241059C0D4
:103260001092FF02C09A84E00E94D60F52C08E33A3
:1032700009F04FC0C09A8091B8019091B9010897A8
:10328000C9F4C09889E00E94BA0EC09A83E00E94F7
:10329000D60F81E090E09093B9018093B8018FB789
:1032A000F894992723E02093B2018FBF8FE00E940A
:1032B0008F012FC080915B03882349F484E090E064
:1032C0009093B9018093B8010E94A51722C083E0B2
:1032D0000E94D60F83E090E09093B9018093B801EB
:1032E0000E94E204DC01CB0166E371E00E9429291F
:1032F000ABE0EA2EF12CE80EF91EF0925003E092BA
:103300004F030E94620500271127A80197010E9420
:103310001F06DF91CF911F910F91FF90EF900895BD
:103320001F920F920FB60F9211242F933F934F933A
:103330005F936F937F938F939F93AF93BF93EF931D
:10334000FF932FB1E091FC01F091FD01309739F02E
:103350008091020390910303E80FF91F208380916D
:103360000203909103030196909303038093020359
:1033700080E00E942C034091290450912A048091FE
:103380000203909103038417950718F40E948D039C
:103390001CC06091FC017091FD0180915E039091D1
:1033A0005F031092FD011092FC0110925F031092D6
:1033B0005E0310922A0410922904109203031092C3
:1033C00002032FB120E00E940018FF91EF91BF91FE
:1033D000AF919F918F917F916F915F914F913F91AD
:1033E0002F910F900FBE0F901F9018958F929F9264
:1033F000AF92BF92CF92DF92EF92FF920F931F9303
:10340000CF93DF93E82FFF27EF31F10510F00C94F5
:10341000DD21EA5BFF4FEE0FFF1F0590F491E02DD9
:10342000099480919904882311F40C94DD2190E093
:1034300011E0F5C08091FE02882311F40C94DD2187
:1034400040E011E0E7C580919201882311F00C94CF
:10345000DD2180919301882369F480916901809333
:103460006F032FB7F89433278BB392E089278BBB78
:103470002FBF03C08AEA80936F03809190019091DF
:10348000910180937103892F9927EFE6F3E08183FF
:1034900020916B0130916C0143E653E02093690366
:1034A000632F772760936A0386E080936E03809191
:1034B000FE019091FF01892B11F00C94DD215093B6
:1034C000FF014093FE0188E18093630380917C01BA
:1034D0008823D9F0762F6627822F9927682B792B9E
:1034E00010927C012BE086E00E9422119927282F60
:1034F000882359F081E080937C011092FF011092A3
:10350000FE01222311F00C94DD2181E080939201D1
:103510000C94DD218091E101882361F520918504DF
:10352000309186044091870450918804EFB7F89455
:10353000FF276091AD037091AE038091AF0390912E
:10354000B003E0906204F090630400916404109171
:1035500065046E0D7F1D801F911FEFBF20938504B2
:103560003093860440938704509388041092E101BD
:103570000E9464070E9474023FC00E9474025B01B3
:103580006C018FB7F894992710922C048FBF2FEFFE
:103590003FEF4FEF5FE760E0E6ECF1E0808581FF11
:1035A0001CC080819181A281B38186017501E81AD6
:1035B000F90A0A0B1B0BD801C701E480F5800681CC
:1035C0001781E81AF90A0A0B1B0BE216F306040727
:1035D00015071CF4A801970161E0399601E0E13E6E
:1035E000F007E1F6662309F4E8C61216130614067E
:1035F00015062CF0C601B5010E94F916DEC620930F
:10360000850430938604409387045093880481E0B6
:103610008093E101C601B5010E946407CEC62091E6
:103620009904812F8223C1F0E92FFF27EE0FFF1F9E
:10363000E750FE4F4081518111821082812F809589
:10364000282320939904992339F463E0CA010E9446
:103650000F0C110F91E0E3CF9F5F983008F0ADC6DB
:10366000110FDDCF10916D01E12FFF27EE0FFF1F2E
:10367000E750FE4FC081D181118210820E944D0619
:10368000112309F09AC661E012C18FB7F894109225
:10369000560320918E0440E0283009F441E030E0E8
:1036A000293009F431E0442311F4332351F010920E
:1036B0008E04E0919304FF27EE0FFF1FE755FC4FA8
:1036C000108299278FBF442311F4332319F180917D
:1036D000A4038F5F8093A40380919A048334A1F4A0
:1036E0009FB7F8942091A5048091A404821741F01B
:1036F000822F8F5F8093A504863010F01092A5046E
:10370000892F99278FBF0AC0A0E0442309F4A1E0C4
:1037100071E006C0222311F010E069C0A0E070E063
:103720008FB7F894992720919C018FBF222341F0F5
:103730008FB7F89499272AE020938E048FBF43C057
:103740008FB7F89499276091A9034091AB038FBF7D
:103750008FB7F894282F332750E09091A4048091DC
:10376000A504981709F451E02FBF552349F56623A6
:1037700039F55FB7F89482E08093A9038FB7F89486
:10378000282F332740E09091A4048091A504981736
:1037900009F441E02FBF442311F080E006C0E0911E
:1037A000A504FF27EC55FB4F82818093AA03852F48
:1037B00099278FBF83E480939A04109293040BC0DF
:1037C0004150423010F010E007C085E480939A0425
:1037D00081E08093930411E0772349F08FB7F89448
:1037E0009927A093A5018FBF8AE00E948F01809145
:1037F0008E048A3019F40E947906DFC5112309F47A
:10380000DCC52FB7F894332710929B0310929A03CC
:1038100010929E0381E080938E042FBF0E94D106F8
:10382000882309F4CAC58FB7F894992729E0209313
:103830008E048FBF0E94B601C0C55698579810924B
:10384000010210924903539A549A579AB6C589E0D7
:103850005EC053985498B1C51092A2011092A10174
:103860008FB7F89499271091A5018FBF8091A60179
:10387000811113E020919F013091A0018091A70157
:10388000882309F09AC580916D01882309F095C5B8
:10389000C091F901D091FA01C217D30709F08DC583
:1038A0001092FA011092F9010E944D06612FCE018B
:1038B0000E940F0C82C58FB7F89499272091AA0116
:1038C0003091AB0140910B038FBF8FB7F894E42F79
:1038D000FF27EE0FFF1FE159FE4F31832083209118
:1038E0009D01442311F02B7F01C02D7F20939D016A
:1038F0001092A80199276DC04CE161E173E08FEF50
:103900009FEF0E941402882309F457C58CE00E949F
:103910008F0153C50FB7F894112781E00E943A0632
:1039200051E0E52EF12CF092B901E092B80110922D
:10393000BA011092C201109298040FBF0FB7F89409
:1039400011270E94C704F0920E03E0920D0310921B
:10395000FF0289B78F7B89BF80E488BF8AB7806206
:103960008ABF8AB78F7E8ABF89B7806489BF0FBF3D
:103970008FB7F894C82FDD278091B3019091B401DF
:10398000049719F483E00E94BA0ECFBF0FB7F894E2
:103990001127C09A80E00E94D60F0FBF8FB7F8940E
:1039A000992722E0209358038FBFDA9AD9980E9472
:1039B0007402AB01BC01EE240AEF10E020E030E01D
:1039C00080E00E945502F9C48FB7F89499271092AD
:1039D00058038FBFF2C48FB7F8949927F090B201C3
:1039E0008FBF63E081E00E941503882359F10FB770
:1039F000F89411271092B9011092B80187B78F7E01
:103A000087BF87B78F7D87BF83E00E94D60FC09A9C
:103A10000FBF0FB7F894112710920E0310920D03E9
:103A20000E94C704C09A89B78F7B89BF0FBF1092CD
:103A3000B4011092B301DE98DD98DE9A8EE00E9408
:103A40008F0107C08FB7F894992722E0209358037D
:103A50008FBFC091CE04D091CF040E941C048091EE
:103A60007C01882309F0A9C46091FE017091FF01D7
:103A70006C177D0709F0A1C44F2DFDC28FB7F894D4
:103A8000282F3327122F80910403882301F581E02A
:103A9000809304038091B3019091B401049721F4C1
:103AA00081E00E94E20D03C081E10E948F011FBFEF
:103AB00084C48FB7F8949927109204038ACF8FB7E4
:103AC000F894282F33278091B501882311F02FBF58
:103AD00074C42FBF80B3992746E0969587954A9581
:103AE000E1F7182F11709091E201809197038917E7
:103AF000D9F01917C9F484E090E09093B401809351
:103B0000B3018FB7F894992721E02093B5018FBFB7
:103B100060E070E08DE10E946A100E948A0EC09AF7
:103B2000C0988DE00E948F011093970382E1EFCE41
:103B30008FB7F8949927109175018FBF123009F44F
:103B400060C0133030F4112359F0113009F035C43E
:103B500043C0133009F46FC0143009F02EC49BC069
:103B6000C0988FB7F894C82FDD278091B30190914A
:103B7000B401029779F583E090E09093B4018093CB
:103B8000B30168E170E08DE10E946A1081E08093EA
:103B9000E2011092B50180B3992736E0969587959A
:103BA0003A95E1F7817090708093970382E10E94CB
:103BB0008F0181E00E94BA0E6FE772E08CE10E94F3
:103BC0006A100E94CB100E94911066E57AE287E1AC
:103BD0000E946A10CFBFF1C3C09886E00E94BA0E5F
:103BE0000E94CB100E9491100E948A0EC09AC09829
:103BF00083E00E94BA0EC09A81E00E94D60F81E154
:103C000086CEC0988FB7F894C82FDD2760E080E09B
:103C10000E941503882311F0CFBF0AC0CFBF83E5F0
:103C20000E94810380E00E94810380E00E94810362
:103C3000C09A82E02DC08FB7F89499272091B801DF
:103C40008FBF243039F0283041F0223001F50E9436
:103C5000DC10B3C30E94A517B0C3C09889E00E94CE
:103C6000BA0EC09A83E00E94D60F8FB7F8949927B6
:103C700021E030E03093B9012093B8018FBF8FB7B6
:103C8000F89499271093B2018FBF8FE040CE83E064
:103C90000E94D60F92C30E94070F8FC30FB7F894EC
:103CA00011274091290450912A046091FC017091E0
:103CB000FD0180915E0390915F031092FD011092CF
:103CC000FC0110925F0310925E0310922A0410927E
:103CD0002904109203031092020320E00E940018AE
:103CE0000FBF6BC32FB7F89433278091B70380932E
:103CF000780182E08093B7012FBF809178018823FB
:103D000009F05BC3B89AC09883E101CEA091C301CA
:103D1000B091C4011C91FD01E10FF11D8081881F4C
:103D20008827881FED018BA780818F7789A731971E
:103D3000808188A7E091C301F091C4018FB7F89406
:103D4000992720910C038FBF2223F9F087814681A8
:103D50002FB7F89433276091AD047091AE042FBF54
:103D60009927982F88275527842B952B86179707F7
:103D700061F0878126819927982F88273327822B06
:103D8000932B8F5F9F4F09F03CC11D3008F439C160
:103D9000A090C301B090C401E5018A858F3309F07A
:103DA0002CC1898528859927582F44273327422BF2
:103DB000532B6B818FEF8093D1048FB7F894782FBA
:103DC00020E030E0E7E7F4E08081918184179507F7
:103DD00031F48281861709F4A2C02093D1042F5FA9
:103DE0003F4F33962430310579F77FBF9091D1044E
:103DF0003FB7F8949F3F21F08091BB01891799F458
:103E00002091BB01822F9927FC01EE0FFF1FE80FC5
:103E1000F91FE958FB4F5183408362832F5F237062
:103E20002093BB010CC0892F9927FC01EE0FFF1FC7
:103E3000E80FF91FE958FB4F518340836283832FBA
:103E400099278FBFF50183A5882309F4D6C0878100
:103E500046812FB7F89433276091790170917A01E8
:103E60002FBF9927982F88275527842B952B8617A6
:103E7000970769F0E5018F812E819927982F882770
:103E80003327822B932B8F5F9F4F09F0B6C0E5013C
:103E90008B85863009F0B1C00E949B02183109F071
:103EA000ACC02C9606E1802E912C8A0C9B1CF5014F
:103EB00080A58D52868B8485992790936C01809381
:103EC0006B012091940130919501409196015091A0
:103ED0009701253FFFEF3F07F3E04F07F0E05F0753
:103EE00000F51BE0C12ED12CE12CF12C8E0160E0FD
:103EF00081E00E9423048091940190919501A0910A
:103F00009601B09197010B96A11DB11D809394016C
:103F100090939501A0939601B09397010CC07FBF39
:103F20006CC084E391E09F938F930E9416260E94B9
:103F30001F0C0F900F902E81EF814B81AC81698116
:103F40000A818985992787FD90959F938F9388850E
:103F5000992787FD90959F938F933327322F2227A0
:103F6000FF272E2B3F2B3F932F93F401808199271E
:103F700087FD90959F938F938D8199279F938F9322
:103F80005527542F4427BB274A2B5B2B5F934F9316
:103F90007727762F66271127602B712B7F936F93DE
:103FA000888199279F938F938AE491E09F938F93C1
:103FB0000E9416268091940190919501A0919601FE
:103FC000B0919701BF93AF939F938F9384E691E055
:103FD0009F938F930E9416260E941F0C81E080936E
:103FE000930180E00E948F010DB71EB7085E1F4F3E
:103FF0000FB6F8941EBF0FBE0DBFB092C401A092C1
:10400000C3018FB7F89499271092FF028FBF0E94C7
:104010002410D3C19091FE02812F8923D9F0E42F7F
:10402000FF27EE0FFF1FE250FE4F208131811182EA
:104030001082812F809598239093FE02442351F49F
:104040002356334011F4109292010E94F202110F94
:1040500041E0E0CF4F5F483008F0AFC1110FDACF39
:1040600080917C01E82FFF27EE0FFF1FE250FE4FEB
:104070006081718141E00E94C1119FC16091BC01CA
:104080007091BD0180917D0179C140E03DC080917A
:10409000BE0190910A03209107038630C9F5959AD5
:1040A00095980000000080B3DB9A9E7F90930A03EE
:1040B0002E7F2093070310922B0490E082FF91E063
:1040C0008091B603992359F09927FC01EE0FFF1F49
:1040D000E80FF91FE95FFC4F8081877ECAC09927EE
:1040E000FC01EE0FFF1FE80FF91FE95FFC4F208175
:1040F000822F8695869586958370992702971CF462
:104100002D7F2083D3C04AE060E070E081E016C1DB
:10411000DB9A9E7F90930A032E7F209307031092D1
:104120002B04C4C08091BE0185508230F0F4959874
:10413000DB9887ED0E94AA021FB7F89484E088BF3D
:1041400089B7846089BF959882E090E001970196D5
:104150000197E1F7829B06C089B78B7F89BF8CE10D
:104160000E948F01812F992734CCE090B303F09007
:10417000B40380910F0390911003892B09F443C07D
:1041800080917204082F11270C5F1F4F9598DB98C0
:1041900060E0CC24CBE9D4E081E0D82E93E0D916BE
:1041A00041F4C7010E94E4027C010150104029F54E
:1041B00029C0E1E0DE1679F4C8800150104091F486
:1041C000D090BE01C091B303D091B40300910F030E
:1041D0001091100312C0F2E0DF1631F46883015031
:1041E000104081F0219609C024E0D21659F401153F
:1041F000110541F0C990015010408C2D0E94AA0277
:10420000682FCCCFDB9A8091BE011092BE0188301E
:10421000B9F0893048F4833081F0843009F47DC0EE
:10422000823009F0CAC086C08A3009F442C08A30A0
:1042300010F18B3009F0C1C057C040E0B7017DC01C
:1042400081E080932B04809161049927FC01EE0F9B
:10425000FF1FE80FF91FDF01AB5FBC4F80915103D7
:10426000909152038D939C93E95FFC4F8081836012
:104270008B7F80831BC081E080932B04809161043D
:104280009927FC01EE0FFF1FE80FF91FE95FFC4FB4
:1042900090819360892F8695869586958F5F837030
:1042A000880F880F880F937E982B90830E94C612E8
:1042B00084C081E080932B048091B6039927FC0190
:1042C000EE0FFF1FE80FF91FE95FFC4F808181604F
:1042D00080838AE090E0019701960197E1F786E0FC
:1042E0008093BE018DE113CB81E080932B048091FC
:1042F00061049927FC01EE0FFF1FE80FF91FDF0192
:10430000AB5FBC4F80915103909152038D939C936E
:10431000E95FFC4F808186600CC080916104992721
:10432000FC01EE0FFF1FE80FF91FE95FFC4F8081D2
:10433000857E808340E060E070E080E00E947A1239
:104340003CC02FB7F894332780916203809380019B
:1043500083E08093BF012FBF80918001882369F59E
:1043600010927D0180916704823019F08330B9F496
:1043700012C06091BC017091BD0180E00E94A40256
:1043800000E010E020E030E040E050E0BC0184E0DC
:104390000E94151412C087E00E94F0130EC0809195
:1043A00068049091690410928F0410929004109206
:1043B0009104109292040E945F14DF91CF911F919B
:1043C0000F91FF90EF90DF90CF90BF90AF909F90B4
:1043D0008F9008958091AC048F3FB1F0282F332740
:1043E000F901E155FB4F80818093AC048F3F11F4BC
:1043F0008093D0048FEF80832F3F31F0822F0E9473
:10440000F61981E090E0089580E090E00895CFEF04
:10441000D0E1DEBFCDBFFFB6F8944FE150E06FEFC3
:1044200070E08FEA94E00E940F268FEF8093AC0437
:104430008093D00481E08EBD88E080BF83E083BF9D
:104440008CB59DB54AE72CB53DB52817390708F45A
:104450004150442311F0C901F6CF92B782B78917B2
:10446000E9F32CB53DB592B782B78917E9F38CB55E
:104470009DB5821B930B4096F5E096958795FA952E
:10448000E1F79093A8038093A70313BE83B78EBD73
:104490008EB580BF12BE1DBC1CBC8FEF86BF86B719
:1044A00080937C0080B7992787709070892BD1F713
:1044B000D29AD19AD09ADA9AD99AD89A15BA8FEF15
:1044C00084BBD498DC98D39ADB9A95988D9A939A6A
:1044D0008B9A92988A9889B78B7F89BF80916A005E
:1044E000806280936A0080916A00806180936A0094
:1044F0001DBC1CBC87B7846087BF8EB5887F846075
:104500008EBD109289001092880080917D00846099
:1045100080937D0080918A00887F826080938A00EA
:1045200080E285BF0E94EA218823E1F78FEF809324
:10453000FB011092260481E080932B0480E098E038
:1045400090930903809308039093060380930503D7
:1045500080910A0390910703827E927E826080930D
:104560000A03926090930703E7E7F4E08FEF9FEF71
:10457000918380831282339624E0E338F207C1F7F7
:104580000E94E2046093C5018091690190916A01E3
:104590000196AA27BB278093450390934603A093D7
:1045A0004703B09348038DE294E09093C401809355
:1045B000C3018E98B89A8C988FEF8093D304109291
:1045C0005703109258031092590310925A03B89A45
:1045D000D69AD59A8FB7F89499272091790130917E
:1045E0007A018FBF3093AE042093AD0480917B019C
:1045F000992790939903809398038FE180935C03AC
:1046000089E08093890481E080930C0310929604E2
:1046100080934A031092550381E891E09093FB0444
:104620008093FA0412E006E06091A7037091A8035A
:1046300088279927ECE0660F771F881F991FEA9556
:10464000D1F720E031EE40E050E00E9450292150A7
:10465000304029B9832F9927809390001BB900938C
:1046600095001AB8209399008093980010939B00AE
:1046700000939D0010929A0084E490E090939D0333
:1046800080939C031092A9031092AB0310928E04A6
:1046900010929E0310929A041092A40310929B030E
:1046A00010929A0310925603109293041092F501FF
:1046B0001092F4011092B1031092660410927604E5
:1046C00010929F031092E5011092E4011092A5044C
:1046D0001092A4041092B10180B7886080BF8BE073
:1046E00083BF86EE81BF87B7826087BF0E94E106E5
:1046F0000E94EA218823E1F78F2D99278FBF7894B4
:1047000087E00E948F01DA982091980130919901F9
:1047100040919A0150919B016BE0C62ED12CE12C67
:10472000F12C09EE11E060E084E00E9423048FB7D1
:10473000F894482F552749C087B799278370907000
:10474000892B19F4E5E0F0E013C080B79927877052
:104750009070892BD1F781B792B7891B8C3030F0DC
:1047600082B7853F18F4E3E0F0E002C0E2E0F0E059
:1047700087B7887BC1F480917D008B7FA1F46E990F
:1047800012C08AB190919A00892B807C61F480914B
:10479000740082FD08C0379B03C081E090E005C033
:1047A00085E090E002C080E090E025B78E1708F425
:1047B000E82FFF27E653FD4FC895E02D237E2062AA
:1047C000E22BE5BF78948895F8948091AC048F3FF4
:1047D00009F4B2CF282F3327F901E155FB4F80812F
:1047E0008093AC048F3F11F48093D0048FEF8083CB
:1047F0002F3F09F4A1CF4FBF822F0E94F61997CF08
:1048000078941F920F920FB60F9211241F932F933B
:104810003F934F935F936F937F938F939F93AF9348
:10482000BF93EF93FF9387B78F7E87BF78941FB7AF
:10483000F89480918A0490918B04A0918C04B0919B
:104840008D040097A105B10509F051C08091B80110
:104850009091B9018530910561F18630910530F470
:104860008330910549F0049781F51AC0873091058E
:10487000F1F0089751F514C0869B0FC084E090E0DA
:104880009093B9018093B8010E94620527E030E05F
:1048900040E050E00E941F0618C00E947B1715C020
:1048A0000E943A0E882389F40E94A5170EC080E06A
:1048B0000AC089E00E94BA0E81E00E943A0683E0B5
:1048C0000E94D60F87E00E94BF0F8091B3019091A4
:1048D000B401019771F482E090E09093B401809369
:1048E000B301DE98DE9A80E00E94E20D02C00E94D1
:1048F0007F05812F99278FBFFF91EF91BF91AF91D6
:104900009F918F917F916F915F914F913F912F91E7
:104910001F910F900FBE0F901F901895ACE2B0E062
:10492000E4E9F4E20C949129222E332E442E552EE4
:10493000662E772E882E992EFE013196A8E01192D0
:10494000AA95E9F729823A824B825C826D827E8247
:104950008F829886FE013996B8E01192BA95E9F7F0
:10496000A986BA86CB86DC86ED86FE860F87188BF5
:1049700089819A81AB81BC8189A79AA7ABA7BCA783
:104980007C018D018FEF9FEFA0E0B0E0E822F922DB
:104990000A231B2389A59AA5ABA5BCA51D01442408
:1049A000552489859A85AB85BC858DA39EA3AFA32D
:1049B000B8A75C016D018FEF9FEFA0E0B0E0A822E7
:1049C000B922CA22DB228DA19EA1AFA1B8A53D01CB
:1049D00088249924C801B701A60195010E94722973
:1049E00069A37AA38BA39CA3C801B701A401930177
:1049F0000E9472297B018C01C201B101A6019501BF
:104A00000E9472295B016C01C201B101A4019301F2
:104A10000E9472293B014C01EA0CFB1C0C1D1D1D60
:104A200089A19AA1ABA1BCA19D01442755272E0DB8
:104A30003F1D401F511F2A153B054C055D0540F4E5
:104A400080E090E0A1E0B0E0680E791E8A1E9B1E17
:104A5000CA01AA27BB27860D971DA81DB91D8D8FDA
:104A60009E8FAF8FB8A3A9013327222789A19AA1CE
:104A7000ABA1BCA1A070B070280F391F4A1F5B1FEB
:104A8000298F3A8F4B8F5C8FA98CBA8CCB8CDC8CA6
:104A9000ED8CFE8C0F8D18A1FE01719698E011929D
:104AA0009A95E9F7ED8AFE8A0F8B188F2D813E814A
:104AB0004F8158856DA17EA18FA198A50E94722972
:104AC0003B014C012D853E854F85588969A57AA506
:104AD0008BA59CA50E9472292D893E894F89588DEE
:104AE000260F371F481F591F260D371D481D591DFA
:104AF0002D8B3E8B4F8B588F6D887E888F88988C3E
:104B00002A2D3B2D4C2D5D2D662D772D882D992D31
:104B1000E2E1AC960C94AD29A0E1B0E0E2E9F5E267
:104B20000C949129222E332E442E552E662E772E4C
:104B3000882E992E002309F466C088E0FE01319684
:104B400011928A95E9F729833A834B835C836D83BD
:104B50007E838F829887E0E2E01B1E16CCF52D81C4
:104B60003E814F815885602F772767FD7095DA0168
:104B7000C901062E04C0B695A795979587950A9406
:104B8000D2F78D879E87AF87B88B04C0220F331F63
:104B9000441F551FEA95D2F789819A81AB81BC8168
:104BA00004C0B695A795979587956A95D2F7282B57
:104BB000392B4A2B5B2B29873A874B875C872984C3
:104BC0003A844B845C846D847E848F8498881BC077
:104BD0001D861E861F86188A2E2F332727FD3095A7
:104BE000309521953F4F8D819E81AF81B88504C05E
:104BF000B695A795979587952A95D2F789879A872D
:104C0000AB87BC87DCCF222D332D442D552D662D4F
:104C1000772D882D992DE2E160960C94AD29DC0169
:104C200001C06D9341505040E0F70895A2E0B0E01C
:104C3000ECE1F6E20C94A129FE01379661917191A5
:104C4000FA83E983AF018091FA049091FB040E94FA
:104C50002D26E2E022960C94BD29A4E1B0E0E3E326
:104C6000F6E20C949129CC24DD2476011C017C8B86
:104C70006B8B2A01FC0117821682838181FD03C0A0
:104C80008FEF9FEF8AC2AA24BB2473C2A0FE58C232
:104C90008A8980538A30E8F4FA89F03341F42D850B
:104CA000222329F4A3FC03C080E091E06FC08AE0D6
:104CB000ED85E802C0011124FA89F80FF053FD8751
:104CC000F7FF02C02FE72D87A3FC4DC23D853E872D
:104CD0004AC2C50188709070A3FE05C0ED85EE2321
:104CE00011F4F1E0FD872A89283624F525360CF0E9
:104CF0005BC0233509F480C024358CF42B32C1F11C
:104D00002C3234F42032C1F1233209F00EC23CC0FF
:104D10003A893D32B1F13E3209F007C23AC08A8980
:104D2000833609F449C084360CF081C0883509F017
:104D3000FCC11BC0EA89E03709F4A3C0E13744F4A1
:104D4000EC3669F1EF3671F0E93609F0EEC16FC06B
:104D5000FA89F53709F49DC0F83739F0F33709F0CF
:104D6000E4C134C028E0298B94C030E1398B91C074
:104D700080E190E0A82AB92AE0E2F0E0AE2ABF2A5A
:104D8000F2C120E830E00DC080E490E0A82AB92A02
:104D9000EAC1E8E0F0E0AE2ABF2A1D86E4C124E0C3
:104DA00030E0A22AB32ADFC14FE3C42E3E85315042
:104DB0003E8783E68A8B44C1F201C080FE85F150B4
:104DC000FE8722E030E0420E531E3AC1F201C0805D
:104DD000D180892B49F0FD856F2F772767FD70956E
:104DE000C6010E94E52819C0F60101900020E9F7EC
:104DF0003197EC19E98B12C0F201C080D180892B68
:104E000049F0FD856F2F772767FD7095C6010E94D9
:104E1000DA2803C0C6010E94D128898B22E030E045
:104E2000420E531E3E858989381B3E8709C1A2FE6A
:104E300008C0F20180819181A281B38124E030E039
:104E400009C0F20180819181AA2797FDA095BA2F10
:104E500022E030E0420E531E6C017D01B7FF0CC012
:104E600082E090E0A82AB92AF094E094D094C0940B
:104E7000C11CD11CE11CF11CEFEBFFEFAE22BF22E5
:104E800021C020E430E0A22AB32A38E73A8B80E13F
:104E9000898BA2FE08C0F20180819181A281B38139
:104EA00024E030E007C0F20180819181AA27BB276E
:104EB00022E030E0420E531E6C017D018FEC9FEF2B
:104EC000A822B92287017601FE013196F88BEF877F
:104ED000F9896F2E772488249924C801B701A40189
:104EE00093010E9450296A3024F02A89620F61528E
:104EF00001C0605DEF85F8896193F88BEF87C80189
:104F0000B701A40193010E94502979018A0121155A
:104F100031054105510509F7CC24DD247601CE0188
:104F20000196CF84C81AC50182739070892B19F03D
:104F3000FE85F150FE87A6FE09C02989203111F4B3
:104F400082E001C081E03E85381B3E8738E0832E39
:104F5000912C8A209B20A3FE1BC08D85282F3327F0
:104F600027FD30958C2D99278217930754F0E7EF92
:104F7000FFEFAE22BF2228E0822E912C8A209B20B8
:104F800007C0FD85FC19FD872E852F1B2E8703C0CA
:104F90003E853C193E87C50180789170892B69F464
:104FA0008E8506C0B10180E290E00E94F028812F3A
:104FB000182F11501816B4F31E87A1FE04C0B101BA
:104FC0008DE290E00BC0A4FE04C0B1018BE290E042
:104FD00005C0A5FE05C0B10180E290E00E94F02866
:104FE000A6FE10C0B10180E390E00E94F0288989FC
:104FF000803141F4B101EA898E2F992787FD909580
:105000000E94F028B0FE0DC08E8506C0B10180E37D
:1050100090E00E94F028812F182F11501816B4F339
:105020001E87892869F02D8506C0B10180E390E0D4
:105030000E94F028212F122F11501216B4F31D8751
:1050400090E8692E712C6A207B20A7FC0DC08E850C
:1050500006C0B10180E290E00E94F028812F182F55
:1050600011501816B4F31E87FA89F33641F4B101D2
:105070008C2D992787FD90950E94F02846C02A899B
:105080002337B1F446015601198909C0F501819110
:105090005F01B101992787FD90950E94F02811507A
:1050A000A8F76401F989CF0ED11C2FEF298B2DC0F1
:1050B0003A89333519F00F85188920C046018601D9
:1050C000B98809C0F801C895802DB10199270E94BF
:1050D000F0280F5F1F4FBA94FFEFBF1699F76401D6
:1050E0002989C20ED11CF98B10C0F80182918F0161
:1050F000B101992787FD90950E94F028CE01019675
:105100000817190791F7188B0F876728B1F08E855C
:1051100006C0B10180E290E00E94F028812F182F94
:1051200011501816B4F31E8708C0B101FA898F2FE9
:10513000992787FD90950E94F028AA24BB2413C0CC
:105140002A89253241F43AE0398B1E861D8681E09A
:10515000A82EB12C08C0B101EA898E2F992787FDAE
:1051600090950E94F0282B893C892F5F3F4F3C8B04
:105170002B8BF101838183FF05C0EB89FC89C895E6
:10518000F02D03C0EB89FC89F081FA8B2A89222358
:1051900009F07CCDF10186819781E2E164960C945F
:1051A000AD29FC0105900020E9F7809590958E0FC0
:1051B0009F1F0895FC010590615070400110D8F7C1
:1051C000809590958E0F9F1F0895FC01615070404F
:1051D00001900110D8F7809590958E0F9F1F08952C
:1051E0000F931F93CF93DF938C01EB018B81992752
:1051F00081FF1BC082FF0DC02E813F818C819D816C
:105200002817390764F4E881F9810193F983E88369
:1052100006C0E885F985802F0995892B31F48E81A8
:105220009F8101969F838E8302C00FEF1FEFC801FD
:10523000DF91CF911F910F910895991B79E004C0E0
:10524000991F961708F0961B881F7A95C9F78095C5
:105250000895AA1BBB1B51E107C0AA1FBB1FA617BD
:10526000B70710F0A61BB70B881F991F5A95A9F70F
:1052700080959095BC01CD01089597FB092E0726D6
:105280000AD077FD04D0E5DF06D000201AF470952F
:1052900061957F4F0895F6F7909581959F4F0895FA
:1052A000A1E21A2EAA1BBB1BFD010DC0AA1FBB1F2A
:1052B000EE1FFF1FA217B307E407F50720F0A21B9C
:1052C000B30BE40BF50B661F771F881F991F1A9409
:1052D00069F760957095809590959B01AC01BD0133
:1052E000CF010895629FD001739FF001829FE00D6E
:1052F000F11D649FE00DF11D929FF00D839FF00D55
:10530000749FF00D659FF00D9927729FB00DE11D00
:10531000F91F639FB00DE11DF91FBD01CF011124DD
:1053200008952F923F924F925F926F927F928F9249
:105330009F92AF92BF92CF92DF92EF92FF920F9324
:105340001F93CF93DF93CDB7DEB7CA1BDB0B0FB62E
:10535000F894DEBF0FBECDBF09942A8839884888EB
:105360005F846E847D848C849B84AA84B984C88481
:10537000DF80EE80FD800C811B81AA81B981CE0F78
:10538000D11D0FB6F894DEBF0FBECDBFED0108955D
:02539000FFCF4D
:105392000A20257520257520257520257520256470
:1053A20020256420256420256420256C7520000AB0
:1053B200204572726F72207768656E207265616433
:1053C200696E67000A666C617368206D656D6F7245
:1053D200792066756C6C212121000A202575202513
:1053E20075202575202575202564202564202564D7
:1053F2002025640020256C75000100FFFF01FFBA23
:1054020003EE03BA03FFFFFFFF01002201FFFFFFCC
:105412000100000002000000005B0D00000000001F
:00000001FF
