S01800006275696C642F6D6963617A2F6D61696E2E73726563E5
S11300000C9460010C94000B0C940A0B0C94140BCC
S11300100C941E0B0C94280B0C94320B0C94A5100E
S11300200C943C0B0C947F010C947F010C945E1493
S11300300C94A1200C94CA0A0C94E00A0C94460B6C
S11300400C941B070C946D180C94C5080C947F0138
S11300500C9441090C947F010C947F010C947F0152
S11300600C94D50A0C94970A0C94760A0C94810A81
S11300700C948C0A0C94AA0A0C94590A0C947F01CF
S11300800C946B0A0C947F010C947F01FB182E19BD
S1130090EB18D119E519BD1AC71AC91ACC1AFD1AD9
S11300A01E1B2C1B781B7E1BD11BEC1BF21B2B1C59
S11300B0E11C051D191DF318B01E0000211042207B
S11300C063308440A550C660E770088129914AA135
S11300D06BB18CC1ADD1CEE1EFF1311210027332AC
S11300E05222B5529442F772D662399318837BB385
S11300F05AA3BDD39CC3FFF3DEE36224433420043C
S11301000114E664C774A44485546AA54BB52885D4
S11301100995EEE5CFF5ACC58DD55336722611168B
S11301203006D776F6669556B4465BB77AA7199724
S11301303887DFF7FEE79DD7BCC7C448E558866813
S1130140A7784008611802282338CCC9EDD98EE974
S1130150AFF9488969990AA92BB9F55AD44AB77AEB
S1130160966A711A500A333A122AFDDBDCCBBFFBC4
S11301709EEB799B588B3BBB1AABA66C877CE44CFB
S1130180C55C222C033C600C411CAEED8FFDECCD14
S1130190CDDD2AAD0BBD688D499D977EB66ED55ECB
S11301A0F44E133E322E511E700E9FFFBEEFDDDF64
S11301B0FCCF1BBF3AAF599F788F8891A981CAB1F0
S11301C0EBA10CD12DC14EF16FE18010A100C23022
S11301D0E3200450254046706760B9839893FBA3DD
S11301E0DAB33DC31CD37FE35EF3B1029012F32272
S11301F0D2323542145277625672EAB5CBA5A8952D
S113020089856EF54FE52CD50DC5E234C324A014C1
S113021081046674476424540544DBA7FAB79987BC
S1130220B8975FE77EF71DC73CD7D326F236910611
S1130230B01657667676154634564CD96DC90EF904
S11302402FE9C899E9898AB9ABA944586548067861
S11302502768C018E1088238A3287DCB5CDB3FEB1C
S11302601EFBF98BD89BBBAB9ABB754A545A376AB1
S1130270167AF10AD01AB32A923A2EFD0FED6CDDEC
S11302804DCDAABD8BADE89DC98D267C076C645C01
S1130290454CA23C832CE01CC10C1FEF3EFF5DCFFC
S11302A07CDF9BAFBABFD98FF89F176E367E554E51
S11302B0745E932EB23ED10EF01E00081C1814106A
S11302C011241FBECFEFD0E1DEBFCDBF11E0A0E00F
S11302D0B1E0E4EDFCE400E00BBF02C007900D9236
S11302E0AE3DB107D9F715E0AEEDB1E001C01D9206
S11302F0A730B107E1F70E94E51E0C9469260C941F
S113030000008FB7F894992708958FBF08958FB789
S1130310F89499272BB334E023272BBB8FBF089580
S1130320282F9FB7F894662349F0E82FFF27ED574D
S1130330FC4F8081882311F021E006C0E22FFF27C3
S1130340ED57FC4F608320E0892F99278FBF822FC0
S113035099270895E82F8FB7F894282F332790E032
S1130360FF27ED57FC4F8081861709F491E02FBFDA
S1130370892F99270895882311F06E9A08956E980D
S11303800895882311F06F9A08956F98089580E076
S11303900E94BB01BA9ABB98B99A6C9A80E00E94F9
S11303A0C101709A6B986A98689881E00E94BB01B9
S11303B008950F931F93CF93DF93182F8FB7F8945B
S11303C0C82FDD270C2F61E080E00E949001882374
S11303D021F0CFBF85E090E024C08091CB01882339
S11303E0A1F480910402823081F409C082E08093F8
S11303F004021092CB010E94C701B89AC0981093CE
S1130400C80180E00FBF99270CC0809104028823A3
S113041069F38FB7F8949927109283038FBF81E013
S1130420F1CFDF91CF911F910F910895282F9FB79E
S1130430F894E82FFF27EE53FB4F80818F3F81F420
S1130440E091DB04E21771F40BC02093BF0404C0F5
S1130450FF27EE53FB4F20832093DB0420E007C0EB
S113046025E005C08091BF048F3F91F7EECF892F1F
S113047099278FBF822F992708951F93182F81E002
S11304800E94BB011FB9779BFECF8FB199271F91A3
S113049008958F929F92AF92BF92CF92DF92EF9284
S11304A0FF920F931F93CF93DF938FB7F8949927FD
S11304B0C0908C03D0908D0380902E0290902F02D8
S11304C0C0913803D09139032091520430915304E0
S11304D09AE0A92EB12CAC0EBD1E2A153B0508F4DA
S11304E059018FBF7401EC0EFD1E86010C0F1D1FF8
S11304F014C0C114D10419F0F801808101C080E056
S11305000E943D028114910411F0F7018083219629
S11305100894E11CF11C0F5F1F4FC5010197C81718
S1130520D90738F381E00E94C1019FB7F894C11440
S1130530D10431F0CC0EDD1EF60180818FB901C0EB
S11305401FB8D0933903C0933803892F99278FBFDD
S113055080E090E0DF91CF911F910F91FF90EF9099
S1130560DF90CF90BF90AF909F908F9008952FB75A
S1130570F8943327509353044093520490938D037B
S113058080938C0370932F0260932E021092390390
S1130590109238032FBF452B29F08FB10E944902D6
S11305A09927089582E10E94160280E090E0089560
S11305B08FB7F8949927109285038FBF0895863FCB
S11305C07CF4833F6CF48F3E14F08E5F09C08C3E44
S11305D014F08D5F05C08A3E14F08C5F01C08B5F00
S11305E0992787FD909508950E94DF0287FD02C038
S11305F08FE131C08F3F11F48BE12DC08E3F14F099
S113060089E129C08D3F11F487E125C08C3F14F0A6
S113061085E121C08B3F11F483E11DC08A3F14F0B2
S113062081E119C0893F11F48FE015C0883F14F0AF
S11306308DE011C0863F14F08BE00DC0843F14F0B0
S113064089E009C0813F14F087E005C08D3E14F0B5
S113065085E001C083E0992708951F931FB7F8949C
S113066080918203882341F484E00E941602882347
S113067019F481E080938203812F99278FBF1F9102
S11306800895FA01422F6683672F7727658383874E
S113069041878091EE019091EF01892B19F085E05B
S11306A090E008952FB7F894332785E08093F10103
S11306B01092F201F093ED01E093EC0182E090E0FE
S11306C09093EF018093EE011092F4011092F301E4
S11306D0445F4093F0012FBF9FB7F8948091D903F2
S11306E0882311F020E006C081E08093D9031092A2
S11306F0DA0321E0892F99278FBF222329F00E9452
S11307002D0380E090E008951092EF011092EE0125
S113071081E090E00895CF93DF93DB01FB013596F0
S11307208183892F9927EB018D8384E686838091C9
S11307302C0290912D02892B19F085E090E029C0BC
S113074070932D0260932C0244838091C00188230E
S113075019F480E090E01DC08681EB016D8177275C
S1130760762F662721813327622B732B1092C001C9
S1130770242FAD010E9441039927282F882339F0A3
S113078081E08093C00110922D0210922C02822FDE
S11307909927DF91CF9108957FB7F89462B720919C
S11307A04E0430914F04409150045091510406B6C8
S11307B001FE0FC081B792B7280F311D411D511D95
S11307C02F5F3F4F4F4F5F4F290F311D411D511D6B
S11307D004C0260F311D411D511D872F99278FBF3E
S11307E0CA01B901089580E880933202109235035A
S11307F01092CE031092E2031092DD040895CF9379
S1130800DF93FC0115A6DC019E96ED011B821A8282
S1130810198280E886A7DF91CF9108952F923F92A5
S11308204F925F926F927F928F929F92AF92BF92FC
S1130830CF92DF92EF92FF920F931F93CF93DF93A8
S1130840CDB7DEB728970FB6F894DEBF0FBECDBF85
S11308502090730330907403409075035090760396
S1130860662477248824AEE4AA2EF3E8BF2ECC2491
S1130870DD24EE24FF2400E010E0222D332D442D4E
S1130880552D662D772D882D90E00E942F212983E8
S11308903A834B835C836D837E838F839887822E18
S11308A0932EA42EB52E2401350100E20E942D22A0
S11308B0A22EB32EC42ED52EC301B20196958795D0
S11308C0779567956A0D7B1D8C1D9D1D97FF05C04F
S11308D09F776F5F7F4F8F4F9F4F6093730370932A
S11308E07403809375039093760328960FB6F89457
S11308F0DEBF0FBECDBFDF91CF911F910F91FF904F
S1130900EF90DF90CF90BF90AF909F908F907F90AB
S11309106F905F904F903F902F9008958FB7F89409
S113092060913603709137032CB53DB506B602FECF
S113093004C06F5F7F4F2CB53DB599278FBF8827C3
S11309409927CB017727662744275527622B732BDA
S1130950842B952B0895EF92FF920F931F930E947F
S11309608E047B018C012091790330917A034091AC
S11309707B0350917C038091A8049091A904A091D9
S1130980AA04B091AB04820F931FA41FB51FE216F3
S1130990F3060407150730F082179307A407B50779
S11309A058F005C082179307A407B507E0F5E816C9
S11309B0F9060A071B07B8F59C01AD012E193F097A
S11309C0400B510B213060E8360760E0460760E0D9
S11309D0560768F180E090E8A0E0B0E0E80EF91E68
S11309E00A1F1B1FE0927903F0927A0300937B03A2
S11309F010937C0380E090E8AFEFBFEFE80EF91EA0
S1130A000A1F1B1F20503048404050402093A80428
S1130A103093A9044093AA045093AB0420E030E837
S1130A2040E050E014C020E030E040E050E080932B
S1130A30790390937A03A0937B03B0937C03109281
S1130A40A8041092A9041092AA041092AB04A9015C
S1130A50B7012CB53DB5C9018E199F0903968417BA
S1130A60950720F0B9016D5F7F4F02C0640F751FB9
S1130A706115710511F461E070E0615070407BBD57
S1130A806ABD80E186BF87B7806187BF1F910F91E0
S1130A90FF90EF9008950F931F930FB7F8941127C9
S1130AA06093790370937A0380937B0390937C0320
S1130AB02093A8043093A9044093AA045093AB0450
S1130AC00E94AB040FBF1F910F910895CF92DF9244
S1130AD0EF92FF920F931F93CF93DF938C01F62E27
S1130AE06A01E22E8FB7F894C82FDD2760E080E01A
S1130AF00E94AA01882321F0CFBF80E090E01EC0AD
S1130B00CFBF0F0D111D802F80680E943D02F82E6B
S1130B1016950795802F807C0E943D020E2D0AC0F9
S1130B20EE2DFF27E01BF109EC0DFD1D80810E94D5
S1130B303D0201500023A1F78F2D9927DF91CF911A
S1130B401F910F91FF90EF90DF90CF900895CF9376
S1130B50DF93CDB7DEB724970FB6F894DEBF0FBE90
S1130B60CDBF8FB7F89499272091C5033091C60360
S1130B702983232F33272A832091C0043091C10471
S1130B802B83232F33272C838FBF24E0AE014F5FA9
S1130B905F4F60E088E691E00E94660524960FB6F8
S1130BA0F894DEBF0FBECDBFDF91CF91089597B704
S1130BB09F7D97BF90E296BF882319F08EB580641D
S1130BC002C08EB58F7B8EBD87B7806287BF80E001
S1130BD090E00895CF93DF931092C001A0912C026E
S1130BE0B0912D02109721F08091B30480FF08C0CA
S1130BF081E08093C00117C083E00E94160213C0F5
S1130C00FD01359624813327ED016D817727762FF9
S1130C10662781819927682B792BAD0186810E94F3
S1130C204103882349F7DF91CF9108959FB7F89442
S1130C308091AC048A3011F020E006C020E080915D
S1130C40E003843009F421E0892F99278FBF222300
S1130C5049F086E00E9416028FB7F8949927109203
S1130C60E90106C08FB7F894992721E02093E901A0
S1130C708FBF08952FB7F89433278CB95E9A2FBF8E
S1130C800895FC016115710519F481E090E008955F
S1130C908091FF0490910005892B19F085E090E084
S1130CA008957093AF046093AE04F0930005E0934D
S1130CB0FF04109226021092250281E080937703AC
S1130CC05E9A569A808121E030E030932602209388
S1130CD025020E943A0680E090E008958091FA018E
S1130CE08E7F8093FA018EE78093930461E070E035
S1130CF083E994E00E94410699270895DF92EF92D8
S1130D00FF920F931F938FB7F894282F3327D22E77
S1130D1091B782B746B7981711F041FF02C02FBFB1
S1130D206AC0809154048823E1F10E94CC03E090CE
S1130D30DB03F090DC030091DD031091DE032091CE
S1130D40890430918A0440918B0450918C046E196B
S1130D507F09800B910B621773078407950720F0B6
S1130D601092540471E01EC02E0D3F1D401F511FF0
S1130D7080914E0490914F04A0915004B09151047D
S1130D80281B390B4A0B5B0B273E310541055105E6
S1130D9040F4822F223010F070E005C070E082E051
S1130DA002C070E086EE682F615000B601FCFDCFF2
S1130DB082B7681709F46F5F20914E0430914F0495
S1130DC04091500450915104DA01C9010196A11DCA
S1130DD0B11D860F911DA11DB11D82179307A40794
S1130DE0B50710F4622F609561BFDFBE772319F059
S1130DF080E00E9416021F910F91FF90EF90DF9008
S1130E000895AFB7F894BB27E1E0E09354046093EE
S1130E10DB037093DC038093DD039093DE03209364
S1130E20890430938A0440938B0450938C04AFBF9D
S1130E300E947E0608951F920F920FB60F921124FE
S1130E408F9383B783BF00B600FCFDCF8F910F90C3
S1130E500FBE0F901F901895EAEBF0E06927660F1C
S1130E60F11DE60FF11DC895982F802D3196C89578
S1130E7090250895982F8091F501882381F5992371
S1130E8071F531E03093F5018091C1018093F60151
S1130E902091EA01822F817080933B038091C601E7
S1130EA09091C7019093F8018093F7018091EB0131
S1130EB08093F90132273170267EE32FFF27EE0F4E
S1130EC0FF1FEE53FE4F808191819093C701809361
S1130ED0C601232B2093EA0189E00E94160208959B
S1130EE00F931F93082F162F8091E0038130D9F0C0
S1130EF0813038F0823009F44AC0833009F00EC1E1
S1130F0059C0002309F43EC110922802109227020E
S1130F1010928E04109294041092CD031092230226
S1130F20109222021FC1002309F02CC180912202D9
S1130F30909123020E942C07909323028093220213
S1130F4082E08093E00310939404143409F0E6C023
S1130F500BC1869504C08091EA01869586958170BF
S1130F6009F0DCC08091EA01992311F0846001C08A
S1130F7082608093EA018091EA01877E8860809391
S1130F80EA011092EB018FEF8093C101FBC00023B3
S1130F9009F0C4C06093CD03809122029091230292
S1130FA00E942C07909323028093220283E0809373
S1130FB0E003E8C080918E048F3F09F4AFC00023A2
S1130FC009F447C0823008F4A9C0E0912702EE2357
S1130FD009F4D1C04E2F4150E42FFF27E95DFD4FA6
S1130FE082819927382F2227442311F4E2E002C09A
S1130FF0E42FE150FF27E95DFD4F82819927282BDB
S1131000392B80912202909123022817390709F085
S113101085C080E00E943A073091CD038091B704E7
S11310202091B804982F9F5F963008F090E09217B3
S113103009F474C0E82FFF27E954FB4F32838F5F14
S11310408093B704863010F01092B7040E942D03E9
S113105065C0823008F44EC0E0912802FF27E95DA4
S1131060FD4F8281482F5527342F2091EA01822F8A
S1131070869586958695837099278130910519F018
S11310800297F9F40EC0277E20612093EA014423DD
S113109011F485E001C080E08093EB013093C1013D
S11310A010C08091EB01843360F4E091C601F091AB
S11310B0C701E80FF11D40838091EB018F5F80939E
S11310C0EB0180912802E82FFF27E95DFD4F628143
S11310D08F5F80932802833010F0109228027727C4
S11310E080912202909123020E942C079093230264
S11310F08093220280912702E82FFF27E95DFD4FAC
S113110012838F5F80932702833010F0109227029E
S113111080918E048F5F80938E0434C010922802D5
S1131120109227021092E00310928E0410929404FD
S11311301092CD0310922302109222028091FA01A0
S11311408D7F8093FA0181E00E943A078091E90142
S1131150882331F084E08093E0030E94160612C0D5
S1131160002381F081E023CF8091EA01982F9170D0
S113117080FDEFCEF0CE80912B029927382F2227C5
S113118042E036CF1F910F9108951F920F920FB630
S11311900F9211242F933F934F935F936F937F93F9
S11311A08F939F93AF93BF93EF93FF935F9B3DC048
S11311B06CB1E091A104F091A2043097F9F0809110
S11311C0D3039091D403E80FF91F608301969093A1
S11311D0D4038093D3032091E4033091E503821771
S11311E0930718F11092A2041092A1048091360280
S11311F08330D9F057981092360217C06E3719F41D
S113120060E081E010C08091FA016D3721F48260C2
S11312108093FA010AC081FF05C08D7F8093FA0193
S113122080E2682780E00E947007FF91EF91BF91F0
S1131230AF919F918F917F916F915F914F913F916A
S11312402F910F900FBE0F901F901895982F8D57C8
S1131250823068F48091FA0181608093FA0180E21F
S1131260892780938B038DE78093930402C0909326
S1131270930461E070E083E994E00E9441069927B9
S1131280089578941F920F920FB60F921124FF9233
S11312900F931F932F933F934F935F936F937F937A
S11312A08F939F93AF93BF93CF93DF93EF93FF936A
S11312B020912502309126028091AE049091AF04D2
S11312C02817390780F4E091FF04F0910005E20F3C
S11312D0F31F80812F5F3F4F309326022093250216
S11312E00E943A06D0C0109200051092FF0410929A
S11312F0770356988091FA0180FF0EC08E7F809309
S1131300FA0180918B038093930461E070E083E998
S113131094E00E944106B7C08091AC04843009F483
S113132094C0853040F4823021F18330B8F58130A7
S113133009F0A4C00DC0863009F495C0863008F4C5
S11313408BC0873009F496C0883009F097C099C0E3
S11313508091B4040E942609182F83E08093AC0482
S11313606091B4048091C8039091C9030E942C0732
S113137010C08091D2030E942609182F83E0809325
S1131380AC046091D2038091C8039091C9030E9478
S11313902C079093C9038093C8036EC0FFB6F894DA
S11313A0E091AD04FF27EE0FFF1FE852FC4F808150
S11313B00E942609082F1091AD04C12FDD27FE01DC
S11313C0EE0FFF1FE852FC4F60818091C80390919B
S11313D0C9030E942C079093C9038093C8032091EA
S11313E0CC032F5F2093CC03113039F58091F101A8
S11313F0E091EC01F091ED01E80FF11DE0818F5FC8
S11314008093F1019091F001981730F482E0809379
S1131410D90340E050E002C04E2F5527DE01AA0F49
S1131420BB1FFD01E952FC4F8081823031F02F3F18
S113143021F0A852BC4F4C9303C084E08093AC04C9
S1131440102F8F2D99278FBF17C08091C8030E943A
S11314502609182F85E00BC08091C9030E94260934
S1131460182F86E004C00E946E06182F87E0809330
S1131470AC0402C088E003C0112329F089E0809302
S1131480AC040E942D03FF91EF91DF91CF91BF91A6
S1131490AF919F918F917F916F915F914F913F9108
S11314A02F911F910F91FF900F900FBE0F901F90DF
S11314B018951F920F920FB60F9211248F9380915B
S11314C09B0087FF02C080919C008F910F900FBEFC
S11314D00F901F90189578941F920F920FB60F9249
S11314E011240F900FBE0F901F90189578941F929F
S11314F00F920FB60F9211240F900FBE0F901F90F2
S1131500189578941F920F920FB60F9211240F9092
S11315100FBE0F901F90189578941F920F920FB6DC
S11315200F9211240F900FBE0F901F90189578946E
S11315301F920F920FB60F9211248F939F93809155
S11315408800909189009F918F910F900FBE0F900A
S11315501F90189578941F920F920FB60F92112432
S11315602F933F938F939F932FB7F89433278091B2
S11315703702909138020196909338028093370293
S11315802FBF9F918F913F912F910F900FBE0F907E
S11315901F90189578941F920F920FB60F921124F2
S11315A00F900FBE0F901F90189578941F920F9272
S11315B00FB60F9211240F900FBE0F901F90189525
S11315C078941F920F920FB60F9211242F933F938A
S11315D08F939F932FB7F89433278091360390917C
S11315E03703019690933703809336032FBF9F915F
S11315F08F913F912F910F900FBE0F901F901895D0
S11316001F920F920FB60F9211240F900FBE0F90DE
S11316101F9018951F920F920FB60F9211240F90DE
S11316200FBE0F901F9018951F920F920FB60F9236
S113163011240F900FBE0F901F9018951F920F92B8
S11316400FB60F9211240F900FBE0F901F90189594
S11316501F920F920FB60F9211240F900FBE0F908E
S11316601F9018951F920F920FB60F9211240F908E
S11316700FBE0F901F9018951F920F920FB60F92E6
S113168011240F900FBE0F901F9018951F920F9268
S11316900FB60F9211242F933F934F935F936F9341
S11316A07F938F939F93AF93BF93EF93FF9383B7EE
S11316B083BF00B600FCFDCF81B799270196AA2706
S11316C0BB2720914E0430914F0440915004509117
S11316D05104280F391F4A1F5B1F20934E04309377
S11316E04F04409350045093510478940E947E0612
S11316F0FF91EF91BF91AF919F918F917F916F91E6
S11317005F914F913F912F910F900FBE0F901F90BB
S113171018958091FD018C3118F04CE150E002C025
S1131720482F55278CE1EBE4F3E011928A95E9F711
S11317309091FD018091FB0120E030E0ABE4B3E047
S11317400FC0E82FFF27E65CFD4FE081992329F0C5
S11317508F5F8A3F09F480E09150ED932F5F3F4FF4
S11317602417350771F79093FD018093FB014CE139
S11317706FE373E08FEF9FEF0E948B03882319F0D0
S11317808AE00E9416020895662351F48091FD01B7
S1131790882319F00E94890B08951092FE01089580
S11317A08AE00E94160208958FB7F894282F3327F1
S11317B08091FE01813021F42FBF80E090E00895F4
S11317C090E08091FD01882309F491E0992321F0B0
S11317D02FBF81E090E0089581E08093FE012FBF48
S11317E00E94890B80E090E008959F92AF92BF928F
S11317F0CF92DF92EF92FF920F931F93CF93DF93D9
S1131800962E20919A0190919801022F090F00932E
S1131810C703E22EE91AE0928D043327A82EBB24D5
S1131820E0919901FF27C090A301D090A4012A9DC3
S1131830C0012B9D900D3A9D900D1124AF01421BC8
S1131840530B4C9D90014D9D300D5C9D300D11242A
S1131850820F931FBF010E94CA25EB017093B60447
S11318606093B50411270A9DC0010B9D900D1A9D2C
S1131870900D11249F01201B310BA9014C9D900157
S11318804D9D300D5C9D300D1124820F931FBF01BF
S11318900E94CA257093900460938F04FF24EA9CED
S11318A0C001EB9C900DFA9C900D11249F012E1900
S11318B03F09A9014C9D90014D9D300D5C9D300D5B
S11318C01124820F931FBF010E94CA2570938803BD
S11318D06093870389E180939A0100913302802FFA
S11318E00E94DF02992787FD90959E01281B390BE2
S11318F02035310510F4015004C02635310518F0A7
S11319000D5F009333028091330218161CF4109279
S113191033020BC0873E4CF487EE809333028091F0
S11319209701875E8C1B8093BD0100913302802F49
S11319300E94F40280939101D093A401C093A30167
S113194029E12093960133E6391518F40D5F0093CD
S1131950330299279F938F9380913302992787FDB0
S113196090959F938F938091A3019091A4019F934D
S11319708F93DF93CF93892D99279F938F93BF9252
S1131980AF9280E091E09F938F930E94B7220E94D0
S1131990D40B4DB75EB7425F5F4F0FB6F8945EBF8E
S11319A00FBE4DBFDF91CF911F910F91FF90EF902C
S11319B0DF90CF90BF90AF909F9008952F923F9269
S11319C04F925F926F927F928F929F92AF92BF924B
S11319D0CF92DF92EF92FF920F931F93CF93DF93F7
S11319E0CDB7DEB724970FB6F894DEBF0FBECDBFD8
S11319F0262E20919A0190919801722E790E709260
S1131A00C703622E691A60928D043327482E552429
S1131A1030909901E32DFF270091A3011091A401B7
S1131A20249DC001259D900D349D900D1124AF017E
S1131A30421B530B409F9001419F300D509F300D2E
S1131A401124820F931FBF010E94CA257C836B83DC
S1131A507093B6046093B504272D3327249DC001E9
S1131A60259D900D349D900D1124AF01421B530B05
S1131A70409F9001419F300D509F300D1124820FE3
S1131A80931FBF010E94CA256B0170939004609359
S1131A908F04262D3327249DC001259D900D349D50
S1131AA0900D1124AF01421B530B409F9001419FA5
S1131AB0300D509F300D1124820F931FBF010E94DF
S1131AC0CA257B0170938803609387032091970153
S1131AD03B81922F931B8091BD01981B90933302FD
S1131AE097FF03C01092330209C09A313CF089E198
S1131AF0809333022951231B2093BD0100913302AB
S1131B00802F81950E94F4028093910153E652152F
S1131B1008F466C11092E8011092E7011092E60100
S1131B201092E5011092E4011092E3012091E10189
S1131B303091E201D901AA0FBB1FFD01EB55FE4F05
S1131B408B819C8191838083FD01E355FE4FD1827B
S1131B50C082FD01EB54FE4FF182E082A556BE4FD8
S1131B60822D99278D939C932F5F3F4F3093E201F1
S1131B702093E1012430310521F41092E201109206
S1131B80E1011092DF0360E070E040E050E0A0E08B
S1131B90B0E0E5EAF1E0FA83E9838BE9882E81E09D
S1131BA0982E0DEAA02E01E0B02E05EB11E0F40111
S1131BB0219131914F01E981FA8181919191FA83C7
S1131BC0E983821B930BFC01EE9FC001EF9F900DF4
S1131BD0FE9F900D1124A80FB91FF50181919191D9
S1131BE05F01821B930BFC01EE9FC001EF9F900DE0
S1131BF0FE9F900D1124480F591FF8018191919176
S1131C008F01821B930B9C01229FC001239F900D87
S1131C10329F900D1124680F791F89819A818D5A02
S1131C20914029F684E08093DF037093E801609388
S1131C30E7015093E6014093E501B093E401A093DA
S1131C40E3014A175B0760F44617570748F4371453
S1131C5010F070929A01D092A401C092A30115C011
S1131C606A177B0760F46417750748F4662011F05F
S1131C7060929A01F092A401E092A30106C02B8124
S1131C803C813093A4012093A30180919A01809315
S1131C909601CD019695879596958795853C9105F6
S1131CA010F080E141C08A3A910510F08FE03CC009
S1131CB08139910510F08EE037C08A37910510F014
S1131CC08DE032C08536910510F08BE02DC0823551
S1131CD0910510F08AE028C08134910510F089E064
S1131CE023C08233910510F088E01EC0853291052F
S1131CF010F087E019C08A31910510F086E014C015
S1131D008131910510F085E00FC08A30910510F003
S1131D1084E00AC08530910510F083E005C0029785
S1131D2010F082E001C081E099278093390240914C
S1131D30BD01642F77279C0102966817790714F474
S1131D404F5F0AC08091BF01841740F42C5F3F4F5E
S1131D50261737071CF441504093BD01129748F4ED
S1131D608091BF01853028F08091BE01815080931D
S1131D70BE019091BE019A3048F48091BF01843035
S1131D80A8F081508093BF019C5E0AC0933370F029
S1131D908091BF018A3038F48F5F8093BF019451E2
S1131DA09093BE0103C082E38093BE018091BE0183
S1131DB099279F938F938091BF0199279F938F9326
S1131DC084E291E09F938F930E94B7224DB75EB750
S1131DD04A5F5F4F0FB6F8945EBF0FBE4DBF3CC065
S1131DE0063124F08091BD018A5F07C08091BD0156
S1131DF0013114F08C5F01C08D5F8093BD0120918F
S1131E00E3013091E4012230310520F48091BE01D8
S1131E108C5E08C08091BE012430310510F4865FC9
S1131E2001C08F5F8093BE018091BE0199279F936B
S1131E308F938091BF0199279F938F9386E391E0BD
S1131E409F938F930E94B7228DB79EB706960FB6C5
S1131E50F8949EBF0FBE8DBF8091910199279F93E7
S1131E608F9380913302992787FD90959095819562
S1131E709F4F9F938F938091BD0199279F938F9339
S1131E808091E3019091E4019F938F9380913902B3
S1131E9099279F938F9380919A0199279F938F936A
S1131EA08091A3019091A4019F938F9380918703C4
S1131EB0909188039F938F9380918F0490919004C5
S1131EC09F938F938091B5049091B6049F938F93C1
S1131ED0822D99279F938F935F924F9288E491E08C
S1131EE09F938F930E94B7220E94D40BEDB7FEB745
S1131EF07A960FB6F894FEBF0FBEEDBF24960FB6C8
S1131F00F894DEBF0FBECDBFDF91CF911F910F912B
S1131F10FF90EF90DF90CF90BF90AF909F908F9005
S1131F207F906F905F904F903F902F9008951F93F4
S1131F30182F8091FE01882349F48091FD018D378B
S1131F4028F081E08093FE010E94890B8FB7F894FA
S1131F50282F33279091FD019A3FA8F48091FC012A
S1131F60E82FFF27E65CFD4F10838F5F8093FC0111
S1131F708A3F11F41092FC019F5F9093FD012FBFE3
S1131F8080E090E003C02FBF8FEF9FEF1F91089573
S1131F900F931F93182F0FB7F89461E080E00E940D
S1131FA09001882371F51093C8018091CB01882397
S1131FB0A9F580910402823089F581E10CC00E9468
S1131FC0C70180910402882349F481E080930402CC
S1131FD01092E30383E10E9416022AC08091DE047A
S1131FE08F3F31F5E091CA01EE2311F11CC010922C
S1131FF0C90104C0FF27E252FB4F10821092CA01AC
S113200017C081E090E002C0880F991F1A95E2F78B
S113201020910302282B209303020AC0809104021A
S11320208823E1F6CCCF8091C9018F3F19F7DFCF28
S1132030802F99278FBF80E090E01F910F91089522
S11320401F9383E00E94D9019927182F882319F040
S113205083E00E94C80F812F99271F9108951F9331
S1132060CF93DF93182F8FB7F894C82FDD2760E044
S113207080E00E94AA01882321F0CFBF80E090E095
S113208005C0CFBF812F0E943D029927DF91CF91D8
S11320901F910895EF92FF920F931F93CF93DF93B5
S11320A0182F7B01042F8FB7F894C82FDD2760E029
S11320B080E00E94AA01882321F0CFBF80E090E055
S11320C014C0CFBF1064812F99279093D1038093BC
S11320D0D0030E943D02182F402F5527B70180E0FE
S11320E090E00E94B702812F9927DF91CF911F9131
S11320F00F91FF90EF900895C09860910A0270913B
S11321000B0241E08FE30E944A10089582E090E0C0
S113211090933E0380933D0381E08093350320E058
S113212030E08091C801843011F421E030E0232BA9
S113213029F484E00E94D901882319F40E947C10B8
S1132140089584E00E94C80F08951F920F920FB65D
S11321500F9211242F933F934F935F936F937F9329
S11321608F939F93AF93BF93EF93FF9380913D031E
S113217090913E03019719F40E94861005C0809146
S1132180DD048F5F8093DD04FF91EF91BF91AF91E8
S11321909F918F917F916F915F914F913F912F917B
S11321A00F900FBE0F901F9018951F9380910302FC
S11321B0882309F046C01091C8011F3F09F041C0AF
S11321C060E00E94AA018823E1F181E0809321026A
S11321D0809109028823C1F11092210285E090E0E8
S11321E041C0923049F5C09A8091C90190E08F3F77
S11321F009F491E09923D9F48F3F19F42FEF30E0DB
S11322000DC0282F3327F901E252FB4F80818093C0
S1132210C9018F3F11F48093CA0110832093E30313
S113222081E08093040283E10E94160205C01093AA
S1132230CB011092040211C080910402882369F03A
S11322400FC081E090E00EC08091CB019091040218
S1132250882339F2923021F0EFCF80E00E94BB0155
S113226080E090E01F9108951F93182F81E090E083
S11322709093060280930502109209020E94D510E1
S11322808FB7F89499271093FF018FBF8DE00E94B8
S113229016021F9108951F93CF93DF939FB7F8946D
S11322A0C92FDD271C2F9091C801981721F0CFBFAB
S11322B081E090E03AC08FEF8093C801309103022F
S11322C03323F1F48FB7F8949927109283038FBFC7
S11322D00E94D510CFBF11C02093C80181E090E0C7
S11322E002C0880F991F4A95E2F7809538233093EE
S11322F0030281E10E9416021FBF80E090E015C036
S113230080E065E0E32FFF270E94BE25292F492F97
S11323105527CF01042E02C0959587950A94E2F7BC
S113232080FDDACF822F8F5FEFCFDF91CF911F91A6
S113233008951F93CF93DF938FB7F894C82FDD27A9
S11323401C2F80913D0390913E03892B29F484E056
S11323500E944B11CFBF1EC0109235038091DD0443
S1132360882311F0B79904C00E9908C0882319F086
S113237081508093DD040E9486100BC081E090E0C0
S113238090933E0380933D031092DD0484E00E9409
S11323904B111FBFDF91CF911F9108950E94F3034A
S11323A0C09AC09888E00E942F1088E00E942F10E5
S11323B0C09A84E00E944B110E9499110895FF92E3
S11323C00F931F93CF93DF93F82E8B018FB7F8945D
S11323D0C82FDD2760E080E00E94AA01882321F055
S11323E0CFBF80E090E00CC0CFBF8F2D0E943D0294
S11323F0812F99270E943D02802F0E943D02992738
S1132400DF91CF911F910F91FF9008951F931FB7F4
S1132410F89480913C03882319F460E070E009C0CB
S113242060E08091B004882309F461E081E06827CA
S1132430772780917803882319F480E090E00AC01C
S113244090E080918103882309F491E081E098274A
S1132450892F9927762F6627770F770F770F34E028
S1132460880F991F3A95E1F7826E9262682B792B57
S113247081E10E94DF11812F99278FBF1F91089559
S11324808FB7F89499276091A7048FBF85E0689F60
S1132490B0011124625D7E4F706488E10E94DF11F7
S11324A00895EF92FF921F93CF93DF93E0907F0301
S11324B0F0908003F70182A59927182F882309F447
S11324C01FE1C0988091B204811749F0612F7727EA
S11324D06F717070606E706885E10E94DF111093F7
S11324E0B204F70110818FB7F894C82FDD2760E09C
S11324F080E00E94AA01882311F0CFBF12C0CFBF91
S11325008EE390E09093D1038093D0038EE30E94F6
S11325103D021150412F552760E070E0C7010E9431
S1132520B702DF91CF911F91FF90EF900895FF9232
S11325300F931F93CF93DF93EA01F22E8B876E8361
S1132540672F77276F832FB7F89433278091C503BC
S11325509091C6032FBF8C83892F99278D832FB722
S1132560F89433278091CC019091CD012FBF8887B7
S1132570892F9927898761E082E00E94900188234E
S113258019F085E090E06CC080910C028F5F80931D
S11325900C0281508B838FE38A878FB7F894082FBE
S11325A0112762E081E00E94AA01882329F40FBF69
S11325B00E94D80281E053C08FB7F894992724E091
S11325C0209384038FBFD093DA04C093D9040FBF40
S11325D08DE0F80EFE01F192898199278072907046
S11325E08983118289819927816498688983892FD5
S11325F0992781831CA618A619A61DA619AA18AA8C
S11326001FA680E88EA761E06093B1044091D904CD
S11326105091DA048FB7F894282F3327809105025C
S1132620909106028830910511F0019711F02FBFA7
S113263015C082E090E090930602809305026093B7
S113264089035093800340937F031092CF032FBFDD
S11326500E942010882311F40E94511280E09927CF
S1132660DF91CF911F910F91FF900895AF92BF9288
S1132670CF92DF92EF92FF920F931F935B016C0155
S11326806091150261FF1FC020910D0230910E026E
S113269040910F0250911002E0901102F09012024A
S11326A00091130210911402D601C501821B930BF1
S11326B0A40BB50B8E159F05A007B10720F0EDE024
S11326C0F2E090E021C0E6E1F2E060911E0261FFD9
S11326D0A9C020911602309117024091180250911E
S11326E01902E0901A02F0901B0200911C02109152
S11326F01D02A21AB30AC40AD50AAE14BF04C00646
S1132700D10608F48FC091E060FF04C080858D7FFE
S1132710808708C02E0D3F1D401F511F2083318329
S113272042835383992309F07DC02091DE013091C7
S1132730DF012F5F3F4F3093DF012093DE01809153
S1132740E001882309F06EC080918F0180939C037F
S1132750809134029091350280939E03892F9927AA
S113276080939D032093A003832F992780939F0335
S1132770209191012093A1038091B5049091B60416
S11327808093A303892F99278093A20380919501B5
S11327908093A403809194018093A503203208F0D0
S11327A02FE12093BA03209192013091930140E9E3
S11327B053E020939603632F77276093970386E073
S11327C080939B038091300290913102892B39F5DB
S11327D0509331024093300288E1809390038091BA
S11327E0CF018823C9F0762F6627822F9927682B7B
S11327F0792B1092CF012BE086E00E949712992743
S1132800282F882349F081E08093CF011092310270
S113281010923002222319F481E08093E0018CE9C4
S11328208093940181E00E9416021F910F91FF9002
S1132830EF90DF90CF90BF90AF9008951F93CF9308
S1132840DF93182FEB01E82FFF27EE0FFF1FE05D4A
S1132850FD4F118210821092CF01E0913002F0916D
S11328603102309721F08091340380FF11C081E060
S11328708093CF0103C086E10E9416021123D1F494
S1132880C059D34011F41092E0010E94870112C094
S113289020812D50332767817727762F66278681FD
S11328A09927682B792BAF0183850E94971288237F
S11328B029F3E1CFDF91CF911F91089578941F926E
S11328C00F920FB60F9211242F923F924F925F9264
S11328D06F927F928F929F92AF92BF92CF92DF922C
S11328E0EF92FF920F931F932F933F934F935F9316
S11328F06F937F938F939F93AF93BF93EF93FF93C4
S1132900CF93DF93CDB7DEB72F97F894DEBF7894DB
S1132910CDBF2CB53DB53F872E8780E286BF0E9490
S11329208E049B01AC018E859F857C0100271127B5
S1132930DA01C901A070B0708E159F05A007B10718
S113294098F4212C312C7FEF472E7FEF572E220E47
S1132950331E441E551E80E090E0AFEFBFEF2822E7
S113296039224A225B220AC0212C312C6FEF462ED9
S11329706FEF562E22223322442255222E283F283E
S1132980402A512A8FB7F894898380910502909147
S113299006028530910521F0069709F0DBC0BAC024
S11329A086E090E0909306028093050291E0909374
S11329B0E10380E00E94D70520917F0330918003DA
S11329C0F90121AABB27A52D942D832D8A839B83EE
S11329D0AC83BD8380ABC201AA27BB278E839F83B0
S11329E0A887B98787A7852D9927AA27BB278A8710
S11329F09B87AC87BD8786A7E0917F03F091800316
S1132A0085A5882309F464C080813C968550E80F2D
S1132A10F11D94EF892E9FEF992E8E0E9F1ED401E7
S1132A202C9185EF682E8FEF782E6E0E7F1ED301CA
S1132A30EC90BF016A507040DB018C913997A08003
S1132A409927AA27BB27BA2FA92F982F882733277E
S1132A5044275527522F442733272227FF240027B2
S1132A6011278701FF24EE242E293F29402B512BC7
S1132A70BB24CC24DD242A293B294C295D29822B23
S1132A80932BA42BB52B82199309A409B509808330
S1132A90292F3A2F4B2F5527FB0120839D014427D3
S1132AA05527F30120838B2F9927AA27BB27F401ED
S1132AB08083C098E0917F03F0918003608165502A
S1132AC0772724E0A40180E090E00E946605C09A84
S1132AD0E0917F03F0918003818185FF03C0F1E0E1
S1132AE0F093090283E00E944B1187B78F7E87BF62
S1132AF0A0917F03B0918003FD01818187708130B3
S1132B0039F421AA2A8120AB3E8137A78A8586A77A
S1132B1084996DC01092E10381E00E94D705E09191
S1132B207F03F0918003818185FF0FC087E090E0EF
S1132B3090930602809305020E948E0420E031E007
S1132B4040E050E00E944B0503C080E00E94341135
S1132B50849B4DC080910702882349F511E01093AE
S1132B60E1030E94D7058091E203883098F4E09154
S1132B70CE03E80FFF27E770F070EE0FFF1FEE0F94
S1132B80FF1FE152FB4F20823182428253828F5FCA
S1132B908093E20310930702AE85BF85B09392043D
S1132BA0A0939104849B03C0B981BFBF22C010923B
S1132BB0E10381E00E94D7051092070280919104FD
S1132BC090919204EE85FF85E81BF90B3A9778F40F
S1132BD08091E203882319F081508093E20380916D
S1132BE07F0390918003009711F00E94FF03F98105
S1132BF0FFBF2F96F894DEBFCDBFDF91CF91FF9139
S1132C00EF91BF91AF919F918F917F916F915F9160
S1132C104F913F912F911F910F91FF90EF90DF9073
S1132C20CF90BF90AF909F908F907F906F905F9068
S1132C304F903F902F900F900FBE0F901F901895BC
S1132C4061E081E00E9490018823E9F48FB7F89451
S1132C50282F33278091000290910102892B11F0D3
S1132C602FBF20C081E090E0909301028093000286
S1132C702FBFDD9A0E948E0424E130E040E050E052
S1132C800E944B050FC062E081E00E94AA018823E4
S1132C9019F089E090E0089561E081E00E94AA01C2
S1132CA0882319F080E090E0089585E090E008958D
S1132CB0CF92DF92EF92FF920F931F93CFB6F894C7
S1132CC0DD240E940E04DC01CB0166E470E00E9466
S1132CD0CA25EBE0EE2EF12CE80EF91EF0928F03DC
S1132CE0E0928E030E948E0400271127A801970109
S1132CF00E944B05CFBE1F910F91FF90EF90DF9084
S1132D00CF9008951F93CF93DF938FB7F894C82F74
S1132D10DD271C2F80910502909106020897C9F4C3
S1132D2089E00E942F1083E00E944B11C09A81E039
S1132D3090E090930602809305028FB7F894992748
S1132D4023E02093FF018FBF8DE00E941602CFBFC6
S1132D5030C0C09880918903882311F085E001C0B8
S1132D6084E00E942F1083FD09C080E00E942F1090
S1132D7083FF04C085E090E020E003C083E090E09E
S1132D8021E09093060280930502C09A1FBF22237C
S1132D9041F01092CF0383E00E944B110E94581619
S1132DA008C00E948E0420E431E040E050E00E941C
S1132DB04B05DF91CF911F910895EF92FF920F93EE
S1132DC01F93CF93DF938B018091D0039091D10314
S1132DD086FF2AC18F7B8F3309F078C1C0910A0224
S1132DE0D0910B0258815093240280913D0390911D
S1132DF03E038330910509F443C08430910509F4FE
S1132E008AC0029709F009C183E090E090933E03E1
S1132E1080933D0340913202852F99270196242FF8
S1132E203327281739074CF1B79906C00E9904C007
S1132E30451B415040933202409124024A32E8F447
S1132E404423A1F0BE016F5F7F4F483018F047E084
S1132E5050E007C084E090E090933E0380933D03EC
S1132E60552780E090E00E94B70230C110923503EC
S1132E70C09A84E00E944B11CDC00E94CE1126C19D
S1132E8084E090E090933E0380933D038091780327
S1132E90882309F439C0809181038823A9F58981A5
S1132EA085FF32C08F814E812FB7F894332760910C
S1132EB0C0047091C1042FBF9927982F88275527E4
S1132EC0842B952B8617970759F08F812E8199278C
S1132ED0982F88273327822B932B8F5F9F4FA1F442
S1132EE089818770813081F4C09AC0988AE00E94F9
S1132EF02F10C09AC0984091240247502896BE01D2
S1132F008FE30E944A10E2C04091240247505527A3
S1132F102896BE01A6CFC09A8091DD04882319F4B7
S1132F2084E00E944B118091E2038823A1F18091F7
S1132F3024028B30B0F1E091CE03FF27EE0FFF1F88
S1132F40EE0FFF1FE152FB4F2081318142815381FB
S1132F50E0910A02F0910B0221ABBB27A52F942F1D
S1132F60832F80ABCA01AA27BB2787A7252F332726
S1132F704427552726A78091CE039927019668E018
S1132F8070E00E94DE258093CE038091E20381509D
S1132F908093E20306C080910A0290910B020E9482
S1132FA0FF0380912402FE01E80FF11D808187FF59
S1132FB031C0012B79F169816770E0910A02F091C7
S1132FC00B02623019F5A0917F03B0918003109732
S1132FD009F180910502909106020797D9F4ED0159
S1132FE09B8183819817B1F487B78F7E87BF9081C7
S1132FF081E08CA7E90FF11D8291319688A7808129
S11330008F7789A780E00E94341104C0613011F4E5
S113301084E12AC00E94991159C010923503C09AC4
S113302084E00E944B1152C08E3309F04FC0C09A05
S113303080910502909106020897C9F4C09889E02E
S11330400E942F10C09A83E00E944B1181E090E00F
S113305090930602809305028FB7F894992723E092
S11330602093FF018FBF8DE00E9416022FC0809134
S11330708903882349F484E090E0909306028093C6
S113308005020E94821622C083E00E944B1183E055
S113309090E090930602809305020E940E04DC01E6
S11330A0CB0166E371E00E94CA25FBE0EF2EF12C10
S11330B0E80EF91EF0927E03E0927D030E948E04D6
S11330C000271127A80197010E944B05DF91CF919A
S11330D01F910F91FF90EF9008951F920F920FB6DA
S11330E00F9211242F933F934F935F936F937F938A
S11330F08F939F93AF93BF93EF93FF932FB1E0917F
S11331002E02F0912F02309739F08091380390917C
S11331103903E80FF91F2083809138039091390314
S11331200196909339038093380380E00E94C10193
S11331304091520450915304809138039091390383
S11331408417950718F40E9449021CC060912E024E
S113315070912F0280918C0390918D0310922F0215
S113316010922E0210928D0310928C03109253042D
S11331701092520410923903109238032FB120E0B8
S11331800E94DD16FF91EF91BF91AF919F918F91B6
S11331907F916F915F914F913F912F910F900FBE4F
S11331A00F901F901895AF92BF92CF92DF92EF923B
S11331B0FF920F931F93CF93DF93E82FFF27E731FD
S11331C0F10508F0DAC5EA5BFF4FEE0FFF1F05902B
S11331D0F491E02D09948091B304882309F4CDC5BA
S11331E090E011E0BBC080913403882309F4C5C585
S11331F040E011E090C580911F02882361F5209181
S1133200A3043091A4044091A5045091A604EFB7FF
S1133210F894FF276091DB037091DC038091DD0358
S11332209091DE03E0908904F0908A0400918B046D
S113323010918C046E0D7F1D801F911FEFBF209392
S1133240A3043093A4044093A5045093A6041092BD
S11332501F020E9401070E94CC036DC00E94CC0390
S11332605B016C018FB7F8949927109254048FBFB7
S11332708091150281FF25C080910D0290910E026C
S1133280A0910F02B0911002A6019501281B390BE1
S11332904A0B5B0BE0901102F090120200911302B2
S11332A010911402E21AF30A040B150B3FEFE31614
S11332B03FEFF3063FEF03073FE7130711F061E029
S11332C009C09FEFE92E9FEFF92E9FEF092F9FE78B
S11332D0192F60E080911E0281FF21C080911602A7
S11332E090911702A0911802B0911902A6019501BC
S11332F0281B390B4A0B5B0BDA01C90120911A0216
S113330030911B0240911C0250911D02281B390B65
S11333104A0B5B0B2E153F05400751072CF0662323
S113332009F42BC5A80197011216130614061506F5
S11333302CF0C601B5010E9436131FC52093A304C7
S11333403093A4044093A5045093A60481E0809391
S11333501F02C601B5010E9401070FC52091B304E5
S1133360812F8223C1F0E92FFF27EE0FFF1FE45DB9
S1133370FD4F4081518111821082812F8095282335
S11333802093B304992339F463E0CA010E94C40B67
S1133390110F91E0E3CF9F5F983008F0EEC4110F56
S11333A0DDCF1091C001E12FFF27EE0FFF1FE45D79
S11333B0FD4FC081D181118210820E94EA05112340
S11333C009F0DBC461E0CE0115C18FB7F894109207
S11333D082032091AC0440E0283009F441E030E05D
S11333E0293009F431E0442311F4332351F01092CD
S11333F0AC04E091AD04FF27EE0FFF1FE952FC4F30
S1133400108299278FBF442311F4332319F180913B
S1133410D2038F5F8093D2038091B4048334A1F4E8
S11334209FB7F8942091B8048091B704821741F0B3
S1133430822F8F5F8093B804863010F01092B80406
S1133440892F99278FBF0AC0A0E0442309F4A1E083
S113345071E006C0222311F010E069C0A0E070E022
S11334608FB7F89499272091E9018FBF222341F067
S11334708FB7F89499272AE02093AC048FBF43C0F8
S11334808FB7F89499276091D7034091D9038FBFE0
S11334908FB7F894282F332750E09091B704809188
S11334A0B804981709F451E02FBF552349F5662352
S11334B039F55FB7F89482E08093D7038FB7F89417
S11334C0282F332740E09091B7048091B8049817CF
S11334D009F441E02FBF442311F080E006C0E091DD
S11334E0B804FF27E954FB4F82818093D803852FCA
S11334F099278FBF83E48093B4041092AD040BC06A
S11335004150423010F010E007C085E48093B404C9
S113351081E08093AD0411E0772349F08FB7F894EC
S11335209927A093F2018FBF88E00E941602809130
S1133530AC048A3019F40E9416061FC4112309F43E
S11335401CC42FB7F89433271092C9031092C803F0
S11335501092CC0381E08093AC042FBF0E946E06CE
S1133560882309F40AC48FB7F894992729E0209393
S1133570AC048FBF0E942D0300C456985798109234
S1133580360210927703539A549A579AF6C387E0F7
S113359060C053985498F1C31092EF011092EE0159
S11335A08FB7F8949927F090F2018FBF8091F301BF
S11335B0882311F0B3E0FB2E2091EC013091ED0152
S11335C08091F401882309F0D8C38091C001882335
S11335D009F0D3C300912C0210912D020217130796
S11335E009F0CBC310922D0210922C020E94EA051E
S11335F06F2DC8010E94C40BC0C38FB7F8949927DC
S11336002091F7013091F80140913B038FBF8FB7B0
S1133610F894E42FFF27EE0FFF1FEE53FE4F318384
S113362020832091EA01442311F02B7F01C02D7FD8
S11336302093EA011092F501992758C04CE16FE3F9
S113364073E08FEF9FEF0E948B03882309F495C3E7
S11336508AE00E94160291C30FB7F894112781E003
S11336600E94D705E1E0EE2EF12CF0920602E092E2
S1133670050210920702109209021092B2040FBFC1
S11336800FB7F89411270E94F303F0923E03E092DF
S11336903D031092350389B78F7B89BF80E488BFCF
S11336A08AB780628ABF8AB78F7E8ABF89B78064EF
S11336B089BF0FBF8FB7F894C82FDD278091000210
S11336C090910102049719F483E00E942F10CFBF58
S11336D00FB7F8941127C09A80E00E944B110FBFD6
S11336E08FB7F894992722E0209384038FBF45C3B2
S11336F08FB7F894992710928403F8CF8FB7F89472
S11337009927F090FF018FBF63E081E00E94AA0136
S1133710882359F10FB7F8941127109206021092DA
S1133720050287B78F7E87BF87B78F7D87BF83E00A
S11337300E944B11C09A0FBF0FB7F8941127109233
S11337403E0310923D030E94F303C09A89B78F7B16
S113375089BF0FBF1092010210920002DE98DD981B
S1133760DE9A8CE00E94160207C08FB7F89499275E
S113377022E0209384038FBFC091D904D091DA044E
S11337800E94D8028091CF01882309F0F6C260918B
S11337903002709131026C177D0709F0EEC24F2D93
S11337A0EAC28FB7F894282F3327122F80913A0357
S11337B0882301F581E080933A038091000290917F
S11337C00102049721F481E00E94C80F03C08FE036
S11337D00E9416021FBFD1C28FB7F8949927109286
S11337E03A0384CF8FB7F894282F332780910202AD
S11337F0882311F02FBFC1C22FBF80B3992776E071
S1133800969587957A95E1F7182F1170909120027B
S11338108091C4038917D9F01917C9F484E090E0A2
S113382090930102809300028FB7F894992721E0C6
S1133830209302028FBF60E070E08DE10E94DF11EF
S11338400E94A705C09AC0988BE00E9416021093AC
S1133850C40380E1FECE8FB7F89499271091C80174
S11338608FBF123009F460C0133030F4112359F0C3
S1133870113009F082C243C0133009F46FC0143010
S113388009F07BC29BC0C0988FB7F894C82FDD277E
S11338908091000290910102029779F583E090E013
S11338A0909301028093000268E170E08DE10E9430
S11338B0DF1181E0809320021092020280B39927E5
S11338C066E0969587956A95E1F78170907080938C
S11338D0C40380E10E94160281E00E942F106FE76A
S11338E072E08CE10E94DF110E9440120E940612D5
S11338F066E57AE287E10E94DF11CFBF3EC2C0983D
S113390086E00E942F100E9440120E9406120E941C
S1133910A705C09AC09883E00E942F10C09A81E046
S11339200E944B118FE095CEC0988FB7F894C82FA2
S1133930DD2760E080E00E94AA01882311F0CFBF58
S11339400AC0CFBF83E50E943D0280E00E943D0291
S113395080E00E943D02C09A82E02DC08FB7F894A7
S11339609927209105028FBF243039F0283041F087
S1133970223001F50E94511200C20E948216FDC13C
S1133980C09889E00E942F10C09A83E00E944B11D6
S11339908FB7F894992721E030E030930602209302
S11339A005028FBF8FB7F89499271093FF018FBF3B
S11339B08DE04FCE83E00E944B11DFC10E947C104A
S11339C0DCC10FB7F894112740915204509153046D
S11339D060912E0270912F0280918C0390918D033F
S11339E010922F0210922E0210928D0310928C03CB
S11339F01092530410925204109239031092380317
S1133A0020E00E94DD160FBFB8C12FB7F89433270A
S1133A108091E3038093CB0182E0809304022FBF63
S1133A208091CB01882309F0A8C1B89AC09881E19C
S1133A3010CEA0910A02B0910B021C91FD01E10F7E
S1133A40F11D8081881F8827881FED018BA7808145
S1133A508F7789A73197808188A7E0910A02F09136
S1133A600B028FB7F894992720913C038FBF222330
S1133A70F9F0878146812FB7F89433276091C00409
S1133A807091C1042FBF9927982F88275527842B1D
S1133A90952B8617970761F0878126819927982FA0
S1133AA088273327822B932B8F5F9F4F09F02AC1DE
S1133AB01D3008F427C1C0910A02D0910B028A85F7
S1133AC08F3309F01BC1898528859927582F4427EE
S1133AD03327422B532B6B818FEF8093DC048FB7FA
S1133AE0F894782F20E030E0E5E9F4E080819181DA
S1133AF08417950731F48281861709F4F2C0209364
S1133B00DC042F5F3F4F33962430310579F77FBFB4
S1133B109091DC043FB7F8949F3F21F08091080214
S1133B20891799F420910802822F9927FC01EE0F3E
S1133B30FF1FE80FF91FEB56FB4F5183408362834D
S1133B402F5F2370209308020CC0892F9927FC0152
S1133B50EE0FFF1FE80FF91FEB56FB4F5183408315
S1133B606283832F99278FBF8BA5882309F4C6C04E
S1133B708F814E812FB7F89433276091CC017091D7
S1133B80CD012FBF9927982F88275527842B952B54
S1133B908617970761F08F812E819927982F8827A0
S1133BA03327822B932B8F5F9F4F09F0A7C08B8500
S1133BB0863009F0A3C0183109F0A0C02C85822FEB
S1133BC09927909393018093920188A52A3A09F446
S1133BD08AC0482F4D52409395018D852E85992793
S1133BE0982F88273327822B932B90933502809329
S1133BF0340221E08039920798F133E08032930750
S1133C0020F154E0803B950710F480E011C0E6E019
S1133C1080349E0710F486EF0BC0F7E0803D9F07C9
S1133C2010F481EF05C029E08036920730F487EE66
S1133C300E94F4028093910124C03AE0803F9307EC
S1133C4078F05CE08038950740F4609194016195C8
S1133C50842F81950E94F50B14C080519E4040F43E
S1133C60609194016195842F81950E94DE0C09C0B6
S1133C7089E891E09F938F930E94B7220F900F9051
S1133C803DC020918F01309190018EE190E0289FFA
S1133C907001299FF00C389FF00C112422EE3FEFA5
S1133CA0E20EF31E002711270E94CC0360930D023D
S1133CB070930E0280930F0290931002E09211020F
S1133CC0F0921202009313021093140280911502D1
S1133CD083608093150281E00E9416020E9487018E
S1133CE00DC07FBF0BC08D52809394018FB7F894A1
S1133CF099272BB331E023272BBB8FBFD0930B0223
S1133D00C0930A028FB7F8949927109235038FBF96
S1133D100E94991132C090913403812F8923D9F0E4
S1133D20E42FFF27EE0FFF1FE05DFD4F208131815F
S1133D3011821082812F8095982390933403442319
S1133D4051F42059334011F41092E0010E9487018C
S1133D50110F41E0E0CF4F5F483078F4110FDBCF13
S1133D608091CF01E82FFF27EE0FFF1FE05DFD4F8D
S1133D706081718141E00E941E14DF91CF911F91F7
S1133D800F91FF90EF90DF90CF90BF90AF90089588
S1133D908091BF048F3FB1F0282F3327F901EE53F0
S1133DA0FB4F80818093BF048F3F11F48093DB0429
S1133DB08FEF80832F3F31F0822F0E94D31881E050
S1133DC090E0089580E090E00895CFEFD0E1DEBF69
S1133DD0CDBFFFB6F89447E150E06FEF70E082EC9E
S1133DE094E00E94B0228FEF8093BF048093DB04A1
S1133DF081E08EBD88E080BF83E083BF8CB59DB534
S1133E004AE72CB53DB52817390708F44150442337
S1133E1011F0C901F6CF92B782B78917E9F32CB52F
S1133E203DB592B782B78917E9F38CB59DB5821B6E
S1133E30930B409665E0969587956A95E1F7909384
S1133E40D6038093D50313BE83B78EBD8EB580BFD2
S1133E5012BE1DBC1CBC8FEF86BF86B780937C004E
S1133E6080B7992787709070892BD1F7D29AD19A0D
S1133E70D09ADA9AD99AD89A15BA8FEF84BBD49883
S1133E80DC981DBC1CBC87B7846087BF8EB5887F57
S1133E9084608EBD109289001092880080917D000C
S1133EA0846080937D0080918A00887F8260809303
S1133EB08A0080E285BF0E94C81E8823E1F7E5E9F5
S1133EC0F4E08FEF9FEF918380831282339624E096
S1133ED0E13AF207C1F70E940E0460930C0280914C
S1133EE08F01909190010196AA27BB2780937303B9
S1133EF090937403A0937503B093760385E594E0DF
S1133F0090930B0280930A028E98B89A8C988FEF44
S1133F108093DE041092830310928403109285032D
S1133F2010928603B89AD69AD59A8FB7F89499279F
S1133F302091CC013091CD018FBF3093C1042093E7
S1133F40C0048091CE0199279093C6038093C50342
S1133F508FE180938A0389E08093A70481E08093B2
S1133F603C031092B004809378031092810380ED97
S1133F7091E0909304058093030512E006E06091BC
S1133F80D5037091D603882799275CE0660F771FC5
S1133F90881F991F5A95D1F720E031EE40E050E098
S1133FA00E94F1252150304029B9832F992780930D
S1133FB090001BB9009395001AB820939900809340
S1133FC0980010939B0000939D0010929A0084E443
S1133FD090E09093CB038093CA031092D70310927E
S1133FE0D9031092AC041092CC031092B404109232
S1133FF0D2031092C9031092C80310928203109244
S1134000AD0410922802109227021092E00310923D
S11340108E04109294041092CD03109223021092F5
S113402022021092B8041092B7041092FE0180B7D5
S1134030886080BF8BE083BF86EE81BF87B78260D4
S113404087BF0E947E060E94C81E8823E1F78F2D39
S113405099278FBF789485E00E9416020E9420164B
S11340602FB7F89433278BB392E089278BBB2FBFEC
S11340708FB7F894482F552749C087B7992783707D
S11340809070892B19F4E5E0F0E013C080B799270C
S113409087709070892BD1F781B792B7891B8C30C8
S11340A030F082B7853F18F4E3E0F0E002C0E2E0CC
S11340B0F0E087B7887BC1F480917D008B7FA1F409
S11340C06E9912C08AB190919A00892B807C61F418
S11340D08091740082FD08C0379B03C081E090E0AA
S11340E005C085E090E002C080E090E025B78E171F
S11340F008F4E82FFF27E654FD4FC895E02D237EF2
S11341002062E22BE5BF78948895F8948091BF04EF
S11341108F3F09F4B2CF282F3327F901EE53FB4F19
S113412080818093BF048F3F11F48093DB048FEF71
S113413080832F3F09F4A1CF4FBF822F0E94D31851
S113414097CF78941F920F920FB60F9211241F935A
S11341502F933F934F935F936F937F938F939F938B
S1134160AF93BF93EF93FF9387B78F7E87BF789406
S11341701FB7F8948091A8049091A904A091AA046F
S1134180B091AB040097A105B10509F051C080912D
S11341900502909106028530910561F18630910502
S11341A030F48330910549F0049781F51AC08730C3
S11341B09105F1F0089751F514C0869B0FC084E077
S11341C090E090930602809305020E948E0427E0FB
S11341D030E040E050E00E944B0518C00E945816A1
S11341E015C00E942010882389F40E9482160EC0F4
S11341F080E00AC089E00E942F1081E00E94D70568
S113420083E00E944B1187E00E94341180910002E8
S113421090910102019771F482E090E09093010281
S113422080930002DE98DE9A80E00E94C80F02C0EC
S11342300E94AB04812F99278FBFFF91EF91BF910B
S1134240AF919F918F917F916F915F914F913F912A
S11342502F911F910F900FBE0F901F901895ACE2F5
S1134260B0E0E5E3F1E20C943226222E332E442E04
S1134270552E662E772E882E992EFE013196A8E0B3
S11342801192AA95E9F729823A824B825C826D8267
S11342907E828F829886FE013996B8E01192BA9593
S11342A0E9F7A986BA86CB86DC86ED86FE860F877B
S11342B0188B89819A81AB81BC8189A79AA7ABA706
S11342C0BCA77C018D018FEF9FEFA0E0B0E0E82256
S11342D0F9220A231B2389A59AA5ABA5BCA51D0118
S11342E04424552489859A85AB85BC858DA39EA3DA
S11342F0AFA3B8A75C016D018FEF9FEFA0E0B0E022
S1134300A822B922CA22DB228DA19EA1AFA1B8A501
S11343103D0188249924C801B701A60195010E9492
S1134320132669A37AA38BA39CA3C801B701A40194
S113433093010E9413267B018C01C201B101A601E5
S113434095010E9413265B016C01C201B101A40115
S113435093010E9413263B014C01EA0CFB1C0C1D2B
S11343601D1D89A19AA1ABA1BCA19D01442755277C
S11343702E0D3F1D401F511F2A153B054C055D05A1
S113438040F480E090E0A1E0B0E0680E791E8A1E5F
S11343909B1ECA01AA27BB27860D971DA81DB91D00
S11343A08D8F9E8FAF8FB8A3A9013327222789A1B0
S11343B09AA1ABA1BCA1A070B070280F391F4A1FED
S11343C05B1F298F3A8F4B8F5C8FA98CBA8CCB8C57
S11343D0DC8CED8CFE8C0F8D18A1FE01719698E09B
S11343E011929A95E9F7ED8AFE8A0F8B188F2D8129
S11343F03E814F8158856DA17EA18FA198A50E9411
S113440013263B014C012D853E854F85588969A5AE
S11344107AA58BA59CA50E9413262D893E894F89D8
S1134420588D260F371F481F591F260D371D481D4D
S1134430591D2D8B3E8B4F8B588F6D887E888F88AE
S1134440988C2A2D3B2D4C2D5D2D662D772D882D96
S1134450992DE2E1AC960C944E26A0E1B0E0E3E3A2
S1134460F2E20C943226222E332E442E552E662E42
S1134470772E882E992E002309F466C088E0FE0169
S1134480319611928A95E9F729833A834B835C83A9
S11344906D837E838F829887E0E2E01B1E16CCF545
S11344A02D813E814F815885602F772767FD709558
S11344B0DA01C901062E04C0B695A795979587958C
S11344C00A94D2F78D879E87AF87B88B04C0220FDA
S11344D0331F441F551FEA95D2F789819A81AB8116
S11344E0BC8104C0B695A795979587956A95D2F730
S11344F0282B392B4A2B5B2B29873A874B875C87E0
S113450029843A844B845C846D847E848F84988867
S11345101BC01D861E861F86188A2E2F332727FD53
S11345203095309521953F4F8D819E81AF81B8851F
S113453004C0B695A795979587952A95D2F789874C
S11345409A87AB87BC87DCCF222D332D442D552D84
S1134550662D772D882D992DE2E160960C944E26D8
S1134560DC0101C06D9341505040E0F70895A2E092
S1134570B0E0EDEBF2E20C944226FE013796619135
S11345807191FA83E983AF01809103059091040549
S11345900E94CE22E2E022960C945E26A4E1B0E0D2
S11345A0E4EDF2E20C943226CC24DD2476011C01E5
S11345B07C8B6B8B2A01FC0117821682838181FD1F
S11345C003C08FEF9FEF8AC2AA24BB2473C2A0FE4C
S11345D058C28A8980538A30E8F4FA89F03341F466
S11345E02D85222329F4A3FC03C080E091E06FC051
S11345F08AE0ED85E802C0011124FA89F80FF0532E
S1134600FD87F7FF02C02FE72D87A3FC4DC23D8530
S11346103E874AC2C50188709070A3FE05C0ED852F
S1134620EE2311F4F1E0FD872A89283624F5253696
S11346300CF05BC0233509F480C024358CF42B3294
S1134640C1F12C3234F42032C1F1233209F00EC20C
S11346503CC03A893D32B1F13E3209F007C23AC05A
S11346608A89833609F449C084360CF081C08835C0
S113467009F0FCC11BC0EA89E03709F4A3C0E137A3
S113468044F4EC3669F1EF3671F0E93609F0EEC125
S11346906FC0FA89F53709F49DC0F83739F0F3375C
S11346A009F0E4C134C028E0298B94C030E1398B8F
S11346B091C080E190E0A82AB92AE0E2F0E0AE2AB5
S11346C0BF2AF2C120E830E00DC080E490E0A82ABF
S11346D0B92AEAC1E8E0F0E0AE2ABF2A1D86E4C1A7
S11346E024E030E0A22AB32ADFC14FE3C42E3E8582
S11346F031503E8783E68A8B44C1F201C080FE8537
S1134700F150FE8722E030E0420E531E3AC1F2011E
S1134710C080D180892B49F0FD856F2F772767FDF5
S11347207095C6010E94862519C0F60101900020EB
S1134730E9F73197EC19E98B12C0F201C080D180FE
S1134740892B49F0FD856F2F772767FD7095C6018A
S11347500E947B2503C0C6010E947225898B22E03A
S113476030E0420E531E3E858989381B3E8709C1BD
S1134770A2FE08C0F20180819181A281B38124E06C
S113478030E009C0F20180819181AA2797FDA095AC
S1134790BA2F22E030E0420E531E6C017D01B7FFB8
S11347A00CC082E090E0A82AB92AF094E094D09456
S11347B0C094C11CD11CE11CF11CEFEBFFEFAE2235
S11347C0BF2221C020E430E0A22AB32A38E73A8B82
S11347D080E1898BA2FE08C0F20180819181A281CF
S11347E0B38124E030E007C0F20180819181AA27DF
S11347F0BB2722E030E0420E531E6C017D018FEC9A
S11348009FEFA822B92287017601FE013196F88B29
S1134810EF87F9896F2E772488249924C801B7017A
S1134820A40193010E94F1256A3024F02A89620FC1
S1134830615201C0605DEF85F8896193F88BEF8761
S1134840C801B701A40193010E94F12579018A01ED
S1134850211531054105510509F7CC24DD247601E4
S1134860CE010196CF84C81AC50182739070892B3A
S113487019F0FE85F150FE87A6FE09C02989203172
S113488011F482E001C081E03E85381B3E8738E0A8
S1134890832E912C8A209B20A3FE1BC08D85282F5C
S11348A0332727FD30958C2D99278217930754F0D1
S11348B0E7EFFFEFAE22BF2228E0822E912C8A2060
S11348C09B2007C0FD85FC19FD872E852F1B2E8795
S11348D003C03E853C193E87C50180789170892BC1
S11348E069F48E8506C0B10180E290E00E949125B2
S11348F0812F182F11501816B4F31E87A1FE04C07F
S1134900B1018DE290E00BC0A4FE04C0B1018BE2C2
S113491090E005C0A5FE05C0B10180E290E00E94D0
S11349209125A6FE10C0B10180E390E00E9491257C
S11349308989803141F4B101EA898E2F992787FD55
S113494090950E949125B0FE0DC08E8506C0B101E0
S113495080E390E00E949125812F182F11501816A2
S1134960B4F31E87892869F02D8506C0B10180E360
S113497090E00E949125212F122F11501216B4F3AA
S11349801D8790E8692E712C6A207B20A7FC0DC03E
S11349908E8506C0B10180E290E00E949125812FAE
S11349A0182F11501816B4F31E87FA89F33641F400
S11349B0B1018C2D992787FD90950E94912546C0C1
S11349C02A892337B1F446015601198909C0F50132
S11349D081915F01B101992787FD90950E949125EE
S11349E01150A8F76401F989CF0ED11C2FEF298B40
S11349F02DC03A89333519F00F85188920C0460136
S1134A008601B98809C0F801C895802DB10199279C
S1134A100E9491250F5F1F4FBA94FFEFBF1699F7BD
S1134A2064012989C20ED11CF98B10C0F80182914E
S1134A308F01B101992787FD90950E949125CE01A0
S1134A4001960817190791F7188B0F876728B1F09B
S1134A508E8506C0B10180E290E00E949125812FED
S1134A60182F11501816B4F31E8708C0B101FA8923
S1134A708F2F992787FD90950E949125AA24BB2406
S1134A8013C02A89253241F43AE0398B1E861D86EB
S1134A9081E0A82EB12C08C0B101EA898E2F992794
S1134AA087FD90950E9491252B893C892F5F3F4F6C
S1134AB03C8B2B8BF101838183FF05C0EB89FC893F
S1134AC0C895F02D03C0EB89FC89F081FA8B2A8903
S1134AD0222309F07CCDF10186819781E2E164967D
S1134AE00C944E26FC0105900020E9F780959095E2
S1134AF08E0F9F1F0895FC010590615070400110B6
S1134B00D8F7809590958E0F9F1F0895FC016150F2
S1134B10704001900110D8F7809590958E0F9F1FDB
S1134B2008950F931F93CF93DF938C01EB018B8137
S1134B30992781FF1BC082FF0DC02E813F818C818C
S1134B409D812817390764F4E881F9810193F98379
S1134B50E88306C0E885F985802F0995892B31F40F
S1134B608E819F8101969F838E8302C00FEF1FEF7A
S1134B70C801DF91CF911F910F910895991B79E09E
S1134B8004C0991F961708F0961B881F7A95C9F7D9
S1134B9080950895AA1BBB1B51E107C0AA1FBB1F28
S1134BA0A617B70710F0A61BB70B881F991F5A95B5
S1134BB0A9F780959095BC01CD01089597FB092E26
S1134BC007260AD077FD04D0E5DF06D000201AF4CA
S1134BD0709561957F4F0895F6F7909581959F4F55
S1134BE00895A1E21A2EAA1BBB1BFD010DC0AA1F2A
S1134BF0BB1FEE1FFF1FA217B307E407F50720F042
S1134C00A21BB30BE40BF50B661F771F881F991FBC
S1134C101A9469F760957095809590959B01AC0105
S1134C20BD01CF010895629FD001739FF001829F5F
S1134C30E00DF11D649FE00DF11D929FF00D839F27
S1134C40F00D749FF00D659FF00D9927729FB00DC4
S1134C50E11DF91F639FB00DE11DF91FBD01CF01D7
S1134C60112408952F923F924F925F926F927F92F8
S1134C708F929F92AF92BF92CF92DF92EF92FF9268
S1134C800F931F93CF93DF93CDB7DEB7CA1BDB0B14
S1134C900FB6F894DEBF0FBECDBF09942A883988B9
S1134CA048885F846E847D848C849B84AA84B984C0
S1134CB0C884DF80EE80FD800C811B81AA81B981CC
S1134CC0CE0FD11D0FB6F894DEBF0FBECDBFED01E0
S1074CD00895FFCF71
S1134CD40A2025752025753B206368616E303D25C7
S1134CE47520202575202054783D256420706F7725
S1134CF43D257500207468723D2564207265645FE7
S1134D0464653D256400207468723D2564207265E1
S1134D14645F696E3D2564000A2025752025753B72
S1134D24202575206368616E303D25752025753B0B
S1134D3420257520613D25752063685F6572723D89
S1134D442564206D73653D2564206D6172673D257E
S1134D54753B202564202575006572726F7200010D
S1134D64001FFFFF9C9C055C012010550055005555
S1134D740055005500550055005500550055005583
S1134D8400550055005500550055005500051E07F3
S1134D9401FFE6031A04E603FFFFFFFF01002201FB
S1114DA40000000200000000970F0000000055
S9030000FC
