S01800006275696C642F6D6963617A2F6D61696E2E73726563E5
S11300000C9468010C94950A0C949F0A0C945C0C53
S11300100C94A90A0C94B30A0C94BD0A0C94DA0E3D
S11300200C94C70A0C9487010C9487010C947F12DA
S11300300C9441140C945F0A0C94750A0C94D10A24
S11300400C94BE060C945F160C945A080C94870109
S11300500C94D6080C9487010C9487010C948701A6
S11300600C946A0A0C942C0A0C940B0A0C94160A2D
S11300700C94210A0C943F0A0C94EE090C94870109
S11300800C94000A0C9487010C948701A11A061B96
S11300902D1B601B8E1AD51BE91BC11CCB1CCD1C50
S11300A0D01C011D221D301D8A1D9B1DEE1D091E25
S11300B0121E4B1E011F241F381FA1200622A82038
S11300C0AA20F5200D22971A702200002110422048
S11300D063308440A550C660E770088129914AA125
S11300E06BB18CC1ADD1CEE1EFF13112100273329C
S11300F05222B5529442F772D662399318837BB375
S11301005AA3BDD39CC3FFF3DEE36224433420042B
S11301100114E664C774A44485546AA54BB52885C4
S11301200995EEE5CFF5ACC58DD55336722611167B
S11301303006D776F6669556B4465BB77AA7199714
S11301403887DFF7FEE79DD7BCC7C448E558866803
S1130150A7784008611802282338CCC9EDD98EE964
S1130160AFF9488969990AA92BB9F55AD44AB77ADB
S1130170966A711A500A333A122AFDDBDCCBBFFBB4
S11301809EEB799B588B3BBB1AABA66C877CE44CEB
S1130190C55C222C033C600C411CAEED8FFDECCD04
S11301A0CDDD2AAD0BBD688D499D977EB66ED55EBB
S11301B0F44E133E322E511E700E9FFFBEEFDDDF54
S11301C0FCCF1BBF3AAF599F788F8891A981CAB1E0
S11301D0EBA10CD12DC14EF16FE18010A100C23012
S11301E0E3200450254046706760B9839893FBA3CD
S11301F0DAB33DC31CD37FE35EF3B1029012F32262
S1130200D2323542145277625672EAB5CBA5A8951C
S113021089856EF54FE52CD50DC5E234C324A014B1
S113022081046674476424540544DBA7FAB79987AC
S1130230B8975FE77EF71DC73CD7D326F236910601
S1130240B01657667676154634564CD96DC90EF9F4
S11302502FE9C899E9898AB9ABA944586548067851
S11302602768C018E1088238A3287DCB5CDB3FEB0C
S11302701EFBF98BD89BBBAB9ABB754A545A376AA1
S1130280167AF10AD01AB32A923A2EFD0FED6CDDDC
S11302904DCDAABD8BADE89DC98D267C076C645CF1
S11302A0454CA23C832CE01CC10C1FEF3EFF5DCFEC
S11302B07CDF9BAFBABFD98FF89F176E367E554E41
S11302C0745E932EB23ED10EF01E00081C1814105A
S11302D011241FBECFEFD0E1DEBFCDBF11E0A0E0FF
S11302E0B1E0E2EEF3E500E00BBF02C007900D922F
S11302F0AE3DB107D9F715E0AEEDB1E001C01D92F6
S1130300AC34B107E1F70E94AE220C94F0290C94AE
S113031000008FB7F894992708958FBF08958FB779
S1130320F89499272BB334E023272BBB8FBF089570
S1130330282F9FB7F894662349F0E82FFF27EB5541
S1130340FC4F8081882311F021E006C0E22FFF27B3
S1130350EB55FC4F608320E0892F99278FBF822FB4
S113036099270895E82F8FB7F894282F332790E022
S1130370FF27EB55FC4F8081861709F491E02FBFCE
S1130380892F99270895882311F06E9A08956E98FD
S11303900895882311F06F9A08956F98089580E066
S11303A00E94C301BA9ABB98B99A6C9A80E00E94E1
S11303B0C901709A6B986A98689881E00E94C30199
S11303C00895282F9FB7F894E82FFF27E350FB4F99
S11303D080818F3F81F4E0911E05E21771F40BC018
S11303E02093FA0404C0FF27E350FB4F208320939B
S11303F01E0520E007C025E005C08091FA048F3F68
S113040091F7EECF892F99278FBF822F99270895CF
S11304101F93182F81E00E94C3011FB9779BFECF61
S11304208FB199271F9108958F929F92AF92BF9297
S1130430CF92DF92EF92FF920F931F93CF93DF93AC
S11304408FB7F8949927C090AC03D090AD038090F7
S11304504A0290904B02C0915003D09151032091D5
S11304607704309178049AE0A92EB12CAC0EBD1E0D
S11304702A153B0508F459018FBF7401EC0EFD1ECB
S113048086010C0F1D1F14C0C114D10419F0F8010A
S1130490808101C080E00E9408028114910411F05F
S11304A0F701808321960894E11CF11C0F5F1F4F14
S11304B0C5010197C817D90738F381E00E94C90123
S11304C09FB7F894C114D10431F0CC0EDD1EF601AF
S11304D080818FB901C01FB8D0935103C0935003DA
S11304E0892F99278FBF80E090E0DF91CF911F91F2
S11304F00F91FF90EF90DF90CF90BF90AF909F90BF
S11305008F9008952FB7F89433275093780440932D
S113051077049093AD038093AC0370934B02609384
S11305204A0210925103109250032FBF452B29F019
S11305308FB10E9414029927089584E10E94E10179
S113054080E090E008958FB7F89499271092A7035C
S11305508FBF08951F931FB7F8948091A403882335
S113056041F486E00E94E101882319F481E080933C
S1130570A403812F99278FBF1F910895FA01422F59
S11305806683672F77276583838741878091EF018F
S11305909091F001892B19F085E090E008952FB730
S11305A0F894332785E08093F2011092F301F093DD
S11305B0EE01E093ED0182E090E09093F0018093EE
S11305C0EF011092F5011092F401445F4093F101A0
S11305D02FBF9FB7F8948091F903882311F020E08E
S11305E006C081E08093F9031092FA0321E0892F79
S11305F099278FBF222329F00E94AA0280E090E06D
S113060008951092F0011092EF0181E090E00895B6
S1130610CF93DF93DB01FB0135968183892F9927E3
S1130620EB018D8384E68683809147029091480292
S1130630892B19F085E090E029C0709348026093FB
S1130640470244838091BC01882319F480E090E040
S11306501DC08681EB016D817727762F6627218166
S11306603327622B732B1092BC01242FAD010E94FF
S1130670BE029927282F882339F081E08093BC019A
S11306801092480210924702822F9927DF91CF914E
S11306900895EF920F931F93AE2D99E0899FF00177
S11306A01124EC5EFD4F4083518362837383048382
S11306B0158326833783A17080858E7F8A2B826081
S11306C0808783E00E94E1011F910F91EF900895CC
S11306D07FB7F89462B7209170043091710440910F
S11306E072045091730406B601FE0FC081B792B72D
S11306F0280F311D411D511D2F5F3F4F4F4F5F4F3D
S1130700290F311D411D511D04C0260F311D411DEE
S1130710511D872F99278FBFCA01B90108958FB73B
S1130720F89460914E0370914F032CB53DB506B615
S113073002FE04C06F5F7F4F2CB53DB599278FBF74
S113074088279927CB017727662744275527622BCB
S1130750732B842B952B0895EF92FF920F931F9385
S11307600E948F037B018C012091990330919A039D
S113077040919B0350919C038091D8049091D9049B
S1130780A091DA04B091DB04820F931FA41FB51F5C
S1130790E216F3060407150730F082179307A4073F
S11307A0B50758F005C082179307A407B507E0F50D
S11307B0E816F9060A071B07B8F59C01AD012E19C6
S11307C03F09400B510B213060E8360760E04607D3
S11307D060E0560768F180E090E8A0E0B0E0E80E41
S11307E0F91E0A1F1B1FE0929903F0929A030093CB
S11307F09B0310939C0380E090E8AFEFBFEFE80EFB
S1130800F91E0A1F1B1F20503048404050402093BF
S1130810D8043093D9044093DA045093DB0420E0E5
S113082030E840E050E014C020E030E040E050E028
S11308308093990390939A03A0939B03B0939C0392
S11308401092D8041092D9041092DA041092DB04A6
S1130850A901B7012CB53DB5C9018E199F090396AD
S11308608417950720F0B9016D5F7F4F02C0640FB4
S1130870751F6115710511F461E070E061507040FD
S11308807BBD6ABD80E186BF87B7806187BF1F914A
S11308900F91FF90EF9008950F931F930FB7F89463
S11308A011276093990370939A0380939B03909309
S11308B09C032093D8043093D9044093DA045093D2
S11308C0DB040E94AC030FBF1F910F91089588238E
S11308D011F060E070E0CB010895982F4FB7F894C1
S11308E0552722B3277D22BB80E097FD939A959AE2
S11308F08299806822BB96FD939A959A8299806426
S113090022BB95FD939A959A8299806222BB94FDAD
S1130910939A959A8299806122BB93FD939A959AB2
S11309208299886022BB92FD939A959A82998460F9
S113093022BB91FD939A959A8299826022BB90FD85
S1130940939A959A829981604FBF99270895EAEC0A
S1130950F0E06927660FF11DE60FF11DC895982F89
S1130960802D3196C8959025089580E880934E0295
S113097010924D031092EE0310920304109220057E
S11309800895CF93DF93FC0115A6DC019E96ED013B
S11309901B821A82198280E886A7DF91CF9108957D
S11309A02F923F924F925F926F927F928F929F927B
S11309B0AF92BF92CF92DF92EF92FF920F931F9369
S11309C0CF93DF93CDB7DEB728970FB6F894DEBF89
S11309D00FBECDBF209093033090940340909503B5
S11309E050909603662477248824BEE4AB2EA3E8B3
S11309F0BA2ECC24DD24EE24FF2400E010E0222DC6
S1130A00332D442D552D662D772D882D90E00E9491
S1130A10AF2429833A834B835C836D837E838F83E6
S1130A209887822E932EA42EB52E2401350100E240
S1130A300E94AD25A22EB32EC42ED52EC301B20121
S1130A4096958795779567956A0D7B1D8C1D9D1DE1
S1130A5097FF05C09F776F5F7F4F8F4F9F4F6093C6
S1130A60930370939403809395039093960328962D
S1130A700FB6F894DEBF0FBECDBFDF91CF911F91AB
S1130A800F91FF90EF90DF90CF90BF90AF909F9029
S1130A908F907F906F905F904F903F902F9008952C
S1130AA0CF92DF92EF92FF920F931F93CFB6F894F9
S1130AB0DD240E94D004DC01CB0166E470E00E94D6
S1130AC051291BE0E12EF12CE80EF91EF092B0033F
S1130AD0E092AF030E948F0300271127A80197011A
S1130AE00E944C04CFBE1F910F91FF90EF90DF90B6
S1130AF0CF90089597B79F7D97BF90E296BF8823C4
S1130B0019F08EB5806402C08EB58F7B8EBD87B719
S1130B10806287BF80E090E00895CF93DF931092C6
S1130B20BC01A0914702B0914802109721F0809136
S1130B30E70480FF08C081E08093BC0117C085E012
S1130B400E94E10113C0FD01359624813327ED0194
S1130B506D817727762F662781819927682B792BDA
S1130B60AD0186810E94BE02882349F7DF91CF91AF
S1130B7008959FB7F8948091DC048A3011F020E046
S1130B8006C020E08091FF03843009F421E0892F1E
S1130B9099278FBF222349F088E00E94E1018FB793
S1130BA0F89499271092EA0106C08FB7F894992710
S1130BB021E02093EA018FBF08952FB7F8943327DB
S1130BC08CB95E9A2FBF0895FC016115710519F463
S1130BD081E090E008958091440590914505892B2A
S1130BE019F085E090E008957093E3046093E204C3
S1130BF0F0934505E09344051092360210923502B5
S1130C0081E0809397035E9A569A808121E030E0D8
S1130C1030933602209335020E94DD0580E090E097
S1130C2008958091FB018E7F8093FB018EE7809372
S1130C30C30461E070E083EC94E00E94E40599272A
S1130C400895DF92EF92FF920F931F938FB7F8945A
S1130C50282F3327D22E91B782B746B7981711F0B1
S1130C6041FF02C02FBF6AC080917A048823E1F15A
S1130C700E946803E090FB03F090FC030091FD03E5
S1130C801091FE032091B0043091B1044091B2045C
S1130C905091B3046E197F09800B910B621773078F
S1130CA08407950720F010927A0471E01EC02E0D7F
S1130CB03F1D401F511F8091700490917104A091B9
S1130CC07204B0917304281B390B4A0B5B0B273E4B
S1130CD031054105510540F4822F223010F070E0B7
S1130CE005C070E082E002C070E086EE682F6150BB
S1130CF000B601FCFDCF82B7681709F46F5F20913D
S1130D007004309171044091720450917304DA01BB
S1130D10C9010196A11DB11D860F911DA11DB11D13
S1130D2082179307A407B50710F4622F609561BF7B
S1130D30DFBE772319F082E00E94E1011F910F9139
S1130D40FF90EF90DF900895AFB7F894BB27E1E0F0
S1130D50E0937A046093FB037093FC038093FD0398
S1130D609093FE032093B0043093B1044093B204F3
S1130D705093B304AFBF0E94210608951F920F92AF
S1130D800FB60F9211248F9383B783BF00B600FC74
S1130D90FDCF8F910F900FBE0F901F901895982F35
S1130DA08091F601882381F5992371F531E0309320
S1130DB0F6018091BD018093F7012091EB01822F10
S1130DC08170809359038091C2019091C3019093E3
S1130DD0F9018093F8018091EC018093FA013227A4
S1130DE03170267EE32FFF27EE0FFF1FE254FE4FE4
S1130DF0808191819093C3018093C201232B20931E
S1130E00EB018BE00E94E10108950F931F93082FDB
S1130E10162F8091FF038130D9F0813038F0823071
S1130E2009F44AC0833009F00EC159C0002309F403
S1130E303EC110924302109242021092B4041092E6
S1130E40C4041092ED0310923302109232021FC1B7
S1130E50002309F02CC180913202909133020E9448
S1130E60A704909333028093320282E08093FF03BD
S1130E701093C404143409F0E6C00BC1869504C071
S1130E808091EB0186958695817009F0DCC0809194
S1130E90EB01992311F0846001C082608093EB011F
S1130EA08091EB01877E88608093EB011092EC01C6
S1130EB08FEF8093BD01FBC0002309F0C4C0609391
S1130EC0ED0380913202909133020E94A704909323
S1130ED033028093320283E08093FF03E8C0809161
S1130EE0B4048F3F09F4AFC0002309F447C0823033
S1130EF008F4A9C0E0914202EE2309F4D1C04E2FB8
S1130F004150E42FFF27EE5BFD4F82819927382F54
S1130F102227442311F4E2E002C0E42FE150FF272A
S1130F20EE5BFD4F82819927282B392B8091320269
S1130F30909133022817390709F085C080E00E9498
S1130F40CF063091ED038091F2042091F304982FA1
S1130F509F5F963008F090E0921709F474C0E82F70
S1130F60FF27EE50FB4F32838F5F8093F20486306D
S1130F7010F01092F2040E94AA0265C0823008F4B4
S1130F804EC0E0914302FF27EE5BFD4F8281482F64
S1130F905527342F2091EB01822F869586958695CF
S1130FA0837099278130910519F00297F9F40EC0E6
S1130FB0277E20612093EB01442311F485E001C0D6
S1130FC080E08093EC013093BD0110C08091EC016E
S1130FD0843360F4E091C201F091C301E80FF11D84
S1130FE040838091EC018F5F8093EC0180914302F8
S1130FF0E82FFF27EE5BFD4F62818F5F80934302F2
S1131000833010F01092430277278091320290913E
S113101033020E94A704909333028093320280919A
S11310204202E82FFF27EE5BFD4F12838F5F809310
S11310304202833010F0109242028091B4048F5F18
S11310408093B40434C0109243021092420210926E
S1131050FF031092B4041092C4041092ED03109292
S11310603302109232028091FB018D7F8093FB0149
S113107081E00E94CF068091EA01882331F084E068
S11310808093FF030E94B90512C0002381F081E020
S113109023CF8091EB01982F917080FDEFCEF0CE9D
S11310A0809146029927382F222742E036CF1F919C
S11310B00F9108951F920F920FB60F9211242F9340
S11310C03F934F935F936F937F938F939F93AF93CC
S11310D0BF93EF93FF935F9B3DC06CB1E091D1044C
S11310E0F091D2043097F9F08091F3039091F403D6
S11310F0E80FF91F608301969093F4038093F30340
S113110020910604309107048217930718F1109276
S1131110D2041092D10480914F028330D9F05798B1
S113112010924F0217C06E3719F460E081E010C0CE
S11311308091FB016D3721F482608093FB010AC02A
S113114081FF05C08D7F8093FB0180E2682780E0EA
S11311500E940507FF91EF91BF91AF919F918F91ED
S11311607F916F915F914F913F912F910F900FBE9F
S11311700F901F901895982F8D57823068F48091A6
S1131180FB0181608093FB0180E289278093AB039C
S11311908DE78093C30402C09093C30461E070E0C0
S11311A083EC94E00E94E4059927089578941F92B3
S11311B00F920FB60F921124FF920F931F932F9348
S11311C03F934F935F936F937F938F939F93AF93CB
S11311D0BF93CF93DF93EF93FF9320913502309128
S11311E036028091E2049091E3042817390780F4D1
S11311F0E0914405F0914505E20FF31F80812F5FD4
S11312003F4F30933602209335020E94DD05D0C053
S113121010924505109244051092970356988091B8
S1131220FB0180FF0EC08E7F8093FB018091AB0396
S11312308093C30461E070E083EC94E00E94E405D1
S1131240B7C08091DC04843009F494C0853040F444
S1131250823021F18330B8F5813009F0A4C00DC08B
S1131260863009F495C0863008F48BC0873009F4C1
S113127096C0883009F097C099C08091E8040E9414
S1131280BB08182F83E08093DC046091E80480910C
S1131290E8039091E9030E94A70410C08091F2032F
S11312A00E94BB08182F83E08093DC046091F20352
S11312B08091E8039091E9030E94A7049093E903C5
S11312C08093E8036EC0FFB6F894E091E104FF2731
S11312D0EE0FFF1FE850FC4F80810E94BB08082FCF
S11312E01091E104C12FDD27FE01EE0FFF1FE8502E
S11312F0FC4F60818091E8039091E9030E94A70468
S11313009093E9038093E8032091EC032F5F2093EB
S1131310EC03113039F58091F201E091ED01F09187
S1131320EE01E80FF11DE0818F5F8093F20190914F
S1131330F101981730F482E08093F90340E050E023
S113134002C04E2F5527DE01AA0FBB1FFD01E95035
S1131350FC4F8081823031F02F3F21F0A850BC4FE8
S11313604C9303C084E08093DC04102F8F2D9927C5
S11313708FBF17C08091E8030E94BB08182F85E037
S11313800BC08091E9030E94BB08182F86E004C0BB
S11313900E941106182F87E08093DC0402C088E0C5
S11313A003C0112329F089E08093DC040E94AA027F
S11313B0FF91EF91DF91CF91BF91AF919F918F9169
S11313C07F916F915F914F913F912F911F910F9159
S11313D0FF900F900FBE0F901F9018951F920F92C1
S11313E00FB60F9211248F9380919B0087FF02C048
S11313F080919C008F910F900FBE0F901F901895B5
S113140078941F920F920FB60F9211240F900FBE73
S11314100F901F90189578941F920F920FB60F9209
S113142011240F900FBE0F901F90189578941F925F
S11314300F920FB60F9211240F900FBE0F901F90B2
S1131440189578941F920F920FB60F9211240F9053
S11314500FBE0F901F90189578941F920F920FB69D
S11314600F9211248F939F9380918800909189000B
S11314709F918F910F900FBE0F901F9018957894A5
S11314801F920F920FB60F9211242F933F938F93B5
S11314909F932FB7F8943327809150029091510273
S11314A0019690935102809350022FBF9F918F9188
S11314B03F912F910F900FBE0F901F901895789425
S11314C01F920F920FB60F9211240F900FBE0F9020
S11314D01F90189578941F920F920FB60F921124B3
S11314E00F900FBE0F901F90189578941F920F9233
S11314F00FB60F9211242F933F938F939F932FB77F
S1131500F894332780914E0390914F030196909362
S11315104F0380934E032FBF9F918F913F912F9143
S11315200F900FBE0F901F9018951F920F920FB639
S11315300F9211240F900FBE0F901F9018951F92B9
S11315400F920FB60F9211240F900FBE0F901F90A1
S113155018951F920F920FB60F9211240F900FBE81
S11315600F901F9018951F920F920FB60F9211248F
S11315700F900FBE0F901F9018951F920F920FB6E9
S11315800F9211240F900FBE0F901F9018951F9269
S11315900F920FB60F9211240F900FBE0F901F9051
S11315A018951F920F920FB60F9211242F933F9309
S11315B04F935F936F937F938F939F93AF93BF9357
S11315C0EF93FF9383B783BF00B600FCFDCF81B7D1
S11315D099270196AA27BB272091700430917104A2
S11315E04091720450917304280F391F4A1F5B1FE6
S11315F020937004309371044093720450937304E5
S113160078940E942106FF91EF91BF91AF919F9131
S11316108F917F916F915F914F913F912F910F9097
S11316200FBE0F901F9018950F931F93CF93DF93C6
S1131630182F8FB7F894C82FDD270C2F61E080E0B6
S11316400E949801882321F0CFBF85E090E024C058
S11316508091C7018823A1F480910502823081F42E
S113166009C082E0809305021092C7010E94CF0155
S1131670B89AC0981093C40180E00FBF99270CC09A
S113168080910502882369F38FB7F8949927109203
S1131690A5038FBF81E0F1CFDF91CF911F910F910F
S11316A00895AF92BF92CF92DF92EF92FF920F9381
S11316B01F93A82EB62E77278BE090E0689FF00149
S11316C0699FF00D789FF00D1124EB54FB4F80813E
S11316D0882319F085E090E07FC0BB2019F480E0F6
S11316E094E002C080E090E0AA27BB27BA2FA92F7C
S11316F0982F882782179307A407B50708F464C0B6
S1131700821B930BA40BB50B8C159D05AE05BF0571
S113171008F45AC08BE090E0689FF001699FF00DD7
S1131720789FF00D1124EB54FB4FA0822383348364
S113173045835683C782D086E186F286128301836D
S1131740BB2009F03EC08FB7F894282F3327922F7F
S113175080910D02882311F581E080930D0210928F
S1131760AE032FBF8FB7F894082F1127902F8091C5
S1131770CE01813029F580910D02813021F48CE174
S11317800E94E10109C08230D9F48091AE038093B4
S1131790CE0183E080930D020FBF13C080914902F4
S11317A08F3F71F4E091CD01EE2351F010C01092FF
S11317B0CC0104C0FF27E75BFD4F10821092CD01DE
S11317C09FBF80E090E008C086E090E005C0809173
S11317D0CC018F3F79F7EBCF1F910F91FF90EF90E2
S11317E0DF90CF90BF90AF9008950F931F93182F61
S11317F00FB7F89461E080E00E949801882371F5A6
S11318001093C4018091C7018823A9F58091050232
S1131810823089F583E10CC00E94CF0180910502DA
S1131820882349F481E0809305021092050485E140
S11318300E94E1012AC0809121058F3F31F5E0919A
S1131840C601EE2311F11CC01092C50104C0FF278C
S1131850EF5DFA4F10821092C60117C081E090E04C
S113186002C0880F991F1A95E2F720910402282BD1
S1131870209304020AC0809105028823E1F6CCCFAC
S11318808091C5018F3F19F7DFCF802F99278FBF34
S113189080E090E01F910F9108951F9383E00E94D0
S11318A0140B9927182F882319F083E00E94F50B55
S11318B0812F99271F9108951F920F920FB60F92AF
S11318C011242F933F934F935F936F937F938F9341
S11318D09F93AF93BF93EF93FF9389B78B7F89BF98
S11318E08AE10E94E101FF91EF91BF91AF919F9135
S11318F08F917F916F915F914F913F912F910F90B5
S11319000FBE0F901F9018958091FE018C3118F036
S11319104CE150E002C0482F55278CE1EBE6F3E0A0
S113192011928A95E9F79091FE018091FC0120E0E3
S113193030E0ABE6B3E00FC0E82FFF27EE5AFD4FCF
S1131940E081992329F08F5F8A3F09F480E0915068
S1131950ED932F5F3F4F2417350771F79093FE01E6
S11319608093FC014CE16FE573E08FEF9FEF0E94E1
S11319700803882319F08CE00E94E101089566238E
S113198051F48091FE01882319F00E94840C08957B
S11319901092FF0108958CE00E94E10108958FB731
S11319A0F894282F33278091FF01813021F42FBF31
S11319B080E090E0089590E08091FE01882309F48E
S11319C091E0992321F02FBF81E090E0089581E018
S11319D08093FF012FBF0E94840C80E090E0089563
S11319E0AF92BF92CF92DF92EF92FF920F931F9329
S11319F0CF93DF935B016C01C0E0D0E0E4E1F2E05F
S1131A007C2F608561FF7CC02081318142815381BC
S1131A10E480F58006811781D601C501821B930BF2
S1131A20A40BB50B8E159F05A007B10708F468C079
S1131A3060FF03C06D7F608708C02E0D3F1D401FEF
S1131A40511F2083318342835383772321F07130E4
S1131A5009F05CC01DC080E091E09F938F930E94C9
S1131A603E260E94CF0C8091DE019091DF01019609
S1131A709093DF018093DE018FEF9FEF9093BB0182
S1131A808093BA011092E10180E00E94E10135C027
S1131A902091E6013091E7014091E8015091E9017C
S1131AA02F3F8FEF380783E0480780E0580760F442
S1131AB0FBE0CF2ED12CE12CF12C07E312E060E007
S1131AC084E00E94510B22C010920B0210920A0271
S1131AD0CC24DD24760100E010E020E030E040E09A
S1131AE050E060E082E00E94510B84E091E09F931B
S1131AF08F930E943E260E94CF0C0F900F9006C039
S1131B0021963996C330D10509F07ACF83E00E943B
S1131B10E101DF91CF911F910F91FF90EF90DF9042
S1131B20CF90BF90AF9008951F93182F8091FF011D
S1131B30882349F48091FE018D3728F081E0809359
S1131B40FF010E94840C8FB7F894282F33279091BB
S1131B50FE019A3FA8F48091FD01E82FFF27EE5A79
S1131B60FD4F10838F5F8093FD018A3F11F4109223
S1131B70FD019F5F9093FE012FBF80E090E003C0C2
S1131B802FBF8FEF9FEF1F910895CF92DF92EF92B7
S1131B90FF920F931F9380930C026093E904C90191
S1131BA0880F892F881F990B91958093EA04220F3F
S1131BB0812F9927282B2093EB040093EC04D092D7
S1131BC05E03C0925D03F0920204E092010440932C
S1131BD0C0048BE10E94E1011F910F91FF90EF90EF
S1131BE0DF90CF900895CF92DF92EF92FF920F9300
S1131BF01F93CF93DF938C01F62E6A01E22E8FB7E9
S1131C00F894C82FDD2760E080E00E94B2018823A9
S1131C1021F0CFBF80E090E01EC0CFBF0F0D111D9B
S1131C20802F80680E940802F82E16950795802F51
S1131C30807C0E9408020E2D0AC0EE2DFF27E01BB7
S1131C40F109EC0DFD1D80810E9408020150002362
S1131C50A1F78F2D9927DF91CF911F910F91FF90BD
S1131C60EF90DF90CF900895CF93DF93CDB7DEB799
S1131C7024970FB6F894DEBF0FBECDBF8FB7F8948C
S1131C8099272091E6033091E7032983232F3327F3
S1131C902A832091FB043091FC042B83232F3327C8
S1131CA02C838FBF24E0AE014F5F5F4F60E088E676
S1131CB091E00E94F30D24960FB6F894DEBF0FBE98
S1131CC0CDBFDF91CF9108951F93CF93DF93182F4A
S1131CD08FB7F894C82FDD2760E080E00E94B2013E
S1131CE0882321F0CFBF80E090E005C0CFBF812FD3
S1131CF00E9408029927DF91CF911F910895EF92D6
S1131D00FF920F931F93CF93DF93182F7B01042F20
S1131D108FB7F894C82FDD2760E080E00E94B201FD
S1131D20882321F0CFBF80E090E014C0CFBF1064BF
S1131D30812F99279093F1038093F0030E94080266
S1131D40182F402F5527B70180E090E00E948202AF
S1131D50812F9927DF91CF911F910F91FF90EF90E1
S1131D600895C098609111027091120241E08FE3CE
S1131D700E947F0E089582E090E090935C0380932C
S1131D805B0381E080934D0320E030E08091C40147
S1131D90843011F421E030E0232B29F484E00E9404
S1131DA0140B882319F40E94B10E089584E00E9454
S1131DB0F50B08951F920F920FB60F9211242F93D3
S1131DC03F934F935F936F937F938F939F93AF93BF
S1131DD0BF93EF93FF9380915B0390915C03019712
S1131DE019F40E94BB0E05C0809120058F5F80937B
S1131DF02005FF91EF91BF91AF919F918F917F91BA
S1131E006F915F914F913F912F910F900FBE0F9063
S1131E101F9018951F9380910402882309F046C0EF
S1131E201091C4011F3F09F041C060E00E94B2015B
S1131E308823E1F181E080933102809110028823AC
S1131E40C1F11092310285E090E041C0923049F531
S1131E50C09A8091C50190E08F3F09F491E09923E5
S1131E60D9F48F3F19F42FEF30E00DC0282F33271A
S1131E70F901EF5DFA4F80818093C5018F3F11F422
S1131E808093C60110832093050481E080930502AA
S1131E9085E10E94E10105C01093C701109205027B
S1131EA011C080910502882369F00FC081E090E0A1
S1131EB00EC08091C70190910502882339F29230B7
S1131EC021F0EFCF80E00E94C30180E090E01F91F9
S1131ED008951F93182F81E090E090930702809358
S1131EE00602109210020E940A0F8FB7F8949927E5
S1131EF0109300028FBF8FE00E94E1011F910895AB
S1131F001F93CF93DF939FB7F894C92FDD271C2F1E
S1131F109091C401981721F0CFBF81E090E03AC0BE
S1131F208FEF8093C401309104023323F1F48FB70F
S1131F30F89499271092A5038FBF0E940A0FCFBF70
S1131F4011C02093C40181E090E002C0880F991F62
S1131F504A95E2F7809538233093040283E10E9486
S1131F60E1011FBF80E090E015C080E065E0E32F51
S1131F70FF270E944529292F492F5527CF01042ED9
S1131F8002C0959587950A94E2F780FDDACF822FF7
S1131F908F5FEFCFDF91CF911F9108951F93CF9360
S1131FA0DF938FB7F894C82FDD271C2F80915B0334
S1131FB090915C03892B29F484E00E94800FCFBFA9
S1131FC01EC010924D0380912005882311F0B7990B
S1131FD004C00E9908C0882319F08150809320050D
S1131FE00E94BB0E0BC081E090E090935C03809351
S1131FF05B031092200584E00E94800F1FBFDF91D5
S1132000CF911F9108950E94B504C09AC09888E0AA
S11320100E94640E88E00E94640EC09A84E00E94CC
S1132020800F0E94CE0F0895FF920F931F93CF93BA
S1132030DF93F82E8B018FB7F894C82FDD2760E06B
S113204080E00E94B201882321F0CFBF80E090E0BD
S11320500CC0CFBF8F2D0E940802812F99270E94A8
S11320600802802F0E9408029927DF91CF911F91C7
S11320700F91FF9008951F931FB7F89480915A030E
S1132080882319F460E070E009C060E08091E40402
S1132090882309F461E081E0682777278091980319
S11320A0882319F480E090E00AC090E08091A303B3
S11320B0882309F491E081E09827892F9927762FC6
S11320C06627770F770F770FE4E0880F991FEA955B
S11320D0E1F7826E9262682B792B81E10E941410E1
S11320E0812F99278FBF1F9108958FB7F89499274F
S11320F06091D7048FBF85E0689FB0011124625DB1
S11321007E4F706488E10E9414100895EF92FF924C
S11321101F93CF93DF93E090A103F090A203F70104
S113212082A59927182F882309F41FE1C09880916C
S1132130E604811749F0612F77276F717070606E24
S1132140706885E10E9414101093E604F701108171
S11321508FB7F894C82FDD2760E080E00E94B201B9
S1132160882311F0CFBF12C0CFBF8EE390E09093CD
S1132170F1038093F0038EE30E9408021150412F73
S1132180552760E070E0C7010E948202DF91CF9181
S11321901F91FF90EF900895FF920F931F93CF9399
S11321A0DF93EA01F22E8B876E83672F77276F8385
S11321B02FB7F89433278091E6039091E7032FBF5C
S11321C08C83892F99278D832FB7F8943327809197
S11321D0C8019091C9012FBF8887892F99278987C2
S11321E061E082E00E949801882319F085E090E084
S11321F06CC0809113028F5F8093130281508B8394
S11322008FE38A878FB7F894082F112762E081E063
S11322100E94B201882329F40FBF0E94A30281E027
S113222053C08FB7F894992724E02093A6038FBF57
S1132230D0931D05C0931C050FBF8DE0F80EFE0161
S1132240F1928981992780729070898311828981A2
S11322509927816498688983892F992781831CA68B
S113226018A619A61DA619AA18AA1FA680E88EA743
S113227061E06093E50440911C0550911D058FB702
S1132280F894282F33278091060290910702883012
S1132290910511F0019711F02FBF15C082E090E075
S11322A090930702809306026093A9035093A203BC
S11322B04093A1031092EF032FBF0E944D0C88237B
S11322C011F40E94861080E09927DF91CF911F912D
S11322D00F91FF9008951F93CF93DF93182FEB0175
S11322E0E82FFF27EE0FFF1FE45BFD4F11821082E2
S11322F01092CF01E0914C02F0914D02309721F001
S113230080914C0380FF11C081E08093CF0103C012
S11323108EE10E94E1011123D1F4C15BD34011F499
S11323201092E0010E948F0112C020812D503327AA
S113233067817727762F662786819927682B792BE3
S1132340AF0183850E94CC10882329F3E1CFDF916C
S1132350CF911F910895BF92CF92DF92EF92FF9297
S11323600F931F93B82E80917904882339F085E068
S113237080930C028BE10E94E1011DC08B2D9927F3
S1132380FC01EE0FFF1FE80FF91FED5AFC4F2081EF
S11323903181BB2011F461E601C060E641E0C42E46
S11323A0D12CEE24FF2400E010E040E08AE00E94FB
S11323B0C50DB09204041F910F91FF90EF90DF9030
S11323C0CF90BF900895CF92DF92EF92FF920F9338
S11323D01F9380917904882339F085E080930C025F
S11323E08BE10E94E10129C04091AF04842F992719
S11323F0FC01EE0FFF1FE80FF91FDF01AD5ABC4FC0
S11324002D913C91EB5AFC4F808182FF06C04423FE
S113241011F068E807C069E805C0442311F063E8D7
S113242001C066E871E0C72ED12CEE24FF2400E041
S113243010E040E089E00E94C50D1F910F91FF90CC
S1132440EF90DF90CF9008951F93CF93DF938FB7D2
S1132450F894C82FDD271C2F809106029091070263
S11324600897C9F489E00E94640E83E00E94800FFB
S1132470C09A81E090E090930702809306028FB7A0
S1132480F894992723E0209300028FBF8FE00E94E5
S1132490E101CFBF30C0C0988091A903882311F017
S11324A085E001C084E00E94640E83FD09C080E0E1
S11324B00E94640E83FF04C085E090E020E003C026
S11324C083E090E021E09093070280930602C09A93
S11324D01FBF222341F01092EF0383E00E94800F7C
S11324E00E94500508C00E948F0320E431E040E0C0
S11324F050E00E944C04DF91CF911F91089578948D
S11325001F920F920FB60F9211242F923F924F9267
S11325105F926F927F928F929F92AF92BF92CF926F
S1132520DF92EF92FF920F931F932F933F934F935A
S11325305F936F937F938F939F93AF93BF93EF9327
S1132540FF93CF93DF93CDB7DEB72F97F894DEBF19
S11325507894CDBF2CB53DB53F872E8780E286BFEA
S11325600E948F039B01AC018E859F857C0100270F
S11325701127DA01C901A070B0708E159F05A0075C
S1132580B10798F4212C312C7FEF472E7FEF572E83
S1132590220E331E441E551E80E090E0AFEFBFEFC5
S11325A0282239224A225B220AC0212C312C6FEFC7
S11325B0462E6FEF562E22223322442255222E28F5
S11325C03F28402A512A8FB7F894898380910602C4
S11325D0909107028530910521F0069709F0DBC040
S11325E0BAC086E090E0909307028093060291E0DF
S11325F09093000480E00E947A052091A103309119
S1132600A203F90121AABB27A52D942D832D8A832A
S11326109B83AC83BD8380ABC201AA27BB278E8377
S11326209F83A887B98787A7852D9927AA27BB27C2
S11326308A879B87AC87BD8786A7E091A103F09129
S1132640A20385A5882309F464C080813C96855043
S1132650E80FF11D94EF892E9FEF992E8E0E9F1E89
S1132660D4012C9185EF682E8FEF782E6E0E7F1E8D
S1132670D301EC90BF016A507040DB018C91399713
S1132680A0809927AA27BB27BA2FA92F982F88277C
S1132690332744275527522F442733272227FF2443
S11326A0002711278701FF24EE242E293F29402BE0
S11326B0512BBB24CC24DD242A293B294C295D2918
S11326C0822B932BA42BB52B82199309A409B5094A
S11326D08083292F3A2F4B2F5527FB0120839D01FF
S11326E044275527F30120838B2F9927AA27BB273B
S11326F0F4018083C098E091A103F091A20360816A
S11327006550772724E0A40180E090E00E94F30D57
S1132710C09AE091A103F091A203818185FF03C0D7
S1132720F1E0F093100283E00E94800F87B78F7E60
S113273087BFA091A103B091A203FD01818187709D
S1132740813039F421AA2A8120AB3E8137A78A85BA
S113275086A784996DC01092000481E00E947A05D6
S1132760E091A103F091A203818185FF0FC087E06E
S113277090E090930702809306020E948F0320E06A
S113278031E040E050E00E944C0403C080E00E942D
S1132790690F849B4DC080910802882349F511E09C
S11327A0109300040E947A0580910304883098F401
S11327B0E091EE03E80FFF27E770F070EE0FFF1FC4
S11327C0EE0FFF1FEE5DFA4F208231824282538268
S11327D08F5F8093030410930802AE85BF85B09386
S11327E0C204A093C104849B03C0B981BFBF22C0AB
S11327F01092000481E00E947A05109208028091F0
S1132800C1049091C204EE85FF85E81BF90B3A9749
S113281078F480910304882319F081508093030491
S11328208091A1039091A203009711F00E94C1042A
S1132830F981FFBF2F96F894DEBFCDBFDF91CF9112
S1132840FF91EF91BF91AF919F918F917F916F9184
S11328505F914F913F912F911F910F91FF90EF90B6
S1132860DF90CF90BF90AF909F908F907F906F90AC
S11328705F904F903F902F900F900FBE0F901F903E
S1132880189578941F920F920FB60F9211241F93EC
S11328902F933F934F935F936F937F938F939F9364
S11328A0AF93BF93EF93FF9387B78F7E87BF7894DF
S11328B01FB7F8948091D8049091D904A091DA04B8
S11328C0B091DB040097A105B10509F051C08091D6
S11328D00602909107028530910561F186309105D9
S11328E030F48330910549F0049781F51AC087309C
S11328F09105F1F0089751F514C0869B0FC084E050
S113290090E090930702809306020E948F0327E0D1
S113291030E040E050E00E944C0418C00E94500592
S113292015C00E944D0C882389F40E9424120EC005
S113293080E00AC089E00E94640E81E00E947A056A
S113294083E00E94800F87E00E94690F809101025A
S113295090910202019771F482E090E09093020258
S113296080930102DE98DE9A80E00E94F50B02C09B
S11329700E94AC03812F99278FBFFF91EF91BF91E4
S1132980AF919F918F917F916F915F914F913F9103
S11329902F911F910F900FBE0F901F901895EF92DB
S11329A0FF920F931F93CF93DF938B018091F003DA
S11329B09091F10386FF2AC18F7B8F3309F078C190
S11329C0C0911102D0911202588150933402809127
S11329D05B0390915C038330910509F443C0843018
S11329E0910509F48AC0029709F009C183E090E0D7
S11329F090935C0380935B0340914E02852F99274B
S1132A000196242F3327281739074CF1B79906C0AC
S1132A100E9904C0451B415040934E02409134022C
S1132A204A32E8F44423A1F0BE016F5F7F4F48307F
S1132A3018F047E050E007C084E090E090935C0316
S1132A4080935B03552780E090E00E94820230C1AE
S1132A5010924D03C09A84E00E94800FCDC00E9462
S1132A60031026C184E090E090935C0380935B03A1
S1132A7080919803882309F439C08091A3038823A3
S1132A80A9F5898185FF32C08F814E812FB7F894D3
S1132A9033276091FB047091FC042FBF9927982F72
S1132AA088275527842B952B8617970759F08F81F4
S1132AB02E819927982F88273327822B932B8F5F7A
S1132AC09F4FA1F489818770813081F4C09AC098A6
S1132AD08AE00E94640EC09AC09840913402475024
S1132AE02896BE018FE30E947F0EE2C0409134021B
S1132AF0475055272896BE01A6CFC09A809120053D
S1132B00882319F484E00E94800F809103048823B1
S1132B10A1F1809134028B30B0F1E091EE03FF27F4
S1132B20EE0FFF1FEE0FFF1FEE5DFA4F2081318184
S1132B3042815381E0911102F091120221ABBB2733
S1132B40A52F942F832F80ABCA01AA27BB2787A761
S1132B50252F33274427552726A78091EE0399274D
S1132B60019668E070E00E9465298093EE038091ED
S1132B70030481508093030406C080911102909154
S1132B8012020E94C10480913402FE01E80FF11D7B
S1132B90808187FF31C0012B79F169816770E091F1
S1132BA01102F0911202623019F5A091A103B091C3
S1132BB0A203109709F180910602909107020797EA
S1132BC0D9F4ED019B8183819817B1F487B78F7E87
S1132BD087BF908181E08CA7E90FF11D8291319626
S1132BE088A780818F7789A780E00E94690F04C03D
S1132BF0613011F486E12AC00E94CE0F59C01092B0
S1132C004D03C09A84E00E94800F52C08E3309F0B5
S1132C104FC0C09A80910602909107020897C9F4A8
S1132C20C09889E00E94640EC09A83E00E94800FDD
S1132C3081E090E090930702809306028FB7F894A6
S1132C40992723E0209300028FBF8FE00E94E101C7
S1132C502FC08091A903882349F484E090E09093E5
S1132C600702809306020E94241222C083E00E947D
S1132C70800F83E090E090930702809306020E9405
S1132C80D004DC01CB0166E371E00E945129EBE042
S1132C90EE2EF12CE80EF91EF0929E03E0929D03B5
S1132CA00E948F0300271127A80197010E944C045A
S1132CB0DF91CF911F910F91FF90EF9008951F9294
S1132CC00F920FB60F9211242F933F934F935F935C
S1132CD06F937F938F939F93AF93BF93EF93FF93E0
S1132CE02FB1E0914A02F0914B02309739F0809174
S1132CF0500390915103E80FF91F208380915003F2
S1132D00909151030196909351038093500380E076
S1132D100E94C90140917704509178048091500336
S1132D20909151038417950718F40E9414021CC053
S1132D3060914A0270914B028091AC039091AD0373
S1132D4010924B0210924A021092AD031092AC03FF
S1132D501092780410927704109251031092500349
S1132D602FB120E00E94CF14FF91EF91BF91AF915A
S1132D709F918F917F916F915F914F913F912F918F
S1132D800F900FBE0F901F90189561E081E00E9494
S1132D9098018823E9F48FB7F894282F332780917A
S1132DA0010290910202892B11F02FBF20C081E013
S1132DB090E090930202809301022FBFDD9A0E945B
S1132DC08F0324E130E040E050E00E944C040FC047
S1132DD062E081E00E94B201882319F089E090E06A
S1132DE0089561E081E00E94B201882319F080E037
S1132DF090E0089585E090E00895EF92FF920F939C
S1132E001F93CF93DF93F82E1091CB01C12FDD27B1
S1132E108BE090E0C89FF001C99FF00DD89FF00DA2
S1132E201124EB54FB4F00814FEF4093CB011082F0
S1132E301123A1F58FB7F894E82E80910D02833009
S1132E4061F58091CE01882341F58091CC0190E019
S1132E508F3F09F491E09923D9F48F3F19F42FEFB0
S1132E6030E00DC0282F3327F901E75BFD4F808147
S1132E708093CC018F3F11F44093CD014083209384
S1132E80AE0381E080930D028CE10E94E10105C054
S1132E9081E08093CE0110920D02EFBE023009F45E
S1132EA07EC0043021F0013009F088C073C08BE08B
S1132EB090E0C89FF001C99FF00DD89FF00D112438
S1132EC0EB54FB4FA181B28163817481858196812A
S1132ED0112309F073C0FF2091F5FD012381448182
S1132EE09F938F937F936F93858199279F938F935C
S1132EF08185992787FD90959F938F938085992746
S1132F0087FD90959F938F933327322F2227552740
S1132F10242B352B3F932F938C9199279F938F9339
S1132F2082E191E09F938F930E943E268DB79EB7D6
S1132F3040960FB6F8949EBF0FBE8DBF08C088E2BE
S1132F4091E09F938F930E943E260F900F900E94D2
S1132F50CF0C8091E6019091E701A091E801B09136
S1132F60E9010B96A11DB11D8093E6019093E70141
S1132F70A093E801B093E9010E946803AB01BC018E
S1132F80E1E0EE2E0AE010E020E030E081E00E9473
S1132F90490314C0112391F48DE391E007C0112378
S1132FA069F4DA980E94C51681E491E09F938F93A7
S1132FB00E943E260E94CF0C0F900F90DF91CF917C
S1132FC01F910F91FF90EF900895282F8091740422
S1132FD0409374048330A9F0843028F4813089F05C
S1132FE08230F1F506C0843009F186508230C0F594
S1132FF013C08091CB018F3F99F1222389F4CB0137
S113300008C08091CB018F3F59F1222349F480E01D
S113301090E00E94CA1908958091CB018F3F01F17D
S113302060E070E0822F0E94FD1608958091CB012C
S11330308F3FB1F080910A0290910B0234E080300E
S1133040930748F4019690930B0280930A0287E158
S11330500E94E101089560E070E0822F0E94FD1655
S11330600895CF92DF92EF92FF920F931F932091D6
S11330709F033091A0036091AF04462F5527FA01B6
S1133080EE0FFF1FE40FF51FDF01AD5ABC4F8D910A
S11330909C9111972817390709F0D3C090917404B3
S11330A0953009F44DC0963080F4923009F493C001
S11330B0933020F4913009F0F7C072C0933009F4D2
S11330C0A5C0943009F0F0C007C0983008F447C098
S11330D09A3008F0E9C04EC080910E0290910F0220
S11330E081309105E1F08130910520F0029709F0DB
S11330F0DBC010C080917904882309F0BBC001E0D3
S1133100C02ED12CEE24FF2400E010E040E061E862
S11331108BE0C8C0EB5AFC4F808184608083FA0145
S1133120EE0FFF1FE40FF51FEB5AFC4F8081826006
S1133130808340E060E070E080E00E94E517B4C066
S1133140EB5AFC4F808181FF9CC080910E029091CC
S11331500F028D939C9380818D7F808319C0EB5ADD
S1133160FC4F808181FF8DC08695869586958370FE
S113317059F08AC0FA01EE0FFF1FE40FF51FEB5A56
S1133180FC4F808181FF7DC0983011F0963011F49E
S113319088E174C010927404892F0E945B1984C062
S11331A0EB5AFC4F808180FD65C0C0907504D090BF
S11331B07604E0904205F090430500910E021091D0
S11331C00F02662311F064ED01C066ED20E030E0EB
S11331D042E082E067C0EB5AFC4F808180FD4AC028
S11331E0E0904205F0904305C0907504D0907604B9
S11331F000910E0210910F02662311F064ED01C0DC
S113320066ED20E030E042E083E04CC0EB5AFC4F36
S1133210808180FD2FC0C0907504D0907604E0902A
S11332204205F090430500910E0210910F026623AF
S113323011F064E801C067E820E030E040E084E099
S113324031C0EB5AFC4F808181FF1BC08695869567
S113325086958370C9F480917404843019F42D9395
S11332603C930DCF80917904882321F4662381F067
S113327063E50FC085E080930C028BE10E94E101BD
S113328013C00E94E31110C0862F0E94AB110CC022
S113329065E5A1E0CA2ED12CEE24FF2400E010E065
S11332A040E088E00E94C50D1F910F91FF90EF90C0
S11332B0DF90CF900895809374048091550381FD2D
S11332C003C01092AF040CC08091580381FD04C068
S11332D081E08093AF0404C088E10E94E101089575
S11332E08091AF049927FC01EE0FFF1FE80FF91F2F
S11332F0EB5AFC4F8081877E80830E9431180895A9
S11333000F931F93809374041093760400937504B1
S113331030934305209342057093A00360939F0369
S113332050930F0240930E028091530390915403E3
S11333306817790719F41092AF0413C080915603EB
S1133340909157036817790721F481E08093AF04C3
S113335008C090E08091AF04882309F491E0909331
S1133360AF046050784068F481E04830580748F46E
S113337081E00930180728F4400F511F495051408B
S113338020F089E10E94E10102C00E9431181F91DE
S11333900F9108952F923F924F925F926F927F9276
S11333A08F929F92AF92BF92CF92DF92EF92FF9251
S11333B00F931F93CF93DF931C014091CB01242FD4
S11333C033276090DD047090DE048090DF049090D9
S11333D0E0048BE090E0289FE001299FD00D389F06
S11333E0D00D1124CB54DB4FAF80B884C984DA8468
S11333F0A618B708C808D90849805A80A114B1048E
S1133400C104D10429F4B10180E00E94FD164FC02B
S1133410EB80FC800D811E81E60CF71C081D191D34
S11334209927812F702F6F2D842F0E946704BC0170
S1133430A7015070E12C31E0F32EE41AF50AC7011C
S1133440AA27BB27A816B906CA06DB0608F4750125
S11334502881243051F0253071F0213089F4460C54
S1133460571C8701920183E009C0460C571C870151
S1133470920181E003C08701910182E00E948019DA
S11334809701442755278091DD049091DE04A09193
S1133490DF04B091E004820F931FA41FB51F809333
S11334A0DD049093DE04A093DF04B093E004DF9185
S11334B0CF911F910F91FF90EF90DF90CF90BF902D
S11334C0AF909F908F907F906F905F904F903F90C0
S11334D02F9008958F929F92AF92BF92CF92DF92D6
S11334E0EF92FF920F931F93CF93DF93CDB7DEB785
S11334F0C050D1400FB6F894DEBF0FBECDBFE82F49
S1133500FF27EF31F10510F00C947D22EA5BFF4FA9
S1133510EE0FFF1F0590F491E02D09948091E704CC
S1133520882311F40C947D2290E011E01BC180915A
S11335304C03882311F40C947D2240E011E00C9498
S11335404B228091E001882311F00C947D22EDEB55
S1133550F3E08091E101882319F48091B70101C05F
S11335608AEA8093BD038091DE019091DF0180930C
S1133570C103892F992783838091B9018583803280
S113358008F08FE18093DB032091BA013091BB01F5
S113359041EB53E02093B703632F77276093B8037D
S11335A086E08093BC0380914C0290914D02892B5C
S11335B011F00C947D2250934D0240934C0288E10B
S11335C08093B1038091CF018823D9F0762F6627A9
S11335D0822F9927682B792B1092CF012BE086E05C
S11335E00E94CC109927282F882359F081E08093DA
S11335F0CF0110924D0210924C02222311F00C9430
S11336007D2281E08093E0010C947D2264E571E0E9
S1133610CE0101960E943726882499245401C12C96
S113362091E0D92EE12CF12C8E010F5F1F4FA501E3
S1133630940160E081E00E94510B8C0C9D1CAE1C37
S1133640BF1C00E0801600E0900604E0A00600E045
S1133650B00611F40C947D22E2CF80912F028823CE
S113366061F52091D3043091D4044091D504509154
S1133670D604EFB7F894FF276091FB037091FC0325
S11336808091FD039091FE03E090B004F090B104AA
S11336900091B2041091B3046E0D7F1D801F911F21
S11336A0EFBF2093D3043093D4044093D5045093B4
S11336B0D60410922F020E94A4060E9468033FC001
S11336C00E9468035B016C018FB7F89499271092EC
S11336D07A048FBF2FEF3FEF4FEF5FE760E0E4E145
S11336E0F2E0808581FF1CC080819181A281B38139
S11336F086017501E81AF90A0A0B1B0BD801C701E8
S1133700E480F58006811781E81AF90A0A0B1B0B7D
S1133710E216F306040715071CF4A801970161E0FB
S1133720399602E0EF32F007E1F6662309F4E5C6C4
S113373012161306140615062CF0C601B5010E94D4
S1133740F00CDBC62093D3043093D4044093D50407
S11337505093D60481E080932F02C601B5010E94E4
S1133760A406CBC62091E704812F8223C1F0E92F60
S1133770FF27EE0FFF1FE95BFD4F4081518111824E
S11337801082812F809528232093E704992339F40C
S113379063E0CA010E94BF0C110F91E0E3CF9F5F69
S11337A0983008F0AAC6110FDDCF1091BC01E12FAB
S11337B0FF27EE0FFF1FE95BFD4FE080F1801182D0
S11337C010820E948D05112309F097C661E0C7019C
S11337D015C18FB7F8941092A4032091DC0440E043
S11337E0283009F441E030E0293009F431E0442381
S11337F011F4332351F01092DC04E091E104FF272B
S1133800EE0FFF1FE950FC4F108299278FBF44230E
S113381011F4332319F18091F2038F5F8093F20343
S11338208091E8048334A1F49FB7F8942091F304C1
S11338308091F204821741F0822F8F5F8093F3040A
S1133840863010F01092F304892F99278FBF0AC095
S1133850A0E0442309F4A1E071E006C0222311F0A2
S113386010E069C0A0E070E08FB7F8949927209128
S1133870EA018FBF222341F08FB7F89499272AE0F9
S11338802093DC048FBF43C08FB7F89499276091CD
S1133890F7034091F9038FBF8FB7F894282F33278C
S11338A050E09091F2048091F304981709F451E0E8
S11338B02FBF552349F5662339F55FB7F89482E0A5
S11338C08093F7038FB7F894282F332740E0909123
S11338D0F2048091F304981709F441E02FBF4423C4
S11338E011F080E006C0E091F304FF27EE50FB4F97
S11338F082818093F803852F99278FBF83E4809377
S1133900E8041092E1040BC04150423010F010E082
S113391007C085E48093E80481E08093E10411E02A
S1133920772349F08FB7F8949927A093F3018FBFB9
S11339308AE00E94E1018091DC048A3019F40E943B
S1133940B905DBC5112309F4D8C52FB7F89433277B
S11339501092E9031092E8031092EC0381E0809343
S1133960DC042FBF0E941106882309F4C6C58FB753
S1133970F894992729E02093DC048FBF0E94AA02BF
S1133980BCC55698579810924F0210929703539AB9
S1133990549A579AB2C589E060C053985498ADC5FB
S11339A01092F0011092EF018FB7F8949927F090DC
S11339B0F3018FBF8091F401882311F0B3E0FB2E53
S11339C02091ED013091EE018091F501882309F0F9
S11339D094C58091BC01882309F08FC500914702EA
S11339E0109148020217130709F087C51092480284
S11339F0109247020E948D056F2DC8010E94BF0CD2
S1133A007CC58FB7F89499272091F8013091F9017A
S1133A10409159038FBF8FB7F894E42FFF27EE0F1F
S1133A20FF1FE254FE4F318320832091EB01442396
S1133A3011F02B7F01C02D7F2093EB011092F60132
S1133A409927F5C34CE16FE573E08FEF9FEF0E9478
S1133A500803882309F451C58CE00E94E1014DC597
S1133A600FB7F894112781E00E947A05E1E0EE2E69
S1133A70F12CF0920702E0920602109208021092D2
S1133A8010021092E6040FBF0FB7F89411270E949A
S1133A90B504F0925C03E0925B0310924D0389B786
S1133AA08F7B89BF80E488BF8AB780628ABF8AB768
S1133AB08F7E8ABF89B7806489BF0FBF8FB7F894A0
S1133AC0082F11278091010290910202049719F4A2
S1133AD083E00E94640E0FBF0FB7F8941127C09AB9
S1133AE080E00E94800F0FBF8FB7F894992722E0DF
S1133AF02093A6038FBF0E946803AB01BC01EE2490
S1133B000AEF10E020E030E080E00E94490385E500
S1133B1091E008C08FB7F89499271092A6038FBF3D
S1133B2089E591E09F938F930E943E260E94CF0CDB
S1133B300F900F90E2C48FB7F8949927F090000289
S1133B408FBF63E081E00E94B201882359F10FB76F
S1133B50F8941127109207021092060287B78F7EFD
S1133B6087BF87B78F7D87BF83E00E94800FC09A8D
S1133B700FBF0FB7F894112710925C0310925B03E8
S1133B800E94B504C09A89B78F7B89BF0FBF10927A
S1133B90020210920102DE98DD98DE9A8EE00E9405
S1133BA0E10107C08FB7F894992722E02093A60378
S1133BB08FBF00911C0510911D050E94A3028091E6
S1133BC0CF01882309F099C460914C0270914D0291
S1133BD06017710709F091C44F2D8DC48FB7F89405
S1133BE0282F3327122F80915203882319F581E05F
S1133BF0809352038091010290910202049721F470
S1133C0081E00E94F50B03C081E10E94E1011FBF26
S1133C1074C48FB7F8949927109252038FBF8DE51F
S1133C2091E080CF8FB7F894282F33278091030237
S1133C30882311F02FBF61C42FBF80B3992776E08A
S1133C40969587957A95E1F7182F11709091300227
S1133C508091E5038917D9F01917C9F484E090E03D
S1133C6090930202809301028FB7F894992721E080
S1133C70209303028FBF60E070E08DE10E94141076
S1133C800E94340EC09AC0988DE00E94E101109306
S1133C90E50382E1E2CE8FB7F89499271091C4012D
S1133CA08FBF123009F460C0133030F4112359F07F
S1133CB0113009F022C443C0133009F46FC014302A
S1133CC009F01BC49BC0C0988FB7F894082F112724
S1133CD08091010290910202029779F583E090E0CD
S1133CE0909302028093010268E170E08DE10E94EA
S1133CF0141081E0809330021092030280B399275C
S1133D0066E0969587956A95E1F781709070809347
S1133D10E50382E10E94E10181E00E94640E6FE705
S1133D2072E08CE10E9414100E9475100E943B10F6
S1133D3066E57AE287E10E9414100FBFDEC3C098E3
S1133D4086E00E94640E0E9475100E943B100E943F
S1133D50340EC09AC09883E00E94640EC09A81E039
S1133D600E94800F81E179CEC0988FB7F894082F14
S1133D70112760E080E00E94B201882311F00FBF98
S1133D800AC00FBF83E50E94080280E00E94080277
S1133D9080E00E940802C09A82E02DC08FB7F89498
S1133DA09927209106028FBF243039F0283041F042
S1133DB0223001F50E948610A0C30E9424129DC3E4
S1133DC0C09889E00E94640EC09A83E00E94800F2C
S1133DD08FB7F894992721E030E0309307022093BD
S1133DE006028FBF8FB7F8949927109300028FBFF4
S1133DF08FE033CE83E00E94800F7FC30E94B10E18
S1133E007CC30FB7F894112740917704509178043C
S1133E1060914A0270914B028091AC039091AD0382
S1133E2010924B0210924A021092AD031092AC030E
S1133E301092780410927704109251031092500358
S1133E4020E00E94CF1479CF2FB7F89433278091C4
S1133E5005048093C70182E0809305022FBF8091FF
S1133E60C701882309F049C3B89AC09883E1F5CD06
S1133E70A0911102B09112021C919D01210F311DDC
S1133E80F9018081881F8827881FFD0183A7F90114
S1133E9080818F77FD0181A721503040F901808115
S1133EA0FD0180A7E0911102F09112028FB7F894FE
S1133EB0992720915A038FBF2223F9F087814681E5
S1133EC02FB7F89433276091FB047091FC042FBF43
S1133ED09927982F88275527842B952B8617970782
S1133EE061F0878126819927982F88273327822B91
S1133EF0932B8F5F9F4F09F01BC11D3008F418C12D
S1133F00A0901102B0901202F50182858F3309F05E
S1133F100BC1818520859927582F44273327422BAD
S1133F20532B63818FEF80931F058FB7F894782FFD
S1133F3020E030E0E5ECF4E080819181841795077E
S1133F4031F48281861709F4DDC020931F052F5FA9
S1133F503F4F33962430310579F77FBF90911F0589
S1133F603FB7F8949F3F21F080910902891799F493
S1133F7020910902822F9927FC01EE0FFF1FE80F01
S1133F80F91FEB53FB4F5183408362832F5F2370F0
S1133F90209309020CC0892F9927FC01EE0FFF1F03
S1133FA0E80FF91FEB53FB4F518340836283832F48
S1133FB099278FBFF50183A5882309F4B5C08781AC
S1133FC046812FB7F89433276091C8017091C901D5
S1133FD02FBF9927982F88275527842B952B861731
S1133FE0970761F0878126819927982F882733279F
S1133FF0822B932B8F5F9F4F09F096C0F501838529
S1134000863009F091C08FB7F89499272BB331E02B
S113401023272BBB8FBF183109F086C08501045FAD
S11340201F4F648577277093BB016093BA0127857E
S11340304089818999279F938F938589992787FD43
S113404090959F938F938489992787FD90959F934B
S11340508F933327322F22275527242B352B3F9339
S11340602F937F936F9381E691E09F938F930E94A8
S11340703E268091E2019091E301A091E401B09188
S1134080E501BF93AF939F938F9389E791E09F934B
S11340908F930E943E260E94CF0C2091E201309122
S11340A0E3014091E4015091E5018DB79EB742963A
S11340B00FB6F8949EBF0FBE8DBF253F9FEF390703
S11340C093E0490790E05907F8F47BE0C72ED12C20
S11340D0E12CF12C60E081E00E94510B8091E2011F
S11340E09091E301A091E401B091E5010B96A11D2B
S11340F0B11D8093E2019093E301A093E401B09396
S1134100E5010CC07FBF10C080E991E09F938F93BD
S11341100E943E260E94CF0C0F900F9081E0809366
S1134120E10180E00E94E101B0921202A09211022A
S11341308FB7F894992710924D038FBF0E94CE0F2A
S1134140DCC160910A0270910B028091CB0183C1A2
S113415040E03DC080910C0290915803209155039A
S11341608630C9F5959A95980000000080B3DB9AD3
S11341709E7F909358032E7F2093550310927904C9
S113418090E082FF91E080910404992359F09927EB
S1134190FC01EE0FFF1FE80FF91FEB5AFC4F808163
S11341A0877ED3C09927FC01EE0FFF1FE80FF91F8C
S11341B0EB5AFC4F2081822F8695869586958370D5
S11341C0992702971CF42D7F2083DCC04AE060E02D
S11341D070E081E01FC1DB9A9E7F909358032E7F8D
S11341E02093550310927904CDC080910C02855020
S11341F08230F8F49598DB9887ED0E946D041FB720
S1134200F89484E088BF89B7846089BF959882E078
S113421090E0019701960197E1F7829B06C089B768
S11342208B7F89BF8AE10E94E101812F99278FBF8B
S113423064C1C0900104D090020480915D03909108
S11342405E03892B09F44BC08091C004082F112709
S11342500C5F1F4F9598DB9860E0AA2449EEE42E8A
S113426044E0F42E31E0B32EA3E0BA1641F4C601C3
S11342700E94A7046C010150104059F52FC0B1E011
S1134280BB1681F4F701A0800150104099F4B0905E
S11342900C02E0900104F090020400915D0310917F
S11342A05E0317C0F2E0BF1649F4D7016C930150C6
S11342B01040A1F00894E11CF11C0BC0B4E0BB1643
S11342C069F40115110551F0F701A1907F01015026
S11342D010408A2D0E946D04682FC6CFDB9A80910E
S11342E00C0210920C028830B9F0893048F4833003
S11342F081F0843009F47DC0823009F0FEC086C0AC
S11343008A3009F442C08A3010F18B3009F0F5C0CC
S113431057C040E0B6017DC081E08093790480916C
S1134320AF049927FC01EE0FFF1FE80FF91FDF010F
S1134330AD5ABC4F80919F039091A0038D939C93A1
S1134340EB5AFC4F808183608B7F80831BC081E0AC
S1134350809379048091AF049927FC01EE0FFF1F2D
S1134360E80FF91FEB5AFC4F90819360892F8695D3
S1134370869586958F5F8370880F880F880F937E4C
S1134380982B90830E943118B8C081E080937904FF
S1134390809104049927FC01EE0FFF1FE80FF91F19
S11343A0EB5AFC4F8081816080838AE090E0019722
S11343B001960197E1F786E080930C028BE14DCBE7
S11343C081E0809379048091AF049927FC01EE0F7A
S11343D0FF1FE80FF91FDF01AD5ABC4F80919F0307
S11343E09091A0038D939C93EB5AFC4F808186603F
S11343F00CC08091AF049927FC01EE0FFF1FE80F5A
S1134400F91FEB5AFC4F8081857E808340E060E099
S113441070E080E00E94E51770C02FB7F89433274E
S11344208091AE038093CE0183E080930D022FBF71
S11344308091CE01882309F060C01092CB01809155
S1134440B504823019F08330B9F412C060910A02C5
S113445070910B0280E00E94670400E010E020E00D
S113446030E040E050E0BC0184E00E94801945C087
S113447087E00E945B1941C08091B6049091B70413
S11344801092DD041092DE041092DF041092E00416
S11344900E94CA1932C090914C03812F8923D9F00C
S11344A0E42FFF27EE0FFF1FE45BFD4F20813181D6
S11344B011821082812F8095982390934C0344237A
S11344C051F4215B334011F41092E0010E948F01FA
S11344D0110F41E0E0CF4F5F483078F4110FDBCF8C
S11344E08091CF01E82FFF27EE0FFF1FE45BFD4F04
S11344F06081718141E00E946B11C050DF4F0FB6A3
S1134500F894DEBF0FBECDBFDF91CF911F910F9105
S1134510FF90EF90DF90CF90BF90AF909F908F90DF
S113452008958091FA048F3FB1F0282F3327F901C1
S1134530E350FB4F80818093FA048F3F11F4809302
S11345401E058FEF80832F3F31F0822F0E946A1A5D
S113455081E090E0089580E090E00895CFEFD0E10D
S1134560DEBFCDBFFFB6F8944FE150E06FEF70E0CF
S11345708DEF94E00E9430268FEF8093FA048093AD
S11345801E0581E08EBD88E080BF83E083BF8CB5CB
S11345909DB54AE72CB53DB52817390708F44150B5
S11345A0442311F0C901F6CF92B782B78917E9F312
S11345B02CB53DB592B782B78917E9F38CB59DB593
S11345C0821B930B4096A5E096958795AA95E1F7F3
S11345D09093F6038093F50313BE83B78EBD8EB517
S11345E080BF12BE1DBC1CBC8FEF86BF86B78093F4
S11345F07C0080B7992787709070892BD1F7D29A65
S1134600D19AD09ADA9AD99AD89A15BA8FEF84BBEC
S1134610D498DC98D39ADB9A95988D9A939A8B9A2E
S113462092988A9889B78B7F89BF80916A0080624B
S113463080936A0080916A00806180936A001DBC47
S11346401CBC87B7846087BF8EB5887F84608EBDAD
S1134650109289001092880080917D00846080937C
S11346607D0080918A00887F826080938A0080E246
S113467085BF0E9491228823E1F78FEF809349023E
S11346801092740481E08093790480E098E0909320
S1134690570380935603909354038093530380915C
S11346A0580390915503827E927E826080935803D2
S11346B0926090935503E5ECF4E08FEF9FEF9183C4
S11346C080831282339624E0E13DF207C1F70E9411
S11346D0D004609313028091B7019091B8010196C0
S11346E0AA27BB278093930390939403A0939503E5
S11346F0B09396038BE794E0909312028093110297
S11347008E98B89A8C988FEF809321051092A50308
S11347101092A6031092A7031092A803B89AD69AEF
S1134720D59A8FB7F89499272091C8013091C9017F
S11347308FBF3093FC042093FB048091CA01992716
S11347409093E7038093E6038FE18093AA0389E0C3
S11347508093D70481E080935A031092E4048093F9
S113476098031092A30380ED91E090934905809300
S1134770480512E006E06091F5037091F60388277E
S11347809927FCE0660F771F881F991FFA95D1F7C8
S113479020E031EE40E050E00E9478292150304082
S11347A029B9832F9927809390001BB90093950012
S11347B01AB8209399008093980010939B0000935B
S11347C09D0010929A0084E490E09093EB03809310
S11347D0EA031092F7031092F9031092DC0410928A
S11347E0EC031092E8041092F2031092E903109281
S11347F0E8031092A4031092E10410924302109271
S113480042021092FF031092B4041092C404109256
S1134810ED0310923302109232021092F3041092BC
S1134820F2041092FF0180B7886080BF8BE083BFE1
S113483086EE81BF87B7826087BF0E9421060E94EF
S113484091228823E1F78F2D99278FBF789487E0F1
S11348500E94E10186EA91E09F938F930E943E2695
S11348600E94CF0CD99810920B0210920A02CC2409
S1134870DD24760100E010E020E030E040E050E08C
S113488060E082E00E94510B0F900F908FB7F89474
S1134890482F552749C087B7992783709070892B73
S11348A019F4E5E0F0E013C080B7992787709070A1
S11348B0892BD1F781B792B7891B8C3030F082B73E
S11348C0853F18F4E3E0F0E002C0E2E0F0E087B7EF
S11348D0887BC1F480917D008B7FA1F46E9912C016
S11348E08AB190919A00892B807C61F48091740044
S11348F082FD08C0379B03C081E090E005C085E0DD
S113490090E002C080E090E025B78E1708F4E82F0D
S1134910FF27E653FD4FC895E02D237E2062E22B4E
S1134920E5BF78948895F8948091FA048F3F09F450
S1134930B2CF282F3327F901E350FB4F80818093B6
S1134940FA048F3F11F480931E058FEF80832F3F6D
S113495009F4A1CF4FBF822F0E946A1A97CFACE20D
S1134960B0E0E5EBF4E20C94B929222E332E442E68
S1134970552E662E772E882E992EFE013196A8E0AC
S11349801192AA95E9F729823A824B825C826D8260
S11349907E828F829886FE013996B8E01192BA958C
S11349A0E9F7A986BA86CB86DC86ED86FE860F8774
S11349B0188B89819A81AB81BC8189A79AA7ABA7FF
S11349C0BCA77C018D018FEF9FEFA0E0B0E0E8224F
S11349D0F9220A231B2389A59AA5ABA5BCA51D0111
S11349E04424552489859A85AB85BC858DA39EA3D3
S11349F0AFA3B8A75C016D018FEF9FEFA0E0B0E01B
S1134A00A822B922CA22DB228DA19EA1AFA1B8A5FA
S1134A103D0188249924C801B701A60195010E948B
S1134A209A2969A37AA38BA39CA3C801B701A40103
S1134A3093010E949A297B018C01C201B101A60154
S1134A4095010E949A295B016C01C201B101A40184
S1134A5093010E949A293B014C01EA0CFB1C0C1D9A
S1134A601D1D89A19AA1ABA1BCA19D014427552775
S1134A702E0D3F1D401F511F2A153B054C055D059A
S1134A8040F480E090E0A1E0B0E0680E791E8A1E58
S1134A909B1ECA01AA27BB27860D971DA81DB91DF9
S1134AA08D8F9E8FAF8FB8A3A9013327222789A1A9
S1134AB09AA1ABA1BCA1A070B070280F391F4A1FE6
S1134AC05B1F298F3A8F4B8F5C8FA98CBA8CCB8C50
S1134AD0DC8CED8CFE8C0F8D18A1FE01719698E094
S1134AE011929A95E9F7ED8AFE8A0F8B188F2D8122
S1134AF03E814F8158856DA17EA18FA198A50E940A
S1134B009A293B014C012D853E854F85588969A51D
S1134B107AA58BA59CA50E949A292D893E894F8947
S1134B20588D260F371F481F591F260D371D481D46
S1134B30591D2D8B3E8B4F8B588F6D887E888F88A7
S1134B40988C2A2D3B2D4C2D5D2D662D772D882D8F
S1134B50992DE2E1AC960C94D529A0E1B0E0E3EB09
S1134B60F5E20C94B929222E332E442E552E662EAE
S1134B70772E882E992E002309F466C088E0FE0162
S1134B80319611928A95E9F729833A834B835C83A2
S1134B906D837E838F829887E0E2E01B1E16CCF53E
S1134BA02D813E814F815885602F772767FD709551
S1134BB0DA01C901062E04C0B695A7959795879585
S1134BC00A94D2F78D879E87AF87B88B04C0220FD3
S1134BD0331F441F551FEA95D2F789819A81AB810F
S1134BE0BC8104C0B695A795979587956A95D2F729
S1134BF0282B392B4A2B5B2B29873A874B875C87D9
S1134C0029843A844B845C846D847E848F84988860
S1134C101BC01D861E861F86188A2E2F332727FD4C
S1134C203095309521953F4F8D819E81AF81B88518
S1134C3004C0B695A795979587952A95D2F7898745
S1134C409A87AB87BC87DCCF222D332D442D552D7D
S1134C50662D772D882D992DE2E160960C94D52947
S1134C60DC0101C06D9341505040E0F70895FB0111
S1134C70DC0101900D920020E1F70895A2E0B0E07C
S1134C80E4E4F6E20C94C929FE013796619171912E
S1134C90FA83E983AF0180914805909149050E9408
S1134CA05526E2E022960C94E529A4E1B0E0EBE578
S1134CB0F6E20C94B929CC24DD2476011C017C8B0A
S1134CC06B8B2A01FC0117821682838181FD03C04C
S1134CD08FEF9FEF8AC2AA24BB2473C2A0FE58C2DE
S1134CE08A8980538A30E8F4FA89F03341F42D85B7
S1134CF0222329F4A3FC03C080E091E06FC08AE082
S1134D00ED85E802C0011124FA89F80FF053FD87FC
S1134D10F7FF02C02FE72D87A3FC4DC23D853E87D8
S1134D204AC2C50188709070A3FE05C0ED85EE23CC
S1134D3011F4F1E0FD872A89283624F525360CF094
S1134D405BC0233509F480C024358CF42B32C1F1C7
S1134D502C3234F42032C1F1233209F00EC23CC0AB
S1134D603A893D32B1F13E3209F007C23AC08A892C
S1134D70833609F449C084360CF081C0883509F0C3
S1134D80FCC11BC0EA89E03709F4A3C0E13744F44D
S1134D90EC3669F1EF3671F0E93609F0EEC16FC017
S1134DA0FA89F53709F49DC0F83739F0F33709F07B
S1134DB0E4C134C028E0298B94C030E1398B91C020
S1134DC080E190E0A82AB92AE0E2F0E0AE2ABF2A06
S1134DD0F2C120E830E00DC080E490E0A82AB92AAE
S1134DE0EAC1E8E0F0E0AE2ABF2A1D86E4C124E06F
S1134DF030E0A22AB32ADFC14FE3C42E3E853150EE
S1134E003E8783E68A8B44C1F201C080FE85F1505F
S1134E10FE8722E030E0420E531E3AC1F201C08008
S1134E20D180892B49F0FD856F2F772767FD709519
S1134E30C6010E940D2919C0F60101900020E9F76E
S1134E403197EC19E98B12C0F201C080D180892B13
S1134E5049F0FD856F2F772767FD7095C6010E9485
S1134E60022903C0C6010E94F928898B22E030E0A0
S1134E70420E531E3E858989381B3E8709C1A2FE16
S1134E8008C0F20180819181A281B38124E030E0E5
S1134E9009C0F20180819181AA2797FDA095BA2FBC
S1134EA022E030E0420E531E6C017D01B7FF0CC0BE
S1134EB082E090E0A82AB92AF094E094D094C094B7
S1134EC0C11CD11CE11CF11CEFEBFFEFAE22BF2291
S1134ED021C020E430E0A22AB32A38E73A8B80E1EB
S1134EE0898BA2FE08C0F20180819181A281B381E5
S1134EF024E030E007C0F20180819181AA27BB271A
S1134F0022E030E0420E531E6C017D018FEC9FEFD6
S1134F10A822B92287017601FE013196F88BEF872A
S1134F20F9896F2E772488249924C801B701A40134
S1134F3093010E9478296A3024F02A89620F615211
S1134F4001C0605DEF85F8896193F88BEF87C80134
S1134F50B701A40193010E94782979018A012115DE
S1134F6031054105510509F7CC24DD247601CE0134
S1134F700196CF84C81AC50182739070892B19F0E9
S1134F80FE85F150FE87A6FE09C02989203111F45F
S1134F9082E001C081E03E85381B3E8738E0832EE5
S1134FA0912C8A209B20A3FE1BC08D85282F33279C
S1134FB027FD30958C2D99278217930754F0E7EF3E
S1134FC0FFEFAE22BF2228E0822E912C8A209B2064
S1134FD007C0FD85FC19FD872E852F1B2E8703C076
S1134FE03E853C193E87C50180789170892B69F410
S1134FF08E8506C0B10180E290E00E941829812FBD
S1135000182F11501816B4F31E87A1FE04C0B10165
S11350108DE290E00BC0A4FE04C0B1018BE290E0ED
S113502005C0A5FE05C0B10180E290E00E941829E8
S1135030A6FE10C0B10180E390E00E94182989897E
S1135040803141F4B101EA898E2F992787FD90952B
S11350500E941829B0FE0DC08E8506C0B10180E300
S113506090E00E941829812F182F11501816B4F3BC
S11350701E87892869F02D8506C0B10180E390E080
S11350800E941829212F122F11501216B4F31D87D4
S113509090E8692E712C6A207B20A7FC0DC08E85B8
S11350A006C0B10180E290E00E941829812F182FD8
S11350B011501816B4F31E87FA89F33641F4B1017E
S11350C08C2D992787FD90950E94182946C02A891E
S11350D02337B1F446015601198909C0F5018191BC
S11350E05F01B101992787FD90950E9418291150FD
S11350F0A8F76401F989CF0ED11C2FEF298B2DC09D
S11351003A89333519F00F85188920C04601860184
S1135110B98809C0F801C895802DB10199270E946A
S113512018290F5F1F4FBA94FFEFBF1699F7640158
S11351302989C20ED11CF98B10C0F80182918F010C
S1135140B101992787FD90950E941829CE010196F7
S11351500817190791F7188B0F876728B1F08E8508
S113516006C0B10180E290E00E941829812F182F17
S113517011501816B4F31E8708C0B101FA898F2F95
S1135180992787FD90950E941829AA24BB2413C04F
S11351902A89253241F43AE0398B1E861D8681E046
S11351A0A82EB12C08C0B101EA898E2F992787FD5A
S11351B090950E9418292B893C892F5F3F4F3C8B87
S11351C02B8BF101838183FF05C0EB89FC89C89592
S11351D0F02D03C0EB89FC89F081FA8B2A89222304
S11351E009F07CCDF10186819781E2E164960C940B
S11351F0D529FC0105900020E9F7809590958E0F44
S11352009F1F0895FC010590615070400110D8F76C
S1135210809590958E0F9F1F0895FC0161507040FA
S113522001900110D8F7809590958E0F9F1F0895D7
S11352300F931F93CF93DF938C01EB018B819927FD
S113524081FF1BC082FF0DC02E813F818C819D8117
S11352502817390764F4E881F9810193F983E88315
S113526006C0E885F985802F0995892B31F48E8154
S11352709F8101969F838E8302C00FEF1FEFC801A9
S1135280DF91CF911F910F910895991B79E004C08C
S1135290991F961708F0961B881F7A95C9F7809571
S11352A00895AA1BBB1B51E107C0AA1FBB1FA61769
S11352B0B70710F0A61BB70B881F991F5A95A9F7BB
S11352C080959095BC01CD01089597FB092E072682
S11352D00AD077FD04D0E5DF06D000201AF47095DB
S11352E061957F4F0895F6F7909581959F4F0895A6
S11352F0A1E21A2EAA1BBB1BFD010DC0AA1FBB1FD6
S1135300EE1FFF1FA217B307E407F50720F0A21B47
S1135310B30BE40BF50B661F771F881F991F1A94B4
S113532069F760957095809590959B01AC01BD01DE
S1135330CF010895629FD001739FF001829FE00D19
S1135340F11D649FE00DF11D929FF00D839FF00D00
S1135350749FF00D659FF00D9927729FB00DE11DAC
S1135360F91F639FB00DE11DF91FBD01CF01112489
S113537008952F923F924F925F926F927F928F92F5
S11353809F92AF92BF92CF92DF92EF92FF920F93D0
S11353901F93CF93DF93CDB7DEB7CA1BDB0B0FB6DA
S11353A0F894DEBF0FBECDBF09942A883988488897
S11353B05F846E847D848C849B84AA84B984C8842D
S11353C0DF80EE80FD800C811B81AA81B981CE0F24
S11353D0D11D0FB6F894DEBF0FBECDBFED01089509
S10553E0FFCFF9
S11353E20A2045001B7261736520537461727465EF
S11353F264000A2025752025752025642025642053
S1135402257520256C7520000A204572726F722062
S11354127768656E2072656164696E67000A574435
S1135422000A414D436F6E74726F6C205374617243
S113543274656400000A2042000A2043000A2044E2
S1135442000A205772697465202575202575202568
S11354526420256420257520000A2057726974652A
S11354622061646472657373203A20256C75200090
S11354720A666C617368206D656D6F72792066755A
S11354826C6C212121000A20537461727420746FA0
S11354922065617273650001001FFFFF01FF0804AC
S11354A23C040804FFFFFFFF010022FFFFFF01018C
S11154B20000000200000000940D0000000045
S9030000FC
